{
  "transactions": [
    {
      "hash": "0x9c1f4a83c46f7b8f8e5663d502e4fdca2eb1deb2ea74acf297b7b56bf59a6e97",
      "transactionType": "CALL",
      "contractName": null,
      "contractAddress": "0x30b8cf2aa67e1e13a096d8838cc942fbbd52778b",
      "function": "execTransaction(address,uint256,bytes,uint8,uint256,uint256,uint256,address,address,bytes)",
      "arguments": [
        "0xa3212332057C479937EA5efE4c92EcE8d3a3100a",
        "0",
        "0x982dd3d30000000000000000000000000b2c639c533813f4aa9d7837caf62653d097ff8500000000000000000000000000000000000000000000000000000000000000600000000000000000000000000000000000000000000000000000000000000120000000000000000000000000000000000000000000000000000000000000000100000000000000000000000000000000000000000000000000000000000000200000000000000000000000000000000000000000000000000000000000000044095ea7b300000000000000000000000068b3465833fb72a70ecdf485e0e4c7bd8665fc45000000000000000000000000000000000000000000000000000000000000000000000000000000000000000000000000000000000000000000000000000000000000000000000000000000000000000000000000000000000000000100000000000000000000000000000000000000000000000000000000000000200000000000000000000000000000000000000000000000000000000000000044ffffffff000000000000000000000000ffffffffffffffffffffffffffffffffffffffff000000000000000000000000000000000000000000000000000000000000000000000000000000000000000000000000000000000000000000000000",
        "0",
        "0",
        "0",
        "0",
        "0x0000000000000000000000000000000000000000",
        "0x0000000000000000000000000000000000000000",
        "0x7cd439fff1a673b5d22707e0b442477b26891a208af4aeba00235e26646e4cfc3fc27e9249309d0349ae914b144d3ccd92ff42df209da49f1dc9d2a7d3f536b11c"
      ],
      "transaction": {
        "from": "0xfa28c7fbd5b4752dfebdf498d86677e50c2812fa",
        "to": "0x30b8cf2aa67e1e13a096d8838cc942fbbd52778b",
        "gas": "0x5ddac",
        "value": "0x0",
        "input": "0x6a761202000000000000000000000000a3212332057c479937ea5efe4c92ece8d3a3100a00000000000000000000000000000000000000000000000000000000000000000000000000000000000000000000000000000000000000000000000000000140000000000000000000000000000000000000000000000000000000000000000000000000000000000000000000000000000000000000000000000000000000000000000000000000000000000000000000000000000000000000000000000000000000000000000000000000000000000000000000000000000000000000000000000000000000000000000000000000000000000000000000000000000000000000000000000000000000000000000000000000000000000000000000000000000000000000000000000000000000000000000000000000000000000000036000000000000000000000000000000000000000000000000000000000000001e4982dd3d30000000000000000000000000b2c639c533813f4aa9d7837caf62653d097ff8500000000000000000000000000000000000000000000000000000000000000600000000000000000000000000000000000000000000000000000000000000120000000000000000000000000000000000000000000000000000000000000000100000000000000000000000000000000000000000000000000000000000000200000000000000000000000000000000000000000000000000000000000000044095ea7b300000000000000000000000068b3465833fb72a70ecdf485e0e4c7bd8665fc45000000000000000000000000000000000000000000000000000000000000000000000000000000000000000000000000000000000000000000000000000000000000000000000000000000000000000000000000000000000000000100000000000000000000000000000000000000000000000000000000000000200000000000000000000000000000000000000000000000000000000000000044ffffffff000000000000000000000000ffffffffffffffffffffffffffffffffffffffff0000000000000000000000000000000000000000000000000000000000000000000000000000000000000000000000000000000000000000000000000000000000000000000000000000000000000000000000000000000000000000000000000000000000000000000000000000000000000000000000417cd439fff1a673b5d22707e0b442477b26891a208af4aeba00235e26646e4cfc3fc27e9249309d0349ae914b144d3ccd92ff42df209da49f1dc9d2a7d3f536b11c00000000000000000000000000000000000000000000000000000000000000",
        "nonce": "0x9",
        "chainId": "0xa"
      },
      "additionalContracts": [],
      "isFixedGasLimit": false
    },
    {
      "hash": "0x408942aa70036fcfa5b52957c2deb2eca2ab84cb9f6f6c90c92e8c17a31147f2",
      "transactionType": "CALL",
      "contractName": null,
      "contractAddress": "0x30b8cf2aa67e1e13a096d8838cc942fbbd52778b",
      "function": "execTransaction(address,uint256,bytes,uint8,uint256,uint256,uint256,address,address,bytes)",
      "arguments": [
        "0xa3212332057C479937EA5efE4c92EcE8d3a3100a",
        "0",
        "0x982dd3d300000000000000000000000094b008aa00579c1307b0ef2c499ad98a8ce58e5800000000000000000000000000000000000000000000000000000000000000600000000000000000000000000000000000000000000000000000000000000120000000000000000000000000000000000000000000000000000000000000000100000000000000000000000000000000000000000000000000000000000000200000000000000000000000000000000000000000000000000000000000000044095ea7b300000000000000000000000068b3465833fb72a70ecdf485e0e4c7bd8665fc45000000000000000000000000000000000000000000000000000000000000000000000000000000000000000000000000000000000000000000000000000000000000000000000000000000000000000000000000000000000000000100000000000000000000000000000000000000000000000000000000000000200000000000000000000000000000000000000000000000000000000000000044ffffffff000000000000000000000000ffffffffffffffffffffffffffffffffffffffff000000000000000000000000000000000000000000000000000000000000000000000000000000000000000000000000000000000000000000000000",
        "0",
        "0",
        "0",
        "0",
        "0x0000000000000000000000000000000000000000",
        "0x0000000000000000000000000000000000000000",
        "0x2601bec0954a4a9649f795108c447be8b99ed2a7413b9ae486026d8b77d862904beebc2c1f0a24fa35c0d071fade8085a0698671dd21fda8907b82cbf0105f4d1b"
      ],
      "transaction": {
        "from": "0xfa28c7fbd5b4752dfebdf498d86677e50c2812fa",
        "to": "0x30b8cf2aa67e1e13a096d8838cc942fbbd52778b",
        "gas": "0x5ddac",
        "value": "0x0",
        "input": "0x6a761202000000000000000000000000a3212332057c479937ea5efe4c92ece8d3a3100a00000000000000000000000000000000000000000000000000000000000000000000000000000000000000000000000000000000000000000000000000000140000000000000000000000000000000000000000000000000000000000000000000000000000000000000000000000000000000000000000000000000000000000000000000000000000000000000000000000000000000000000000000000000000000000000000000000000000000000000000000000000000000000000000000000000000000000000000000000000000000000000000000000000000000000000000000000000000000000000000000000000000000000000000000000000000000000000000000000000000000000000000000000000000000000000036000000000000000000000000000000000000000000000000000000000000001e4982dd3d300000000000000000000000094b008aa00579c1307b0ef2c499ad98a8ce58e5800000000000000000000000000000000000000000000000000000000000000600000000000000000000000000000000000000000000000000000000000000120000000000000000000000000000000000000000000000000000000000000000100000000000000000000000000000000000000000000000000000000000000200000000000000000000000000000000000000000000000000000000000000044095ea7b300000000000000000000000068b3465833fb72a70ecdf485e0e4c7bd8665fc45000000000000000000000000000000000000000000000000000000000000000000000000000000000000000000000000000000000000000000000000000000000000000000000000000000000000000000000000000000000000000100000000000000000000000000000000000000000000000000000000000000200000000000000000000000000000000000000000000000000000000000000044ffffffff000000000000000000000000ffffffffffffffffffffffffffffffffffffffff0000000000000000000000000000000000000000000000000000000000000000000000000000000000000000000000000000000000000000000000000000000000000000000000000000000000000000000000000000000000000000000000000000000000000000000000000000000000000000000000412601bec0954a4a9649f795108c447be8b99ed2a7413b9ae486026d8b77d862904beebc2c1f0a24fa35c0d071fade8085a0698671dd21fda8907b82cbf0105f4d1b00000000000000000000000000000000000000000000000000000000000000",
        "nonce": "0xa",
        "chainId": "0xa"
      },
      "additionalContracts": [],
      "isFixedGasLimit": false
    },
    {
      "hash": "0x98ef83bf8e812872a95e4f2ee468e532d839f2485450d3338c9755f28e335f3f",
      "transactionType": "CALL",
      "contractName": null,
      "contractAddress": "0x30b8cf2aa67e1e13a096d8838cc942fbbd52778b",
      "function": "execTransaction(address,uint256,bytes,uint8,uint256,uint256,uint256,address,address,bytes)",
      "arguments": [
        "0xa3212332057C479937EA5efE4c92EcE8d3a3100a",
        "0",
        "0x982dd3d3000000000000000000000000420000000000000000000000000000000000000600000000000000000000000000000000000000000000000000000000000000600000000000000000000000000000000000000000000000000000000000000120000000000000000000000000000000000000000000000000000000000000000100000000000000000000000000000000000000000000000000000000000000200000000000000000000000000000000000000000000000000000000000000044095ea7b300000000000000000000000068b3465833fb72a70ecdf485e0e4c7bd8665fc45000000000000000000000000000000000000000000000000000000000000000000000000000000000000000000000000000000000000000000000000000000000000000000000000000000000000000000000000000000000000000100000000000000000000000000000000000000000000000000000000000000200000000000000000000000000000000000000000000000000000000000000044ffffffff000000000000000000000000ffffffffffffffffffffffffffffffffffffffff000000000000000000000000000000000000000000000000000000000000000000000000000000000000000000000000000000000000000000000000",
        "0",
        "0",
        "0",
        "0",
        "0x0000000000000000000000000000000000000000",
        "0x0000000000000000000000000000000000000000",
        "0xc69dc9192fc15ff848acc3128cd8a10dd607a1ccb0e2fa2a5ae81c18247dc81e6f1c5f8d7ededb8ac60524db4a5c873ae559b0ccdf2d2e2e9ad4a78edeea1f221c"
      ],
      "transaction": {
        "from": "0xfa28c7fbd5b4752dfebdf498d86677e50c2812fa",
        "to": "0x30b8cf2aa67e1e13a096d8838cc942fbbd52778b",
        "gas": "0x58924",
        "value": "0x0",
        "input": "0x6a761202000000000000000000000000a3212332057c479937ea5efe4c92ece8d3a3100a00000000000000000000000000000000000000000000000000000000000000000000000000000000000000000000000000000000000000000000000000000140000000000000000000000000000000000000000000000000000000000000000000000000000000000000000000000000000000000000000000000000000000000000000000000000000000000000000000000000000000000000000000000000000000000000000000000000000000000000000000000000000000000000000000000000000000000000000000000000000000000000000000000000000000000000000000000000000000000000000000000000000000000000000000000000000000000000000000000000000000000000000000000000000000000000036000000000000000000000000000000000000000000000000000000000000001e4982dd3d3000000000000000000000000420000000000000000000000000000000000000600000000000000000000000000000000000000000000000000000000000000600000000000000000000000000000000000000000000000000000000000000120000000000000000000000000000000000000000000000000000000000000000100000000000000000000000000000000000000000000000000000000000000200000000000000000000000000000000000000000000000000000000000000044095ea7b300000000000000000000000068b3465833fb72a70ecdf485e0e4c7bd8665fc45000000000000000000000000000000000000000000000000000000000000000000000000000000000000000000000000000000000000000000000000000000000000000000000000000000000000000000000000000000000000000100000000000000000000000000000000000000000000000000000000000000200000000000000000000000000000000000000000000000000000000000000044ffffffff000000000000000000000000ffffffffffffffffffffffffffffffffffffffff000000000000000000000000000000000000000000000000000000000000000000000000000000000000000000000000000000000000000000000000000000000000000000000000000000000000000000000000000000000000000000000000000000000000000000000000000000000000000000000041c69dc9192fc15ff848acc3128cd8a10dd607a1ccb0e2fa2a5ae81c18247dc81e6f1c5f8d7ededb8ac60524db4a5c873ae559b0ccdf2d2e2e9ad4a78edeea1f221c00000000000000000000000000000000000000000000000000000000000000",
        "nonce": "0xb",
        "chainId": "0xa"
      },
      "additionalContracts": [],
      "isFixedGasLimit": false
    },
    {
      "hash": "0xa4037946a3b577c868388cdad75630ced1a725df535e7bf452d5cc8350ec5e17",
      "transactionType": "CALL",
      "contractName": null,
      "contractAddress": "0x30b8cf2aa67e1e13a096d8838cc942fbbd52778b",
      "function": "execTransaction(address,uint256,bytes,uint8,uint256,uint256,uint256,address,address,bytes)",
      "arguments": [
        "0xa3212332057C479937EA5efE4c92EcE8d3a3100a",
        "0",
        "0x982dd3d300000000000000000000000068b3465833fb72a70ecdf485e0e4c7bd8665fc450000000000000000000000000000000000000000000000000000000000000060000000000000000000000000000000000000000000000000000000000000024000000000000000000000000000000000000000000000000000000000000000030000000000000000000000000000000000000000000000000000000000000060000000000000000000000000000000000000000000000000000000000000018000000000000000000000000000000000000000000000000000000000000001a000000000000000000000000000000000000000000000000000000000000000e404e45aaf0000000000000000000000000b2c639c533813f4aa9d7837caf62653d097ff850000000000000000000000000000000000000000000000000000000000000000000000000000000000000000000000000000000000000000000000000000000000000000000000000000000030b8cf2aa67e1e13a096d8838cc942fbbd52778b000000000000000000000000000000000000000000000000000000000000000000000000000000000000000000000000000000000000000000000000000000000000000000000000000000000000000000000000000000000000000000000000000000000000000000000000000000000000000000000000000000000000000000000000000000000000000000000000000000000000000000000000000000000000000000000000000000000000000000000000000000000000000000000000000000000000000000000000000000000000000000000000000000030000000000000000000000000000000000000000000000000000000000000060000000000000000000000000000000000000000000000000000000000000018000000000000000000000000000000000000000000000000000000000000001a000000000000000000000000000000000000000000000000000000000000000e4ffffffff000000000000000000000000ffffffffffffffffffffffffffffffffffffffff00000000000000000000000000000000000000000000000000000000000000000000000000000000000000000000000000000000000000000000000000000000000000000000000000000000ffffffffffffffffffffffffffffffffffffffff0000000000000000000000000000000000000000000000000000000000000000000000000000000000000000000000000000000000000000000000000000000000000000000000000000000000000000000000000000000000000000000000000000000000000000000000000000000000000000000000000000000000000000000000000000000000000000000000000000000000000000000000000000000000000000000000000000000000000000000000000000000000000000",
        "0",
        "0",
        "0",
        "0",
        "0x0000000000000000000000000000000000000000",
        "0x0000000000000000000000000000000000000000",
        "0x162ced1887e97ed876add0d39c293e74636041342b2066f34a0eee15993a7d5749f84a2aff8bc36ca9461e848f4e684b6fc817692b339a1f578bbcb49a83ed041b"
      ],
      "transaction": {
        "from": "0xfa28c7fbd5b4752dfebdf498d86677e50c2812fa",
        "to": "0x30b8cf2aa67e1e13a096d8838cc942fbbd52778b",
        "gas": "0x85cc9",
        "value": "0x0",
        "input": "0x6a761202000000000000000000000000a3212332057c479937ea5efe4c92ece8d3a3100a0000000000000000000000000000000000000000000000000000000000000000000000000000000000000000000000000000000000000000000000000000014000000000000000000000000000000000000000000000000000000000000000000000000000000000000000000000000000000000000000000000000000000000000000000000000000000000000000000000000000000000000000000000000000000000000000000000000000000000000000000000000000000000000000000000000000000000000000000000000000000000000000000000000000000000000000000000000000000000000000000000000000000000000000000000000000000000000000000000000000000000000000000000000000000000000005a00000000000000000000000000000000000000000000000000000000000000424982dd3d300000000000000000000000068b3465833fb72a70ecdf485e0e4c7bd8665fc450000000000000000000000000000000000000000000000000000000000000060000000000000000000000000000000000000000000000000000000000000024000000000000000000000000000000000000000000000000000000000000000030000000000000000000000000000000000000000000000000000000000000060000000000000000000000000000000000000000000000000000000000000018000000000000000000000000000000000000000000000000000000000000001a000000000000000000000000000000000000000000000000000000000000000e404e45aaf0000000000000000000000000b2c639c533813f4aa9d7837caf62653d097ff850000000000000000000000000000000000000000000000000000000000000000000000000000000000000000000000000000000000000000000000000000000000000000000000000000000030b8cf2aa67e1e13a096d8838cc942fbbd52778b000000000000000000000000000000000000000000000000000000000000000000000000000000000000000000000000000000000000000000000000000000000000000000000000000000000000000000000000000000000000000000000000000000000000000000000000000000000000000000000000000000000000000000000000000000000000000000000000000000000000000000000000000000000000000000000000000000000000000000000000000000000000000000000000000000000000000000000000000000000000000000000000000000030000000000000000000000000000000000000000000000000000000000000060000000000000000000000000000000000000000000000000000000000000018000000000000000000000000000000000000000000000000000000000000001a000000000000000000000000000000000000000000000000000000000000000e4ffffffff000000000000000000000000ffffffffffffffffffffffffffffffffffffffff00000000000000000000000000000000000000000000000000000000000000000000000000000000000000000000000000000000000000000000000000000000000000000000000000000000ffffffffffffffffffffffffffffffffffffffff0000000000000000000000000000000000000000000000000000000000000000000000000000000000000000000000000000000000000000000000000000000000000000000000000000000000000000000000000000000000000000000000000000000000000000000000000000000000000000000000000000000000000000000000000000000000000000000000000000000000000000000000000000000000000000000000000000000000000000000000000000000000000000000000000000000000000000000000000000000000000000000000000000000000000000000000000000000000000000000000000000000000000041162ced1887e97ed876add0d39c293e74636041342b2066f34a0eee15993a7d5749f84a2aff8bc36ca9461e848f4e684b6fc817692b339a1f578bbcb49a83ed041b00000000000000000000000000000000000000000000000000000000000000",
        "nonce": "0xc",
        "chainId": "0xa"
      },
      "additionalContracts": [],
      "isFixedGasLimit": false
    },
    {
      "hash": "0x493eded82c1318e334721260fc886c336d120a48b55e32914532bbed9ed4500e",
      "transactionType": "CALL",
      "contractName": null,
      "contractAddress": "0x30b8cf2aa67e1e13a096d8838cc942fbbd52778b",
      "function": "execTransaction(address,uint256,bytes,uint8,uint256,uint256,uint256,address,address,bytes)",
      "arguments": [
        "0xa3212332057C479937EA5efE4c92EcE8d3a3100a",
        "0",
        "0x982dd3d300000000000000000000000068b3465833fb72a70ecdf485e0e4c7bd8665fc450000000000000000000000000000000000000000000000000000000000000060000000000000000000000000000000000000000000000000000000000000024000000000000000000000000000000000000000000000000000000000000000030000000000000000000000000000000000000000000000000000000000000060000000000000000000000000000000000000000000000000000000000000008000000000000000000000000000000000000000000000000000000000000001a0000000000000000000000000000000000000000000000000000000000000000000000000000000000000000000000000000000000000000000000000000000e404e45aaf00000000000000000000000094b008aa00579c1307b0ef2c499ad98a8ce58e580000000000000000000000000000000000000000000000000000000000000000000000000000000000000000000000000000000000000000000000000000000000000000000000000000000030b8cf2aa67e1e13a096d8838cc942fbbd52778b00000000000000000000000000000000000000000000000000000000000000000000000000000000000000000000000000000000000000000000000000000000000000000000000000000000000000000000000000000000000000000000000000000000000000000000000000000000000000000000000000000000000000000000000000000000000000000000000000000000000000000000000000000000000000000000000000000000000000000000000000000000000000030000000000000000000000000000000000000000000000000000000000000060000000000000000000000000000000000000000000000000000000000000008000000000000000000000000000000000000000000000000000000000000001a0000000000000000000000000000000000000000000000000000000000000000000000000000000000000000000000000000000000000000000000000000000e4ffffffff000000000000000000000000ffffffffffffffffffffffffffffffffffffffff00000000000000000000000000000000000000000000000000000000000000000000000000000000000000000000000000000000000000000000000000000000000000000000000000000000ffffffffffffffffffffffffffffffffffffffff000000000000000000000000000000000000000000000000000000000000000000000000000000000000000000000000000000000000000000000000000000000000000000000000000000000000000000000000000000000000000000000000000000000000000000000000000000000000000000000000000000000000000000000000000000000000000000000000000000000000000000000000",
        "0",
        "0",
        "0",
        "0",
        "0x0000000000000000000000000000000000000000",
        "0x0000000000000000000000000000000000000000",
        "0x7db8cd847112a82ac8ce17c942af1ec44a1e8e06ba2d2dda72959e5f5a7338c03bce6d7606c389705e0eeb74743b66ac149dd6d95fe6da973dd3823e3d51cfbd1b"
      ],
      "transaction": {
        "from": "0xfa28c7fbd5b4752dfebdf498d86677e50c2812fa",
        "to": "0x30b8cf2aa67e1e13a096d8838cc942fbbd52778b",
        "gas": "0x7ddb5",
        "value": "0x0",
        "input": "0x6a761202000000000000000000000000a3212332057c479937ea5efe4c92ece8d3a3100a0000000000000000000000000000000000000000000000000000000000000000000000000000000000000000000000000000000000000000000000000000014000000000000000000000000000000000000000000000000000000000000000000000000000000000000000000000000000000000000000000000000000000000000000000000000000000000000000000000000000000000000000000000000000000000000000000000000000000000000000000000000000000000000000000000000000000000000000000000000000000000000000000000000000000000000000000000000000000000000000000000000000000000000000000000000000000000000000000000000000000000000000000000000000000000000005a00000000000000000000000000000000000000000000000000000000000000424982dd3d300000000000000000000000068b3465833fb72a70ecdf485e0e4c7bd8665fc450000000000000000000000000000000000000000000000000000000000000060000000000000000000000000000000000000000000000000000000000000024000000000000000000000000000000000000000000000000000000000000000030000000000000000000000000000000000000000000000000000000000000060000000000000000000000000000000000000000000000000000000000000008000000000000000000000000000000000000000000000000000000000000001a0000000000000000000000000000000000000000000000000000000000000000000000000000000000000000000000000000000000000000000000000000000e404e45aaf00000000000000000000000094b008aa00579c1307b0ef2c499ad98a8ce58e580000000000000000000000000000000000000000000000000000000000000000000000000000000000000000000000000000000000000000000000000000000000000000000000000000000030b8cf2aa67e1e13a096d8838cc942fbbd52778b00000000000000000000000000000000000000000000000000000000000000000000000000000000000000000000000000000000000000000000000000000000000000000000000000000000000000000000000000000000000000000000000000000000000000000000000000000000000000000000000000000000000000000000000000000000000000000000000000000000000000000000000000000000000000000000000000000000000000000000000000000000000000030000000000000000000000000000000000000000000000000000000000000060000000000000000000000000000000000000000000000000000000000000008000000000000000000000000000000000000000000000000000000000000001a0000000000000000000000000000000000000000000000000000000000000000000000000000000000000000000000000000000000000000000000000000000e4ffffffff000000000000000000000000ffffffffffffffffffffffffffffffffffffffff00000000000000000000000000000000000000000000000000000000000000000000000000000000000000000000000000000000000000000000000000000000000000000000000000000000ffffffffffffffffffffffffffffffffffffffff0000000000000000000000000000000000000000000000000000000000000000000000000000000000000000000000000000000000000000000000000000000000000000000000000000000000000000000000000000000000000000000000000000000000000000000000000000000000000000000000000000000000000000000000000000000000000000000000000000000000000000000000000000000000000000000000000000000000000000000000000000000000000000000000000000000000000000000000000000000000000000000000417db8cd847112a82ac8ce17c942af1ec44a1e8e06ba2d2dda72959e5f5a7338c03bce6d7606c389705e0eeb74743b66ac149dd6d95fe6da973dd3823e3d51cfbd1b00000000000000000000000000000000000000000000000000000000000000",
        "nonce": "0xd",
        "chainId": "0xa"
      },
      "additionalContracts": [],
      "isFixedGasLimit": false
    },
    {
      "hash": "0x641b131552b8f739c9a3580e23d5d732e877c73d6f6b86dfe5b264aae203468d",
      "transactionType": "CALL",
      "contractName": null,
      "contractAddress": "0x30b8cf2aa67e1e13a096d8838cc942fbbd52778b",
      "function": "execTransaction(address,uint256,bytes,uint8,uint256,uint256,uint256,address,address,bytes)",
      "arguments": [
        "0xa3212332057C479937EA5efE4c92EcE8d3a3100a",
        "0",
        "0x982dd3d300000000000000000000000068b3465833fb72a70ecdf485e0e4c7bd8665fc450000000000000000000000000000000000000000000000000000000000000060000000000000000000000000000000000000000000000000000000000000024000000000000000000000000000000000000000000000000000000000000000030000000000000000000000000000000000000000000000000000000000000060000000000000000000000000000000000000000000000000000000000000008000000000000000000000000000000000000000000000000000000000000000a00000000000000000000000000000000000000000000000000000000000000000000000000000000000000000000000000000000000000000000000000000000000000000000000000000000000000000000000000000000000000000000000e404e45aaf00000000000000000000000042000000000000000000000000000000000000060000000000000000000000000000000000000000000000000000000000000000000000000000000000000000000000000000000000000000000000000000000000000000000000000000000030b8cf2aa67e1e13a096d8838cc942fbbd52778b0000000000000000000000000000000000000000000000000000000000000000000000000000000000000000000000000000000000000000000000000000000000000000000000000000000000000000000000000000000000000000000000000000000000000000000000000000000000000000000000000000000000000000000000000000000000000000000000000000000000000000000000030000000000000000000000000000000000000000000000000000000000000060000000000000000000000000000000000000000000000000000000000000008000000000000000000000000000000000000000000000000000000000000000a00000000000000000000000000000000000000000000000000000000000000000000000000000000000000000000000000000000000000000000000000000000000000000000000000000000000000000000000000000000000000000000000e4ffffffff000000000000000000000000ffffffffffffffffffffffffffffffffffffffff00000000000000000000000000000000000000000000000000000000000000000000000000000000000000000000000000000000000000000000000000000000000000000000000000000000ffffffffffffffffffffffffffffffffffffffff00000000000000000000000000000000000000000000000000000000000000000000000000000000000000000000000000000000000000000000000000000000000000000000000000000000000000000000000000000000000000000000000000000000000000000000000000000000000000000000000000000000",
        "0",
        "0",
        "0",
        "0",
        "0x0000000000000000000000000000000000000000",
        "0x0000000000000000000000000000000000000000",
        "0xca6b45e7622512cfff34792d6057d5d019aa98e5259c88f518d1db312bbe3c2a41108ff01bb5ccbbba208ac5245ecad2c6a182a135ae6329caa2d52b3861e83c1c"
      ],
      "transaction": {
        "from": "0xfa28c7fbd5b4752dfebdf498d86677e50c2812fa",
        "to": "0x30b8cf2aa67e1e13a096d8838cc942fbbd52778b",
        "gas": "0x7dc7b",
        "value": "0x0",
        "input": "0x6a761202000000000000000000000000a3212332057c479937ea5efe4c92ece8d3a3100a0000000000000000000000000000000000000000000000000000000000000000000000000000000000000000000000000000000000000000000000000000014000000000000000000000000000000000000000000000000000000000000000000000000000000000000000000000000000000000000000000000000000000000000000000000000000000000000000000000000000000000000000000000000000000000000000000000000000000000000000000000000000000000000000000000000000000000000000000000000000000000000000000000000000000000000000000000000000000000000000000000000000000000000000000000000000000000000000000000000000000000000000000000000000000000000005a00000000000000000000000000000000000000000000000000000000000000424982dd3d300000000000000000000000068b3465833fb72a70ecdf485e0e4c7bd8665fc450000000000000000000000000000000000000000000000000000000000000060000000000000000000000000000000000000000000000000000000000000024000000000000000000000000000000000000000000000000000000000000000030000000000000000000000000000000000000000000000000000000000000060000000000000000000000000000000000000000000000000000000000000008000000000000000000000000000000000000000000000000000000000000000a00000000000000000000000000000000000000000000000000000000000000000000000000000000000000000000000000000000000000000000000000000000000000000000000000000000000000000000000000000000000000000000000e404e45aaf00000000000000000000000042000000000000000000000000000000000000060000000000000000000000000000000000000000000000000000000000000000000000000000000000000000000000000000000000000000000000000000000000000000000000000000000030b8cf2aa67e1e13a096d8838cc942fbbd52778b0000000000000000000000000000000000000000000000000000000000000000000000000000000000000000000000000000000000000000000000000000000000000000000000000000000000000000000000000000000000000000000000000000000000000000000000000000000000000000000000000000000000000000000000000000000000000000000000000000000000000000000000030000000000000000000000000000000000000000000000000000000000000060000000000000000000000000000000000000000000000000000000000000008000000000000000000000000000000000000000000000000000000000000000a00000000000000000000000000000000000000000000000000000000000000000000000000000000000000000000000000000000000000000000000000000000000000000000000000000000000000000000000000000000000000000000000e4ffffffff000000000000000000000000ffffffffffffffffffffffffffffffffffffffff00000000000000000000000000000000000000000000000000000000000000000000000000000000000000000000000000000000000000000000000000000000000000000000000000000000ffffffffffffffffffffffffffffffffffffffff00000000000000000000000000000000000000000000000000000000000000000000000000000000000000000000000000000000000000000000000000000000000000000000000000000000000000000000000000000000000000000000000000000000000000000000000000000000000000000000000000000000000000000000000000000000000000000000000000000000000000000000000000000000000000000000000000000000000000000000000000000041ca6b45e7622512cfff34792d6057d5d019aa98e5259c88f518d1db312bbe3c2a41108ff01bb5ccbbba208ac5245ecad2c6a182a135ae6329caa2d52b3861e83c1c00000000000000000000000000000000000000000000000000000000000000",
        "nonce": "0xe",
        "chainId": "0xa"
      },
      "additionalContracts": [],
      "isFixedGasLimit": false
    },
    {
      "hash": "0xf09787d2d4366985565e4f0c0863e74e068544a274ba421cc3dfb7ab21e817eb",
      "transactionType": "CALL",
      "contractName": null,
      "contractAddress": "0x30b8cf2aa67e1e13a096d8838cc942fbbd52778b",
      "function": "execTransaction(address,uint256,bytes,uint8,uint256,uint256,uint256,address,address,bytes)",
      "arguments": [
        "0x30B8Cf2AA67E1e13A096d8838cC942Fbbd52778b",
        "0",
        "0xf08a03230000000000000000000000000000000000000000000000000000000000000000",
        "0",
        "0",
        "0",
        "0",
        "0x0000000000000000000000000000000000000000",
        "0x0000000000000000000000000000000000000000",
        "0xc63c3f94ed1af4f2690e37d4225710d089eacce630758c9c1106dfaec1aa49fb50223f88e42baa2ab585d602095a1476623adc848038d0742cf9179ed67ea1951b"
      ],
      "transaction": {
        "from": "0xfa28c7fbd5b4752dfebdf498d86677e50c2812fa",
        "to": "0x30b8cf2aa67e1e13a096d8838cc942fbbd52778b",
        "gas": "0x14402",
        "value": "0x0",
        "input": "0x6a76120200000000000000000000000030b8cf2aa67e1e13a096d8838cc942fbbd52778b0000000000000000000000000000000000000000000000000000000000000000000000000000000000000000000000000000000000000000000000000000014000000000000000000000000000000000000000000000000000000000000000000000000000000000000000000000000000000000000000000000000000000000000000000000000000000000000000000000000000000000000000000000000000000000000000000000000000000000000000000000000000000000000000000000000000000000000000000000000000000000000000000000000000000000000000000000000000000000000000000000000000000000000000000000000000000000000000000000000000000000000000000000000000000000000001a00000000000000000000000000000000000000000000000000000000000000024f08a03230000000000000000000000000000000000000000000000000000000000000000000000000000000000000000000000000000000000000000000000000000000000000000000000000000000000000000000000000000000000000041c63c3f94ed1af4f2690e37d4225710d089eacce630758c9c1106dfaec1aa49fb50223f88e42baa2ab585d602095a1476623adc848038d0742cf9179ed67ea1951b00000000000000000000000000000000000000000000000000000000000000",
        "nonce": "0xf",
        "chainId": "0xa"
      },
      "additionalContracts": [],
      "isFixedGasLimit": false
    },
    {
      "hash": "0xdfead254b7f1a3f4955b9b1049218b923c7d193766bbcd65a360e0dd5d1ced6c",
      "transactionType": "CALL",
      "contractName": null,
      "contractAddress": "0x30b8cf2aa67e1e13a096d8838cc942fbbd52778b",
      "function": "execTransaction(address,uint256,bytes,uint8,uint256,uint256,uint256,address,address,bytes)",
      "arguments": [
        "0x30B8Cf2AA67E1e13A096d8838cC942Fbbd52778b",
        "0",
        "0xe19a9dd9000000000000000000000000a3212332057c479937ea5efe4c92ece8d3a3100a",
        "0",
        "0",
        "0",
        "0",
        "0x0000000000000000000000000000000000000000",
        "0x0000000000000000000000000000000000000000",
        "0xf51751587777f258fe08b622bebefaf5a202748080d2487e27a68c0be858ea6327733c21782f84f227521cfac3b9db45dc752c05205de23e747f7b1d211117861c"
      ],
      "transaction": {
        "from": "0xfa28c7fbd5b4752dfebdf498d86677e50c2812fa",
        "to": "0x30b8cf2aa67e1e13a096d8838cc942fbbd52778b",
        "gas": "0x1dcbc",
        "value": "0x0",
        "input": "0x6a76120200000000000000000000000030b8cf2aa67e1e13a096d8838cc942fbbd52778b0000000000000000000000000000000000000000000000000000000000000000000000000000000000000000000000000000000000000000000000000000014000000000000000000000000000000000000000000000000000000000000000000000000000000000000000000000000000000000000000000000000000000000000000000000000000000000000000000000000000000000000000000000000000000000000000000000000000000000000000000000000000000000000000000000000000000000000000000000000000000000000000000000000000000000000000000000000000000000000000000000000000000000000000000000000000000000000000000000000000000000000000000000000000000000000001a00000000000000000000000000000000000000000000000000000000000000024e19a9dd9000000000000000000000000a3212332057c479937ea5efe4c92ece8d3a3100a000000000000000000000000000000000000000000000000000000000000000000000000000000000000000000000000000000000000000000000041f51751587777f258fe08b622bebefaf5a202748080d2487e27a68c0be858ea6327733c21782f84f227521cfac3b9db45dc752c05205de23e747f7b1d211117861c00000000000000000000000000000000000000000000000000000000000000",
        "nonce": "0x10",
        "chainId": "0xa"
      },
      "additionalContracts": [],
      "isFixedGasLimit": false
    },
    {
      "hash": "0xccf526dec9a5401b1691174bb07c4da67f6f535d84515ec957a2061c3bf59199",
      "transactionType": "CALL",
      "contractName": null,
      "contractAddress": "0x30b8cf2aa67e1e13a096d8838cc942fbbd52778b",
      "function": "execTransaction(address,uint256,bytes,uint8,uint256,uint256,uint256,address,address,bytes)",
      "arguments": [
        "0xa3212332057C479937EA5efE4c92EcE8d3a3100a",
        "0",
        "0x4313b9e50000000000000000000000000000000000000000000000000000000000000001",
        "0",
        "0",
        "0",
        "0",
        "0x0000000000000000000000000000000000000000",
        "0x0000000000000000000000000000000000000000",
        "0xdc032e293da0e8be417aedd6d621357a433fdfa6c84fffd6b7e63adda4f4645f7b7963075d5a00b128ec62911d1da41b5feaee059cdae1460568baaf0d28ac4d1c"
      ],
      "transaction": {
        "from": "0xfa28c7fbd5b4752dfebdf498d86677e50c2812fa",
        "to": "0x30b8cf2aa67e1e13a096d8838cc942fbbd52778b",
        "gas": "0x279f2",
        "value": "0x0",
        "input": "0x6a761202000000000000000000000000a3212332057c479937ea5efe4c92ece8d3a3100a0000000000000000000000000000000000000000000000000000000000000000000000000000000000000000000000000000000000000000000000000000014000000000000000000000000000000000000000000000000000000000000000000000000000000000000000000000000000000000000000000000000000000000000000000000000000000000000000000000000000000000000000000000000000000000000000000000000000000000000000000000000000000000000000000000000000000000000000000000000000000000000000000000000000000000000000000000000000000000000000000000000000000000000000000000000000000000000000000000000000000000000000000000000000000000000001a000000000000000000000000000000000000000000000000000000000000000244313b9e50000000000000000000000000000000000000000000000000000000000000001000000000000000000000000000000000000000000000000000000000000000000000000000000000000000000000000000000000000000000000041dc032e293da0e8be417aedd6d621357a433fdfa6c84fffd6b7e63adda4f4645f7b7963075d5a00b128ec62911d1da41b5feaee059cdae1460568baaf0d28ac4d1c00000000000000000000000000000000000000000000000000000000000000",
        "nonce": "0x11",
        "chainId": "0xa"
      },
      "additionalContracts": [],
      "isFixedGasLimit": false
    }
  ],
  "receipts": [
    {
      "status": "0x1",
      "cumulativeGasUsed": "0x48698d",
      "logs": [
        {
          "address": "0x30b8cf2aa67e1e13a096d8838cc942fbbd52778b",
          "topics": [
            "0x66753cd2356569ee081232e3be8909b950e0a76c1f8460c3a5e3c2be32b11bed"
          ],
          "data": "0x000000000000000000000000a3212332057c479937ea5efe4c92ece8d3a3100a000000000000000000000000000000000000000000000000000000000000000000000000000000000000000000000000000000000000000000000000000001600000000000000000000000000000000000000000000000000000000000000000000000000000000000000000000000000000000000000000000000000000000000000000000000000000000000000000000000000000000000000000000000000000000000000000000000000000000000000000000000000000000000000000000000000000000000000000000000000000000000000000000000000000000000000000000000000000000000000000000000000000000000000000000000000000000000000000000000000000000000000000000000000000000000000380000000000000000000000000000000000000000000000000000000000000040000000000000000000000000000000000000000000000000000000000000001e4982dd3d30000000000000000000000000b2c639c533813f4aa9d7837caf62653d097ff8500000000000000000000000000000000000000000000000000000000000000600000000000000000000000000000000000000000000000000000000000000120000000000000000000000000000000000000000000000000000000000000000100000000000000000000000000000000000000000000000000000000000000200000000000000000000000000000000000000000000000000000000000000044095ea7b300000000000000000000000068b3465833fb72a70ecdf485e0e4c7bd8665fc45000000000000000000000000000000000000000000000000000000000000000000000000000000000000000000000000000000000000000000000000000000000000000000000000000000000000000000000000000000000000000100000000000000000000000000000000000000000000000000000000000000200000000000000000000000000000000000000000000000000000000000000044ffffffff000000000000000000000000ffffffffffffffffffffffffffffffffffffffff0000000000000000000000000000000000000000000000000000000000000000000000000000000000000000000000000000000000000000000000000000000000000000000000000000000000000000000000000000000000000000000000000000000000000000000000000000000000000000000000417cd439fff1a673b5d22707e0b442477b26891a208af4aeba00235e26646e4cfc3fc27e9249309d0349ae914b144d3ccd92ff42df209da49f1dc9d2a7d3f536b11c0000000000000000000000000000000000000000000000000000000000000000000000000000000000000000000000000000000000000000000000000000600000000000000000000000000000000000000000000000000000000000000004000000000000000000000000fa28c7fbd5b4752dfebdf498d86677e50c2812fa0000000000000000000000000000000000000000000000000000000000000001",
          "blockHash": "0xb11e0b7fe09515c49aa500332ddffa7ffe13488af872f50c2a6a06aab7ca19c0",
          "blockNumber": "0x7dbdada",
          "transactionHash": "0x9c1f4a83c46f7b8f8e5663d502e4fdca2eb1deb2ea74acf297b7b56bf59a6e97",
          "transactionIndex": "0x10",
          "logIndex": "0x2a",
          "removed": false
        },
        {
          "address": "0xa3212332057c479937ea5efe4c92ece8d3a3100a",
          "topics": [
            "0x9737a6ed65b2635eeb5c433d89fda29340f82bc8f269f2fbb303f324c81480e1",
            "0x00000000000000000000000030b8cf2aa67e1e13a096d8838cc942fbbd52778b",
            "0x0000000000000000000000000b2c639c533813f4aa9d7837caf62653d097ff85"
          ],
          "data": "0x00000000000000000000000000000000000000000000000000000000000000400000000000000000000000000000000000000000000000000000000000000100000000000000000000000000000000000000000000000000000000000000000100000000000000000000000000000000000000000000000000000000000000200000000000000000000000000000000000000000000000000000000000000044095ea7b300000000000000000000000068b3465833fb72a70ecdf485e0e4c7bd8665fc45000000000000000000000000000000000000000000000000000000000000000000000000000000000000000000000000000000000000000000000000000000000000000000000000000000000000000000000000000000000000000100000000000000000000000000000000000000000000000000000000000000200000000000000000000000000000000000000000000000000000000000000044ffffffff000000000000000000000000ffffffffffffffffffffffffffffffffffffffff000000000000000000000000000000000000000000000000000000000000000000000000000000000000000000000000000000000000000000000000",
          "blockHash": "0xb11e0b7fe09515c49aa500332ddffa7ffe13488af872f50c2a6a06aab7ca19c0",
          "blockNumber": "0x7dbdada",
          "transactionHash": "0x9c1f4a83c46f7b8f8e5663d502e4fdca2eb1deb2ea74acf297b7b56bf59a6e97",
          "transactionIndex": "0x10",
          "logIndex": "0x2b",
          "removed": false
        },
        {
          "address": "0x30b8cf2aa67e1e13a096d8838cc942fbbd52778b",
          "topics": [
            "0x442e715f626346e8c54381002da614f62bee8d27386535b2521ec8540898556e",
            "0xdfd13f67f9648821574cc946446e6445d9fd335ffa90a9664da76a532962b4e8"
          ],
          "data": "0x0000000000000000000000000000000000000000000000000000000000000000",
          "blockHash": "0xb11e0b7fe09515c49aa500332ddffa7ffe13488af872f50c2a6a06aab7ca19c0",
          "blockNumber": "0x7dbdada",
          "transactionHash": "0x9c1f4a83c46f7b8f8e5663d502e4fdca2eb1deb2ea74acf297b7b56bf59a6e97",
          "transactionIndex": "0x10",
          "logIndex": "0x2c",
          "removed": false
        }
      ],
      "logsBloom": "0x00000000400000000000000000002000000000000000000000000000044000000000100000000000000000000000000000000000000000000000000000080000000000000000000000000000000000000000050000000000000000000000000000000040000000000000000000000000000000000008000000000000000000000000000000000000000000000000000000004000000000000000000000000000000000000400004000000000000004000000000000000000000000000000000000000000000000000000000000020000110000000000000000000001000000000000000000000002200000000000000000008000002000000000000000000000",
      "type": "0x2",
      "transactionHash": "0x9c1f4a83c46f7b8f8e5663d502e4fdca2eb1deb2ea74acf297b7b56bf59a6e97",
      "transactionIndex": "0x10",
      "blockHash": "0xb11e0b7fe09515c49aa500332ddffa7ffe13488af872f50c2a6a06aab7ca19c0",
      "blockNumber": "0x7dbdada",
      "gasUsed": "0x402c9",
      "effectiveGasPrice": "0x18904",
      "from": "0xfa28c7fbd5b4752dfebdf498d86677e50c2812fa",
      "to": "0x30b8cf2aa67e1e13a096d8838cc942fbbd52778b",
      "contractAddress": null,
      "l1BaseFeeScalar": "0x146b",
      "l1BlobBaseFee": "0xc2d3d9e8",
      "l1BlobBaseFeeScalar": "0xf79c5",
      "l1Fee": "0xca88a5f618",
      "l1GasPrice": "0x52936192",
      "l1GasUsed": "0xfd8"
    },
    {
      "status": "0x1",
      "cumulativeGasUsed": "0x4c6c56",
      "logs": [
        {
          "address": "0x30b8cf2aa67e1e13a096d8838cc942fbbd52778b",
          "topics": [
            "0x66753cd2356569ee081232e3be8909b950e0a76c1f8460c3a5e3c2be32b11bed"
          ],
          "data": "0x000000000000000000000000a3212332057c479937ea5efe4c92ece8d3a3100a000000000000000000000000000000000000000000000000000000000000000000000000000000000000000000000000000000000000000000000000000001600000000000000000000000000000000000000000000000000000000000000000000000000000000000000000000000000000000000000000000000000000000000000000000000000000000000000000000000000000000000000000000000000000000000000000000000000000000000000000000000000000000000000000000000000000000000000000000000000000000000000000000000000000000000000000000000000000000000000000000000000000000000000000000000000000000000000000000000000000000000000000000000000000000000000380000000000000000000000000000000000000000000000000000000000000040000000000000000000000000000000000000000000000000000000000000001e4982dd3d300000000000000000000000094b008aa00579c1307b0ef2c499ad98a8ce58e5800000000000000000000000000000000000000000000000000000000000000600000000000000000000000000000000000000000000000000000000000000120000000000000000000000000000000000000000000000000000000000000000100000000000000000000000000000000000000000000000000000000000000200000000000000000000000000000000000000000000000000000000000000044095ea7b300000000000000000000000068b3465833fb72a70ecdf485e0e4c7bd8665fc45000000000000000000000000000000000000000000000000000000000000000000000000000000000000000000000000000000000000000000000000000000000000000000000000000000000000000000000000000000000000000100000000000000000000000000000000000000000000000000000000000000200000000000000000000000000000000000000000000000000000000000000044ffffffff000000000000000000000000ffffffffffffffffffffffffffffffffffffffff0000000000000000000000000000000000000000000000000000000000000000000000000000000000000000000000000000000000000000000000000000000000000000000000000000000000000000000000000000000000000000000000000000000000000000000000000000000000000000000000412601bec0954a4a9649f795108c447be8b99ed2a7413b9ae486026d8b77d862904beebc2c1f0a24fa35c0d071fade8085a0698671dd21fda8907b82cbf0105f4d1b0000000000000000000000000000000000000000000000000000000000000000000000000000000000000000000000000000000000000000000000000000600000000000000000000000000000000000000000000000000000000000000005000000000000000000000000fa28c7fbd5b4752dfebdf498d86677e50c2812fa0000000000000000000000000000000000000000000000000000000000000001",
          "blockHash": "0xb11e0b7fe09515c49aa500332ddffa7ffe13488af872f50c2a6a06aab7ca19c0",
          "blockNumber": "0x7dbdada",
          "transactionHash": "0x408942aa70036fcfa5b52957c2deb2eca2ab84cb9f6f6c90c92e8c17a31147f2",
          "transactionIndex": "0x11",
          "logIndex": "0x2d",
          "removed": false
        },
        {
          "address": "0xa3212332057c479937ea5efe4c92ece8d3a3100a",
          "topics": [
            "0x9737a6ed65b2635eeb5c433d89fda29340f82bc8f269f2fbb303f324c81480e1",
            "0x00000000000000000000000030b8cf2aa67e1e13a096d8838cc942fbbd52778b",
            "0x00000000000000000000000094b008aa00579c1307b0ef2c499ad98a8ce58e58"
          ],
          "data": "0x00000000000000000000000000000000000000000000000000000000000000400000000000000000000000000000000000000000000000000000000000000100000000000000000000000000000000000000000000000000000000000000000100000000000000000000000000000000000000000000000000000000000000200000000000000000000000000000000000000000000000000000000000000044095ea7b300000000000000000000000068b3465833fb72a70ecdf485e0e4c7bd8665fc45000000000000000000000000000000000000000000000000000000000000000000000000000000000000000000000000000000000000000000000000000000000000000000000000000000000000000000000000000000000000000100000000000000000000000000000000000000000000000000000000000000200000000000000000000000000000000000000000000000000000000000000044ffffffff000000000000000000000000ffffffffffffffffffffffffffffffffffffffff000000000000000000000000000000000000000000000000000000000000000000000000000000000000000000000000000000000000000000000000",
          "blockHash": "0xb11e0b7fe09515c49aa500332ddffa7ffe13488af872f50c2a6a06aab7ca19c0",
          "blockNumber": "0x7dbdada",
          "transactionHash": "0x408942aa70036fcfa5b52957c2deb2eca2ab84cb9f6f6c90c92e8c17a31147f2",
          "transactionIndex": "0x11",
          "logIndex": "0x2e",
          "removed": false
        },
        {
          "address": "0x30b8cf2aa67e1e13a096d8838cc942fbbd52778b",
          "topics": [
            "0x442e715f626346e8c54381002da614f62bee8d27386535b2521ec8540898556e",
            "0x38e59ccdbbef6fb60826e5af84e112e1ed9266c26b9a6d9d47f8417c4544ff69"
          ],
          "data": "0x0000000000000000000000000000000000000000000000000000000000000000",
          "blockHash": "0xb11e0b7fe09515c49aa500332ddffa7ffe13488af872f50c2a6a06aab7ca19c0",
          "blockNumber": "0x7dbdada",
          "transactionHash": "0x408942aa70036fcfa5b52957c2deb2eca2ab84cb9f6f6c90c92e8c17a31147f2",
          "transactionIndex": "0x11",
          "logIndex": "0x2f",
          "removed": false
        }
      ],
      "logsBloom": "0x00000000400000000000000000002000000000000000000000000000040000000000000000000000000000000000800000000000000000000000000000080000008000000000000000000000000000000000050040000000000000000000000000000040000000000000000000000000000000000008000000010000000000000000000000000000000000000000000000000000000000000000000000000000000000040400004000000000000004000000000000000000000000000000000000000000000000000200000000020000110000000000000000000000000000000000000000000002200000000000000000008000000000000000000000000000",
      "type": "0x2",
      "transactionHash": "0x408942aa70036fcfa5b52957c2deb2eca2ab84cb9f6f6c90c92e8c17a31147f2",
      "transactionIndex": "0x11",
      "blockHash": "0xb11e0b7fe09515c49aa500332ddffa7ffe13488af872f50c2a6a06aab7ca19c0",
      "blockNumber": "0x7dbdada",
      "gasUsed": "0x402c9",
      "effectiveGasPrice": "0x18904",
      "from": "0xfa28c7fbd5b4752dfebdf498d86677e50c2812fa",
      "to": "0x30b8cf2aa67e1e13a096d8838cc942fbbd52778b",
      "contractAddress": null,
      "l1BaseFeeScalar": "0x146b",
      "l1BlobBaseFee": "0xc2d3d9e8",
      "l1BlobBaseFeeScalar": "0xf79c5",
      "l1Fee": "0xca88a5f618",
      "l1GasPrice": "0x52936192",
      "l1GasUsed": "0xfd8"
    },
    {
      "status": "0x1",
      "cumulativeGasUsed": "0x506e53",
      "logs": [
        {
          "address": "0x30b8cf2aa67e1e13a096d8838cc942fbbd52778b",
          "topics": [
            "0x66753cd2356569ee081232e3be8909b950e0a76c1f8460c3a5e3c2be32b11bed"
          ],
          "data": "0x000000000000000000000000a3212332057c479937ea5efe4c92ece8d3a3100a000000000000000000000000000000000000000000000000000000000000000000000000000000000000000000000000000000000000000000000000000001600000000000000000000000000000000000000000000000000000000000000000000000000000000000000000000000000000000000000000000000000000000000000000000000000000000000000000000000000000000000000000000000000000000000000000000000000000000000000000000000000000000000000000000000000000000000000000000000000000000000000000000000000000000000000000000000000000000000000000000000000000000000000000000000000000000000000000000000000000000000000000000000000000000000000380000000000000000000000000000000000000000000000000000000000000040000000000000000000000000000000000000000000000000000000000000001e4982dd3d3000000000000000000000000420000000000000000000000000000000000000600000000000000000000000000000000000000000000000000000000000000600000000000000000000000000000000000000000000000000000000000000120000000000000000000000000000000000000000000000000000000000000000100000000000000000000000000000000000000000000000000000000000000200000000000000000000000000000000000000000000000000000000000000044095ea7b300000000000000000000000068b3465833fb72a70ecdf485e0e4c7bd8665fc45000000000000000000000000000000000000000000000000000000000000000000000000000000000000000000000000000000000000000000000000000000000000000000000000000000000000000000000000000000000000000100000000000000000000000000000000000000000000000000000000000000200000000000000000000000000000000000000000000000000000000000000044ffffffff000000000000000000000000ffffffffffffffffffffffffffffffffffffffff000000000000000000000000000000000000000000000000000000000000000000000000000000000000000000000000000000000000000000000000000000000000000000000000000000000000000000000000000000000000000000000000000000000000000000000000000000000000000000000041c69dc9192fc15ff848acc3128cd8a10dd607a1ccb0e2fa2a5ae81c18247dc81e6f1c5f8d7ededb8ac60524db4a5c873ae559b0ccdf2d2e2e9ad4a78edeea1f221c0000000000000000000000000000000000000000000000000000000000000000000000000000000000000000000000000000000000000000000000000000600000000000000000000000000000000000000000000000000000000000000006000000000000000000000000fa28c7fbd5b4752dfebdf498d86677e50c2812fa0000000000000000000000000000000000000000000000000000000000000001",
          "blockHash": "0xb11e0b7fe09515c49aa500332ddffa7ffe13488af872f50c2a6a06aab7ca19c0",
          "blockNumber": "0x7dbdada",
          "transactionHash": "0x98ef83bf8e812872a95e4f2ee468e532d839f2485450d3338c9755f28e335f3f",
          "transactionIndex": "0x12",
          "logIndex": "0x30",
          "removed": false
        },
        {
          "address": "0xa3212332057c479937ea5efe4c92ece8d3a3100a",
          "topics": [
            "0x9737a6ed65b2635eeb5c433d89fda29340f82bc8f269f2fbb303f324c81480e1",
            "0x00000000000000000000000030b8cf2aa67e1e13a096d8838cc942fbbd52778b",
            "0x0000000000000000000000004200000000000000000000000000000000000006"
          ],
          "data": "0x00000000000000000000000000000000000000000000000000000000000000400000000000000000000000000000000000000000000000000000000000000100000000000000000000000000000000000000000000000000000000000000000100000000000000000000000000000000000000000000000000000000000000200000000000000000000000000000000000000000000000000000000000000044095ea7b300000000000000000000000068b3465833fb72a70ecdf485e0e4c7bd8665fc45000000000000000000000000000000000000000000000000000000000000000000000000000000000000000000000000000000000000000000000000000000000000000000000000000000000000000000000000000000000000000100000000000000000000000000000000000000000000000000000000000000200000000000000000000000000000000000000000000000000000000000000044ffffffff000000000000000000000000ffffffffffffffffffffffffffffffffffffffff000000000000000000000000000000000000000000000000000000000000000000000000000000000000000000000000000000000000000000000000",
          "blockHash": "0xb11e0b7fe09515c49aa500332ddffa7ffe13488af872f50c2a6a06aab7ca19c0",
          "blockNumber": "0x7dbdada",
          "transactionHash": "0x98ef83bf8e812872a95e4f2ee468e532d839f2485450d3338c9755f28e335f3f",
          "transactionIndex": "0x12",
          "logIndex": "0x31",
          "removed": false
        },
        {
          "address": "0x30b8cf2aa67e1e13a096d8838cc942fbbd52778b",
          "topics": [
            "0x442e715f626346e8c54381002da614f62bee8d27386535b2521ec8540898556e",
            "0xdfb9a97aee7d354d8343ac7ff69474b0aeae0d2de7c8edf4dcc2fd9dc72c4e85"
          ],
          "data": "0x0000000000000000000000000000000000000000000000000000000000000000",
          "blockHash": "0xb11e0b7fe09515c49aa500332ddffa7ffe13488af872f50c2a6a06aab7ca19c0",
          "blockNumber": "0x7dbdada",
          "transactionHash": "0x98ef83bf8e812872a95e4f2ee468e532d839f2485450d3338c9755f28e335f3f",
          "transactionIndex": "0x12",
          "logIndex": "0x32",
          "removed": false
        }
      ],
      "logsBloom": "0x00000000400000000000000000002000000000000000000000000000040000000000000000000000000000000000000000000000000000000020000000080000000000000000000000000000000000000000050000000000000000000000000000000040000000000000000000000000000010000008000000000000000000000000000000000000000000000000000000000000000000000000000400000000000000000400004000000000000004040000000000000000000000000000000000000000000004000000000000020000110000000000000000000000000020000000000000000002200000000000000000008000000000000000000000000000",
      "type": "0x2",
      "transactionHash": "0x98ef83bf8e812872a95e4f2ee468e532d839f2485450d3338c9755f28e335f3f",
      "transactionIndex": "0x12",
      "blockHash": "0xb11e0b7fe09515c49aa500332ddffa7ffe13488af872f50c2a6a06aab7ca19c0",
      "blockNumber": "0x7dbdada",
      "gasUsed": "0x401fd",
      "effectiveGasPrice": "0x18904",
      "from": "0xfa28c7fbd5b4752dfebdf498d86677e50c2812fa",
      "to": "0x30b8cf2aa67e1e13a096d8838cc942fbbd52778b",
      "contractAddress": null,
      "l1BaseFeeScalar": "0x146b",
      "l1BlobBaseFee": "0xc2d3d9e8",
      "l1BlobBaseFeeScalar": "0xf79c5",
      "l1Fee": "0xc082a6e46e",
      "l1GasPrice": "0x52936192",
      "l1GasUsed": "0xf0f"
    },
    {
      "status": "0x1",
      "cumulativeGasUsed": "0x567c37",
      "logs": [
        {
          "address": "0x30b8cf2aa67e1e13a096d8838cc942fbbd52778b",
          "topics": [
            "0x66753cd2356569ee081232e3be8909b950e0a76c1f8460c3a5e3c2be32b11bed"
          ],
          "data": "0x000000000000000000000000a3212332057c479937ea5efe4c92ece8d3a3100a0000000000000000000000000000000000000000000000000000000000000000000000000000000000000000000000000000000000000000000000000000016000000000000000000000000000000000000000000000000000000000000000000000000000000000000000000000000000000000000000000000000000000000000000000000000000000000000000000000000000000000000000000000000000000000000000000000000000000000000000000000000000000000000000000000000000000000000000000000000000000000000000000000000000000000000000000000000000000000000000000000000000000000000000000000000000000000000000000000000000000000000000000000000000000000000005c000000000000000000000000000000000000000000000000000000000000006400000000000000000000000000000000000000000000000000000000000000424982dd3d300000000000000000000000068b3465833fb72a70ecdf485e0e4c7bd8665fc450000000000000000000000000000000000000000000000000000000000000060000000000000000000000000000000000000000000000000000000000000024000000000000000000000000000000000000000000000000000000000000000030000000000000000000000000000000000000000000000000000000000000060000000000000000000000000000000000000000000000000000000000000018000000000000000000000000000000000000000000000000000000000000001a000000000000000000000000000000000000000000000000000000000000000e404e45aaf0000000000000000000000000b2c639c533813f4aa9d7837caf62653d097ff850000000000000000000000000000000000000000000000000000000000000000000000000000000000000000000000000000000000000000000000000000000000000000000000000000000030b8cf2aa67e1e13a096d8838cc942fbbd52778b000000000000000000000000000000000000000000000000000000000000000000000000000000000000000000000000000000000000000000000000000000000000000000000000000000000000000000000000000000000000000000000000000000000000000000000000000000000000000000000000000000000000000000000000000000000000000000000000000000000000000000000000000000000000000000000000000000000000000000000000000000000000000000000000000000000000000000000000000000000000000000000000000000030000000000000000000000000000000000000000000000000000000000000060000000000000000000000000000000000000000000000000000000000000018000000000000000000000000000000000000000000000000000000000000001a000000000000000000000000000000000000000000000000000000000000000e4ffffffff000000000000000000000000ffffffffffffffffffffffffffffffffffffffff00000000000000000000000000000000000000000000000000000000000000000000000000000000000000000000000000000000000000000000000000000000000000000000000000000000ffffffffffffffffffffffffffffffffffffffff0000000000000000000000000000000000000000000000000000000000000000000000000000000000000000000000000000000000000000000000000000000000000000000000000000000000000000000000000000000000000000000000000000000000000000000000000000000000000000000000000000000000000000000000000000000000000000000000000000000000000000000000000000000000000000000000000000000000000000000000000000000000000000000000000000000000000000000000000000000000000000000000000000000000000000000000000000000000000000000000000000000000000041162ced1887e97ed876add0d39c293e74636041342b2066f34a0eee15993a7d5749f84a2aff8bc36ca9461e848f4e684b6fc817692b339a1f578bbcb49a83ed041b0000000000000000000000000000000000000000000000000000000000000000000000000000000000000000000000000000000000000000000000000000600000000000000000000000000000000000000000000000000000000000000007000000000000000000000000fa28c7fbd5b4752dfebdf498d86677e50c2812fa0000000000000000000000000000000000000000000000000000000000000001",
          "blockHash": "0xb11e0b7fe09515c49aa500332ddffa7ffe13488af872f50c2a6a06aab7ca19c0",
          "blockNumber": "0x7dbdada",
          "transactionHash": "0xa4037946a3b577c868388cdad75630ced1a725df535e7bf452d5cc8350ec5e17",
          "transactionIndex": "0x13",
          "logIndex": "0x33",
          "removed": false
        },
        {
          "address": "0xa3212332057c479937ea5efe4c92ece8d3a3100a",
          "topics": [
            "0x9737a6ed65b2635eeb5c433d89fda29340f82bc8f269f2fbb303f324c81480e1",
            "0x00000000000000000000000030b8cf2aa67e1e13a096d8838cc942fbbd52778b",
            "0x00000000000000000000000068b3465833fb72a70ecdf485e0e4c7bd8665fc45"
          ],
          "data": "0x0000000000000000000000000000000000000000000000000000000000000040000000000000000000000000000000000000000000000000000000000000022000000000000000000000000000000000000000000000000000000000000000030000000000000000000000000000000000000000000000000000000000000060000000000000000000000000000000000000000000000000000000000000018000000000000000000000000000000000000000000000000000000000000001a000000000000000000000000000000000000000000000000000000000000000e404e45aaf0000000000000000000000000b2c639c533813f4aa9d7837caf62653d097ff850000000000000000000000000000000000000000000000000000000000000000000000000000000000000000000000000000000000000000000000000000000000000000000000000000000030b8cf2aa67e1e13a096d8838cc942fbbd52778b000000000000000000000000000000000000000000000000000000000000000000000000000000000000000000000000000000000000000000000000000000000000000000000000000000000000000000000000000000000000000000000000000000000000000000000000000000000000000000000000000000000000000000000000000000000000000000000000000000000000000000000000000000000000000000000000000000000000000000000000000000000000000000000000000000000000000000000000000000000000000000000000000000030000000000000000000000000000000000000000000000000000000000000060000000000000000000000000000000000000000000000000000000000000018000000000000000000000000000000000000000000000000000000000000001a000000000000000000000000000000000000000000000000000000000000000e4ffffffff000000000000000000000000ffffffffffffffffffffffffffffffffffffffff00000000000000000000000000000000000000000000000000000000000000000000000000000000000000000000000000000000000000000000000000000000000000000000000000000000ffffffffffffffffffffffffffffffffffffffff0000000000000000000000000000000000000000000000000000000000000000000000000000000000000000000000000000000000000000000000000000000000000000000000000000000000000000000000000000000000000000000000000000000000000000000000000000000000000000000000000000000000000000000000000000000000000000000000000000000000000000000000000000000000000000000000000000000000000000000000000000000000000000",
          "blockHash": "0xb11e0b7fe09515c49aa500332ddffa7ffe13488af872f50c2a6a06aab7ca19c0",
          "blockNumber": "0x7dbdada",
          "transactionHash": "0xa4037946a3b577c868388cdad75630ced1a725df535e7bf452d5cc8350ec5e17",
          "transactionIndex": "0x13",
          "logIndex": "0x34",
          "removed": false
        },
        {
          "address": "0x30b8cf2aa67e1e13a096d8838cc942fbbd52778b",
          "topics": [
            "0x442e715f626346e8c54381002da614f62bee8d27386535b2521ec8540898556e",
            "0xe3ab6cc97e3f1a5a753ab55555c9222f7af9fde69a8cd0d4968bdd4a1295bdfb"
          ],
          "data": "0x0000000000000000000000000000000000000000000000000000000000000000",
          "blockHash": "0xb11e0b7fe09515c49aa500332ddffa7ffe13488af872f50c2a6a06aab7ca19c0",
          "blockNumber": "0x7dbdada",
          "transactionHash": "0xa4037946a3b577c868388cdad75630ced1a725df535e7bf452d5cc8350ec5e17",
          "transactionIndex": "0x13",
          "logIndex": "0x35",
          "removed": false
        }
      ],
      "logsBloom": "0x00000000400000000000000000002000000000000000000000000000040000000000000000000000000000000040000000000000000000000000000000080000000000000000000000000000000000000000050000000000000000000000000000000040000000000000000000000000000000000008000000000000000000000004000000000000000800000000000000000000000000000000000000000000000000000400004000000000000004000000000000000000008000000000000000000000000000000000000000020000110000000000000000000100000000000000000000000002200000000000080000008000000000000000000000000000",
      "type": "0x2",
      "transactionHash": "0xa4037946a3b577c868388cdad75630ced1a725df535e7bf452d5cc8350ec5e17",
      "transactionIndex": "0x13",
      "blockHash": "0xb11e0b7fe09515c49aa500332ddffa7ffe13488af872f50c2a6a06aab7ca19c0",
      "blockNumber": "0x7dbdada",
      "gasUsed": "0x60de4",
      "effectiveGasPrice": "0x18904",
      "from": "0xfa28c7fbd5b4752dfebdf498d86677e50c2812fa",
      "to": "0x30b8cf2aa67e1e13a096d8838cc942fbbd52778b",
      "contractAddress": null,
      "l1BaseFeeScalar": "0x146b",
      "l1BlobBaseFee": "0xc2d3d9e8",
      "l1BlobBaseFeeScalar": "0xf79c5",
      "l1Fee": "0xe4983d2407",
      "l1GasPrice": "0x52936192",
      "l1GasUsed": "0x11e2"
    },
    {
      "status": "0x1",
      "cumulativeGasUsed": "0x5c2e1b",
      "logs": [
        {
          "address": "0x30b8cf2aa67e1e13a096d8838cc942fbbd52778b",
          "topics": [
            "0x66753cd2356569ee081232e3be8909b950e0a76c1f8460c3a5e3c2be32b11bed"
          ],
          "data": "0x000000000000000000000000a3212332057c479937ea5efe4c92ece8d3a3100a0000000000000000000000000000000000000000000000000000000000000000000000000000000000000000000000000000000000000000000000000000016000000000000000000000000000000000000000000000000000000000000000000000000000000000000000000000000000000000000000000000000000000000000000000000000000000000000000000000000000000000000000000000000000000000000000000000000000000000000000000000000000000000000000000000000000000000000000000000000000000000000000000000000000000000000000000000000000000000000000000000000000000000000000000000000000000000000000000000000000000000000000000000000000000000000005c000000000000000000000000000000000000000000000000000000000000006400000000000000000000000000000000000000000000000000000000000000424982dd3d300000000000000000000000068b3465833fb72a70ecdf485e0e4c7bd8665fc450000000000000000000000000000000000000000000000000000000000000060000000000000000000000000000000000000000000000000000000000000024000000000000000000000000000000000000000000000000000000000000000030000000000000000000000000000000000000000000000000000000000000060000000000000000000000000000000000000000000000000000000000000008000000000000000000000000000000000000000000000000000000000000001a0000000000000000000000000000000000000000000000000000000000000000000000000000000000000000000000000000000000000000000000000000000e404e45aaf00000000000000000000000094b008aa00579c1307b0ef2c499ad98a8ce58e580000000000000000000000000000000000000000000000000000000000000000000000000000000000000000000000000000000000000000000000000000000000000000000000000000000030b8cf2aa67e1e13a096d8838cc942fbbd52778b00000000000000000000000000000000000000000000000000000000000000000000000000000000000000000000000000000000000000000000000000000000000000000000000000000000000000000000000000000000000000000000000000000000000000000000000000000000000000000000000000000000000000000000000000000000000000000000000000000000000000000000000000000000000000000000000000000000000000000000000000000000000000030000000000000000000000000000000000000000000000000000000000000060000000000000000000000000000000000000000000000000000000000000008000000000000000000000000000000000000000000000000000000000000001a0000000000000000000000000000000000000000000000000000000000000000000000000000000000000000000000000000000000000000000000000000000e4ffffffff000000000000000000000000ffffffffffffffffffffffffffffffffffffffff00000000000000000000000000000000000000000000000000000000000000000000000000000000000000000000000000000000000000000000000000000000000000000000000000000000ffffffffffffffffffffffffffffffffffffffff0000000000000000000000000000000000000000000000000000000000000000000000000000000000000000000000000000000000000000000000000000000000000000000000000000000000000000000000000000000000000000000000000000000000000000000000000000000000000000000000000000000000000000000000000000000000000000000000000000000000000000000000000000000000000000000000000000000000000000000000000000000000000000000000000000000000000000000000000000000000000000000000417db8cd847112a82ac8ce17c942af1ec44a1e8e06ba2d2dda72959e5f5a7338c03bce6d7606c389705e0eeb74743b66ac149dd6d95fe6da973dd3823e3d51cfbd1b0000000000000000000000000000000000000000000000000000000000000000000000000000000000000000000000000000000000000000000000000000600000000000000000000000000000000000000000000000000000000000000008000000000000000000000000fa28c7fbd5b4752dfebdf498d86677e50c2812fa0000000000000000000000000000000000000000000000000000000000000001",
          "blockHash": "0xb11e0b7fe09515c49aa500332ddffa7ffe13488af872f50c2a6a06aab7ca19c0",
          "blockNumber": "0x7dbdada",
          "transactionHash": "0x493eded82c1318e334721260fc886c336d120a48b55e32914532bbed9ed4500e",
          "transactionIndex": "0x14",
          "logIndex": "0x36",
          "removed": false
        },
        {
          "address": "0xa3212332057c479937ea5efe4c92ece8d3a3100a",
          "topics": [
            "0x9737a6ed65b2635eeb5c433d89fda29340f82bc8f269f2fbb303f324c81480e1",
            "0x00000000000000000000000030b8cf2aa67e1e13a096d8838cc942fbbd52778b",
            "0x00000000000000000000000068b3465833fb72a70ecdf485e0e4c7bd8665fc45"
          ],
          "data": "0x0000000000000000000000000000000000000000000000000000000000000040000000000000000000000000000000000000000000000000000000000000022000000000000000000000000000000000000000000000000000000000000000030000000000000000000000000000000000000000000000000000000000000060000000000000000000000000000000000000000000000000000000000000008000000000000000000000000000000000000000000000000000000000000001a0000000000000000000000000000000000000000000000000000000000000000000000000000000000000000000000000000000000000000000000000000000e404e45aaf00000000000000000000000094b008aa00579c1307b0ef2c499ad98a8ce58e580000000000000000000000000000000000000000000000000000000000000000000000000000000000000000000000000000000000000000000000000000000000000000000000000000000030b8cf2aa67e1e13a096d8838cc942fbbd52778b00000000000000000000000000000000000000000000000000000000000000000000000000000000000000000000000000000000000000000000000000000000000000000000000000000000000000000000000000000000000000000000000000000000000000000000000000000000000000000000000000000000000000000000000000000000000000000000000000000000000000000000000000000000000000000000000000000000000000000000000000000000000000030000000000000000000000000000000000000000000000000000000000000060000000000000000000000000000000000000000000000000000000000000008000000000000000000000000000000000000000000000000000000000000001a0000000000000000000000000000000000000000000000000000000000000000000000000000000000000000000000000000000000000000000000000000000e4ffffffff000000000000000000000000ffffffffffffffffffffffffffffffffffffffff00000000000000000000000000000000000000000000000000000000000000000000000000000000000000000000000000000000000000000000000000000000000000000000000000000000ffffffffffffffffffffffffffffffffffffffff000000000000000000000000000000000000000000000000000000000000000000000000000000000000000000000000000000000000000000000000000000000000000000000000000000000000000000000000000000000000000000000000000000000000000000000000000000000000000000000000000000000000000000000000000000000000000000000000000000000000000000000000",
          "blockHash": "0xb11e0b7fe09515c49aa500332ddffa7ffe13488af872f50c2a6a06aab7ca19c0",
          "blockNumber": "0x7dbdada",
          "transactionHash": "0x493eded82c1318e334721260fc886c336d120a48b55e32914532bbed9ed4500e",
          "transactionIndex": "0x14",
          "logIndex": "0x37",
          "removed": false
        },
        {
          "address": "0x30b8cf2aa67e1e13a096d8838cc942fbbd52778b",
          "topics": [
            "0x442e715f626346e8c54381002da614f62bee8d27386535b2521ec8540898556e",
            "0x6c3b04bc8a0f94dc3fdb307a92eb6b1a9d10dca10a9878a47b0312620c5f3a7f"
          ],
          "data": "0x0000000000000000000000000000000000000000000000000000000000000000",
          "blockHash": "0xb11e0b7fe09515c49aa500332ddffa7ffe13488af872f50c2a6a06aab7ca19c0",
          "blockNumber": "0x7dbdada",
          "transactionHash": "0x493eded82c1318e334721260fc886c336d120a48b55e32914532bbed9ed4500e",
          "transactionIndex": "0x14",
          "logIndex": "0x38",
          "removed": false
        }
      ],
      "logsBloom": "0x00000000400000000000000000002000000000000000000000000000040000800000000000000000000000000000000000000000000000042000000000080000000000000000000000000000000000000000050000000000000000000000000000000040000000000000000000000000000000000008000000000000000000000000000000000000000800000000000000000000000000000000000000000000000000000400004000000000000004000000000000000000000000000000000000000000000000000000000000020000110000000000000000000100000000000000000000000002200000000000080000008000000000000000000000000000",
      "type": "0x2",
      "transactionHash": "0x493eded82c1318e334721260fc886c336d120a48b55e32914532bbed9ed4500e",
      "transactionIndex": "0x14",
      "blockHash": "0xb11e0b7fe09515c49aa500332ddffa7ffe13488af872f50c2a6a06aab7ca19c0",
      "blockNumber": "0x7dbdada",
      "gasUsed": "0x5b1e4",
      "effectiveGasPrice": "0x18904",
      "from": "0xfa28c7fbd5b4752dfebdf498d86677e50c2812fa",
      "to": "0x30b8cf2aa67e1e13a096d8838cc942fbbd52778b",
      "contractAddress": null,
      "l1BaseFeeScalar": "0x146b",
      "l1BlobBaseFee": "0xc2d3d9e8",
      "l1BlobBaseFeeScalar": "0xf79c5",
      "l1Fee": "0xe3ed2c22da",
      "l1GasPrice": "0x52936192",
      "l1GasUsed": "0x11d5"
    },
    {
      "status": "0x1",
      "cumulativeGasUsed": "0x61df1b",
      "logs": [
        {
          "address": "0x30b8cf2aa67e1e13a096d8838cc942fbbd52778b",
          "topics": [
            "0x66753cd2356569ee081232e3be8909b950e0a76c1f8460c3a5e3c2be32b11bed"
          ],
          "data": "0x000000000000000000000000a3212332057c479937ea5efe4c92ece8d3a3100a0000000000000000000000000000000000000000000000000000000000000000000000000000000000000000000000000000000000000000000000000000016000000000000000000000000000000000000000000000000000000000000000000000000000000000000000000000000000000000000000000000000000000000000000000000000000000000000000000000000000000000000000000000000000000000000000000000000000000000000000000000000000000000000000000000000000000000000000000000000000000000000000000000000000000000000000000000000000000000000000000000000000000000000000000000000000000000000000000000000000000000000000000000000000000000000005c000000000000000000000000000000000000000000000000000000000000006400000000000000000000000000000000000000000000000000000000000000424982dd3d300000000000000000000000068b3465833fb72a70ecdf485e0e4c7bd8665fc450000000000000000000000000000000000000000000000000000000000000060000000000000000000000000000000000000000000000000000000000000024000000000000000000000000000000000000000000000000000000000000000030000000000000000000000000000000000000000000000000000000000000060000000000000000000000000000000000000000000000000000000000000008000000000000000000000000000000000000000000000000000000000000000a00000000000000000000000000000000000000000000000000000000000000000000000000000000000000000000000000000000000000000000000000000000000000000000000000000000000000000000000000000000000000000000000e404e45aaf00000000000000000000000042000000000000000000000000000000000000060000000000000000000000000000000000000000000000000000000000000000000000000000000000000000000000000000000000000000000000000000000000000000000000000000000030b8cf2aa67e1e13a096d8838cc942fbbd52778b0000000000000000000000000000000000000000000000000000000000000000000000000000000000000000000000000000000000000000000000000000000000000000000000000000000000000000000000000000000000000000000000000000000000000000000000000000000000000000000000000000000000000000000000000000000000000000000000000000000000000000000000030000000000000000000000000000000000000000000000000000000000000060000000000000000000000000000000000000000000000000000000000000008000000000000000000000000000000000000000000000000000000000000000a00000000000000000000000000000000000000000000000000000000000000000000000000000000000000000000000000000000000000000000000000000000000000000000000000000000000000000000000000000000000000000000000e4ffffffff000000000000000000000000ffffffffffffffffffffffffffffffffffffffff00000000000000000000000000000000000000000000000000000000000000000000000000000000000000000000000000000000000000000000000000000000000000000000000000000000ffffffffffffffffffffffffffffffffffffffff00000000000000000000000000000000000000000000000000000000000000000000000000000000000000000000000000000000000000000000000000000000000000000000000000000000000000000000000000000000000000000000000000000000000000000000000000000000000000000000000000000000000000000000000000000000000000000000000000000000000000000000000000000000000000000000000000000000000000000000000000000041ca6b45e7622512cfff34792d6057d5d019aa98e5259c88f518d1db312bbe3c2a41108ff01bb5ccbbba208ac5245ecad2c6a182a135ae6329caa2d52b3861e83c1c0000000000000000000000000000000000000000000000000000000000000000000000000000000000000000000000000000000000000000000000000000600000000000000000000000000000000000000000000000000000000000000009000000000000000000000000fa28c7fbd5b4752dfebdf498d86677e50c2812fa0000000000000000000000000000000000000000000000000000000000000001",
          "blockHash": "0xb11e0b7fe09515c49aa500332ddffa7ffe13488af872f50c2a6a06aab7ca19c0",
          "blockNumber": "0x7dbdada",
          "transactionHash": "0x641b131552b8f739c9a3580e23d5d732e877c73d6f6b86dfe5b264aae203468d",
          "transactionIndex": "0x15",
          "logIndex": "0x39",
          "removed": false
        },
        {
          "address": "0xa3212332057c479937ea5efe4c92ece8d3a3100a",
          "topics": [
            "0x9737a6ed65b2635eeb5c433d89fda29340f82bc8f269f2fbb303f324c81480e1",
            "0x00000000000000000000000030b8cf2aa67e1e13a096d8838cc942fbbd52778b",
            "0x00000000000000000000000068b3465833fb72a70ecdf485e0e4c7bd8665fc45"
          ],
          "data": "0x0000000000000000000000000000000000000000000000000000000000000040000000000000000000000000000000000000000000000000000000000000022000000000000000000000000000000000000000000000000000000000000000030000000000000000000000000000000000000000000000000000000000000060000000000000000000000000000000000000000000000000000000000000008000000000000000000000000000000000000000000000000000000000000000a00000000000000000000000000000000000000000000000000000000000000000000000000000000000000000000000000000000000000000000000000000000000000000000000000000000000000000000000000000000000000000000000e404e45aaf00000000000000000000000042000000000000000000000000000000000000060000000000000000000000000000000000000000000000000000000000000000000000000000000000000000000000000000000000000000000000000000000000000000000000000000000030b8cf2aa67e1e13a096d8838cc942fbbd52778b0000000000000000000000000000000000000000000000000000000000000000000000000000000000000000000000000000000000000000000000000000000000000000000000000000000000000000000000000000000000000000000000000000000000000000000000000000000000000000000000000000000000000000000000000000000000000000000000000000000000000000000000030000000000000000000000000000000000000000000000000000000000000060000000000000000000000000000000000000000000000000000000000000008000000000000000000000000000000000000000000000000000000000000000a00000000000000000000000000000000000000000000000000000000000000000000000000000000000000000000000000000000000000000000000000000000000000000000000000000000000000000000000000000000000000000000000e4ffffffff000000000000000000000000ffffffffffffffffffffffffffffffffffffffff00000000000000000000000000000000000000000000000000000000000000000000000000000000000000000000000000000000000000000000000000000000000000000000000000000000ffffffffffffffffffffffffffffffffffffffff00000000000000000000000000000000000000000000000000000000000000000000000000000000000000000000000000000000000000000000000000000000000000000000000000000000000000000000000000000000000000000000000000000000000000000000000000000000000000000000000000000000",
          "blockHash": "0xb11e0b7fe09515c49aa500332ddffa7ffe13488af872f50c2a6a06aab7ca19c0",
          "blockNumber": "0x7dbdada",
          "transactionHash": "0x641b131552b8f739c9a3580e23d5d732e877c73d6f6b86dfe5b264aae203468d",
          "transactionIndex": "0x15",
          "logIndex": "0x3a",
          "removed": false
        },
        {
          "address": "0x30b8cf2aa67e1e13a096d8838cc942fbbd52778b",
          "topics": [
            "0x442e715f626346e8c54381002da614f62bee8d27386535b2521ec8540898556e",
            "0x0065e0b18b004bfe6d08192690decf9e89d08e3e56f5bf7a3bdde9947e24dadd"
          ],
          "data": "0x0000000000000000000000000000000000000000000000000000000000000000",
          "blockHash": "0xb11e0b7fe09515c49aa500332ddffa7ffe13488af872f50c2a6a06aab7ca19c0",
          "blockNumber": "0x7dbdada",
          "transactionHash": "0x641b131552b8f739c9a3580e23d5d732e877c73d6f6b86dfe5b264aae203468d",
          "transactionIndex": "0x15",
          "logIndex": "0x3b",
          "removed": false
        }
      ],
      "logsBloom": "0x00000000400000000000000000002000000000000000000000000000040000000000000000000000000000000000000000000080000000000000000000080000000000000000000000000000002000000000050000000000000000000000000000000040000000000000000000000000000000000008000000000000000000000000000000000000000800000000000000000000000000000000000000000000000000000400004000000000000004000000000000000000000000000000000001000000000000000000000000020000110000000000000000000100000000000000000000000002200000000000080000008000000000000000000000000000",
      "type": "0x2",
      "transactionHash": "0x641b131552b8f739c9a3580e23d5d732e877c73d6f6b86dfe5b264aae203468d",
      "transactionIndex": "0x15",
      "blockHash": "0xb11e0b7fe09515c49aa500332ddffa7ffe13488af872f50c2a6a06aab7ca19c0",
      "blockNumber": "0x7dbdada",
      "gasUsed": "0x5b100",
      "effectiveGasPrice": "0x18904",
      "from": "0xfa28c7fbd5b4752dfebdf498d86677e50c2812fa",
      "to": "0x30b8cf2aa67e1e13a096d8838cc942fbbd52778b",
      "contractAddress": null,
      "l1BaseFeeScalar": "0x146b",
      "l1BlobBaseFee": "0xc2d3d9e8",
      "l1BlobBaseFeeScalar": "0xf79c5",
      "l1Fee": "0xd9e72d112f",
      "l1GasPrice": "0x52936192",
      "l1GasUsed": "0x110c"
    },
    {
      "status": "0x1",
      "cumulativeGasUsed": "0x62c9af",
      "logs": [
        {
          "address": "0x30b8cf2aa67e1e13a096d8838cc942fbbd52778b",
          "topics": [
            "0x66753cd2356569ee081232e3be8909b950e0a76c1f8460c3a5e3c2be32b11bed"
          ],
          "data": "0x00000000000000000000000030b8cf2aa67e1e13a096d8838cc942fbbd52778b0000000000000000000000000000000000000000000000000000000000000000000000000000000000000000000000000000000000000000000000000000016000000000000000000000000000000000000000000000000000000000000000000000000000000000000000000000000000000000000000000000000000000000000000000000000000000000000000000000000000000000000000000000000000000000000000000000000000000000000000000000000000000000000000000000000000000000000000000000000000000000000000000000000000000000000000000000000000000000000000000000000000000000000000000000000000000000000000000000000000000000000000000000000000000000000001c000000000000000000000000000000000000000000000000000000000000002400000000000000000000000000000000000000000000000000000000000000024f08a03230000000000000000000000000000000000000000000000000000000000000000000000000000000000000000000000000000000000000000000000000000000000000000000000000000000000000000000000000000000000000041c63c3f94ed1af4f2690e37d4225710d089eacce630758c9c1106dfaec1aa49fb50223f88e42baa2ab585d602095a1476623adc848038d0742cf9179ed67ea1951b000000000000000000000000000000000000000000000000000000000000000000000000000000000000000000000000000000000000000000000000000060000000000000000000000000000000000000000000000000000000000000000a000000000000000000000000fa28c7fbd5b4752dfebdf498d86677e50c2812fa0000000000000000000000000000000000000000000000000000000000000001",
          "blockHash": "0xb11e0b7fe09515c49aa500332ddffa7ffe13488af872f50c2a6a06aab7ca19c0",
          "blockNumber": "0x7dbdada",
          "transactionHash": "0xf09787d2d4366985565e4f0c0863e74e068544a274ba421cc3dfb7ab21e817eb",
          "transactionIndex": "0x16",
          "logIndex": "0x3c",
          "removed": false
        },
        {
          "address": "0x30b8cf2aa67e1e13a096d8838cc942fbbd52778b",
          "topics": [
            "0x5ac6c46c93c8d0e53714ba3b53db3e7c046da994313d7ed0d192028bc7c228b0",
            "0x0000000000000000000000000000000000000000000000000000000000000000"
          ],
          "data": "0x",
          "blockHash": "0xb11e0b7fe09515c49aa500332ddffa7ffe13488af872f50c2a6a06aab7ca19c0",
          "blockNumber": "0x7dbdada",
          "transactionHash": "0xf09787d2d4366985565e4f0c0863e74e068544a274ba421cc3dfb7ab21e817eb",
          "transactionIndex": "0x16",
          "logIndex": "0x3d",
          "removed": false
        },
        {
          "address": "0x30b8cf2aa67e1e13a096d8838cc942fbbd52778b",
          "topics": [
            "0x442e715f626346e8c54381002da614f62bee8d27386535b2521ec8540898556e",
            "0x96dfbd0a8f7837ca6eb66f754707f9165d13980f064326215c0689261ba490ff"
          ],
          "data": "0x0000000000000000000000000000000000000000000000000000000000000000",
          "blockHash": "0xb11e0b7fe09515c49aa500332ddffa7ffe13488af872f50c2a6a06aab7ca19c0",
          "blockNumber": "0x7dbdada",
          "transactionHash": "0xf09787d2d4366985565e4f0c0863e74e068544a274ba421cc3dfb7ab21e817eb",
          "transactionIndex": "0x16",
          "logIndex": "0x3e",
          "removed": false
        }
      ],
      "logsBloom": "0x00000000402000000000000000000000000000000000000000000000040000000000000000000000000000000000000000000000000000000000000000000000020000000000000000000000000000000000040000000000000000000000020000000000020000000000000000000800000000000008000000000000000000000000000000000000000000000000000000000000000000000000000000000000200000000400000000000000000004000000000000400000000000000000000000000000000000000000000000020000100000000000000000000000000020000000000000000000000000000000000000008000000000000000000000000000",
      "type": "0x2",
      "transactionHash": "0xf09787d2d4366985565e4f0c0863e74e068544a274ba421cc3dfb7ab21e817eb",
      "transactionIndex": "0x16",
      "blockHash": "0xb11e0b7fe09515c49aa500332ddffa7ffe13488af872f50c2a6a06aab7ca19c0",
      "blockNumber": "0x7dbdada",
      "gasUsed": "0xea94",
      "effectiveGasPrice": "0x18904",
      "from": "0xfa28c7fbd5b4752dfebdf498d86677e50c2812fa",
      "to": "0x30b8cf2aa67e1e13a096d8838cc942fbbd52778b",
      "contractAddress": null,
      "l1BaseFeeScalar": "0x146b",
      "l1BlobBaseFee": "0xc2d3d9e8",
      "l1BlobBaseFeeScalar": "0xf79c5",
      "l1Fee": "0x79028b6668",
      "l1GasPrice": "0x52936192",
      "l1GasUsed": "0x977"
    },
    {
      "status": "0x1",
      "cumulativeGasUsed": "0x640fa8",
      "logs": [
        {
          "address": "0x30b8cf2aa67e1e13a096d8838cc942fbbd52778b",
          "topics": [
            "0x66753cd2356569ee081232e3be8909b950e0a76c1f8460c3a5e3c2be32b11bed"
          ],
          "data": "0x00000000000000000000000030b8cf2aa67e1e13a096d8838cc942fbbd52778b0000000000000000000000000000000000000000000000000000000000000000000000000000000000000000000000000000000000000000000000000000016000000000000000000000000000000000000000000000000000000000000000000000000000000000000000000000000000000000000000000000000000000000000000000000000000000000000000000000000000000000000000000000000000000000000000000000000000000000000000000000000000000000000000000000000000000000000000000000000000000000000000000000000000000000000000000000000000000000000000000000000000000000000000000000000000000000000000000000000000000000000000000000000000000000000001c000000000000000000000000000000000000000000000000000000000000002400000000000000000000000000000000000000000000000000000000000000024e19a9dd9000000000000000000000000a3212332057c479937ea5efe4c92ece8d3a3100a000000000000000000000000000000000000000000000000000000000000000000000000000000000000000000000000000000000000000000000041f51751587777f258fe08b622bebefaf5a202748080d2487e27a68c0be858ea6327733c21782f84f227521cfac3b9db45dc752c05205de23e747f7b1d211117861c000000000000000000000000000000000000000000000000000000000000000000000000000000000000000000000000000000000000000000000000000060000000000000000000000000000000000000000000000000000000000000000b000000000000000000000000fa28c7fbd5b4752dfebdf498d86677e50c2812fa0000000000000000000000000000000000000000000000000000000000000001",
          "blockHash": "0xb11e0b7fe09515c49aa500332ddffa7ffe13488af872f50c2a6a06aab7ca19c0",
          "blockNumber": "0x7dbdada",
          "transactionHash": "0xdfead254b7f1a3f4955b9b1049218b923c7d193766bbcd65a360e0dd5d1ced6c",
          "transactionIndex": "0x17",
          "logIndex": "0x3f",
          "removed": false
        },
        {
          "address": "0x30b8cf2aa67e1e13a096d8838cc942fbbd52778b",
          "topics": [
            "0x1151116914515bc0891ff9047a6cb32cf902546f83066499bcf8ba33d2353fa2",
            "0x000000000000000000000000a3212332057c479937ea5efe4c92ece8d3a3100a"
          ],
          "data": "0x",
          "blockHash": "0xb11e0b7fe09515c49aa500332ddffa7ffe13488af872f50c2a6a06aab7ca19c0",
          "blockNumber": "0x7dbdada",
          "transactionHash": "0xdfead254b7f1a3f4955b9b1049218b923c7d193766bbcd65a360e0dd5d1ced6c",
          "transactionIndex": "0x17",
          "logIndex": "0x40",
          "removed": false
        },
        {
          "address": "0x30b8cf2aa67e1e13a096d8838cc942fbbd52778b",
          "topics": [
            "0x442e715f626346e8c54381002da614f62bee8d27386535b2521ec8540898556e",
            "0xcfc2400b8724e7cecace402051ca6d133d8ce6dfb9d1104ebddedd4180201590"
          ],
          "data": "0x0000000000000000000000000000000000000000000000000000000000000000",
          "blockHash": "0xb11e0b7fe09515c49aa500332ddffa7ffe13488af872f50c2a6a06aab7ca19c0",
          "blockNumber": "0x7dbdada",
          "transactionHash": "0xdfead254b7f1a3f4955b9b1049218b923c7d193766bbcd65a360e0dd5d1ced6c",
          "transactionIndex": "0x17",
          "logIndex": "0x41",
          "removed": false
        }
      ],
      "logsBloom": "0x00000000400000000000000000000000000000000000000000008000040000000004000000000000000000000000000000000000000000000000000000000000000000000020000000000000000000000000040000000000000000000000000000000000000000000000000000000000200000000008000000000000000000000000000002000000000000000000000000000000000000000000000000002000000000000400800000000000000004000000000000000000000000000000000000000000000000000000000000020000100000000000000000000000000000000000000000000000002001000000000000008000000000000000000000000000",
      "type": "0x2",
      "transactionHash": "0xdfead254b7f1a3f4955b9b1049218b923c7d193766bbcd65a360e0dd5d1ced6c",
      "transactionIndex": "0x17",
      "blockHash": "0xb11e0b7fe09515c49aa500332ddffa7ffe13488af872f50c2a6a06aab7ca19c0",
      "blockNumber": "0x7dbdada",
      "gasUsed": "0x145f9",
      "effectiveGasPrice": "0x18904",
      "from": "0xfa28c7fbd5b4752dfebdf498d86677e50c2812fa",
      "to": "0x30b8cf2aa67e1e13a096d8838cc942fbbd52778b",
      "contractAddress": null,
      "l1BaseFeeScalar": "0x146b",
      "l1BlobBaseFee": "0xc2d3d9e8",
      "l1BlobBaseFeeScalar": "0xf79c5",
      "l1Fee": "0x890c2382ac",
      "l1GasPrice": "0x52936192",
      "l1GasUsed": "0xab8"
    },
    {
      "status": "0x1",
      "cumulativeGasUsed": "0x65daa0",
      "logs": [
        {
          "address": "0x30b8cf2aa67e1e13a096d8838cc942fbbd52778b",
          "topics": [
            "0x66753cd2356569ee081232e3be8909b950e0a76c1f8460c3a5e3c2be32b11bed"
          ],
          "data": "0x000000000000000000000000a3212332057c479937ea5efe4c92ece8d3a3100a0000000000000000000000000000000000000000000000000000000000000000000000000000000000000000000000000000000000000000000000000000016000000000000000000000000000000000000000000000000000000000000000000000000000000000000000000000000000000000000000000000000000000000000000000000000000000000000000000000000000000000000000000000000000000000000000000000000000000000000000000000000000000000000000000000000000000000000000000000000000000000000000000000000000000000000000000000000000000000000000000000000000000000000000000000000000000000000000000000000000000000000000000000000000000000000001c0000000000000000000000000000000000000000000000000000000000000024000000000000000000000000000000000000000000000000000000000000000244313b9e50000000000000000000000000000000000000000000000000000000000000001000000000000000000000000000000000000000000000000000000000000000000000000000000000000000000000000000000000000000000000041dc032e293da0e8be417aedd6d621357a433fdfa6c84fffd6b7e63adda4f4645f7b7963075d5a00b128ec62911d1da41b5feaee059cdae1460568baaf0d28ac4d1c000000000000000000000000000000000000000000000000000000000000000000000000000000000000000000000000000000000000000000000000000060000000000000000000000000000000000000000000000000000000000000000c000000000000000000000000fa28c7fbd5b4752dfebdf498d86677e50c2812fa0000000000000000000000000000000000000000000000000000000000000001",
          "blockHash": "0xb11e0b7fe09515c49aa500332ddffa7ffe13488af872f50c2a6a06aab7ca19c0",
          "blockNumber": "0x7dbdada",
          "transactionHash": "0xccf526dec9a5401b1691174bb07c4da67f6f535d84515ec957a2061c3bf59199",
          "transactionIndex": "0x18",
          "logIndex": "0x42",
          "removed": false
        },
        {
          "address": "0xa3212332057c479937ea5efe4c92ece8d3a3100a",
          "topics": [
            "0x14bcd9461bf423d53fe144e9bbbeb02de84c405ec737944cd40b83093ad373d7",
            "0x00000000000000000000000030b8cf2aa67e1e13a096d8838cc942fbbd52778b",
            "0x0000000000000000000000000000000000000000000000000000000000000000",
            "0x0000000000000000000000000000000000000000000000000000000000000001"
          ],
          "data": "0x",
          "blockHash": "0xb11e0b7fe09515c49aa500332ddffa7ffe13488af872f50c2a6a06aab7ca19c0",
          "blockNumber": "0x7dbdada",
          "transactionHash": "0xccf526dec9a5401b1691174bb07c4da67f6f535d84515ec957a2061c3bf59199",
          "transactionIndex": "0x18",
          "logIndex": "0x43",
          "removed": false
        },
        {
          "address": "0x30b8cf2aa67e1e13a096d8838cc942fbbd52778b",
          "topics": [
            "0x442e715f626346e8c54381002da614f62bee8d27386535b2521ec8540898556e",
            "0x7cc544deed02f9549e58ce01e51ed625fc0f04f9c86ae89ff653db4594af7f35"
          ],
          "data": "0x0000000000000000000000000000000000000000000000000000000000000000",
          "blockHash": "0xb11e0b7fe09515c49aa500332ddffa7ffe13488af872f50c2a6a06aab7ca19c0",
          "blockNumber": "0x7dbdada",
          "transactionHash": "0xccf526dec9a5401b1691174bb07c4da67f6f535d84515ec957a2061c3bf59199",
          "transactionIndex": "0x18",
          "logIndex": "0x44",
          "removed": false
        }
      ],
      "logsBloom": "0x000000004000000000000000000000000000000000000000000000000400000000000000000000000000000000000000000000000000000000000000000c0000000000000000000000000000000000000000050000040000000000000000000000000040020000000000000000000800000024000008000000000000000000000000000000000000000000000000000000000000000000000000080000000000000000000400004000000000000004000000000000000000000000000000000000000000080000000040000000020000110000000000000000000000000060000000000000000000000000000000000000008000000000000008000000000000",
      "type": "0x2",
      "transactionHash": "0xccf526dec9a5401b1691174bb07c4da67f6f535d84515ec957a2061c3bf59199",
      "transactionIndex": "0x18",
      "blockHash": "0xb11e0b7fe09515c49aa500332ddffa7ffe13488af872f50c2a6a06aab7ca19c0",
      "blockNumber": "0x7dbdada",
      "gasUsed": "0x1caf8",
      "effectiveGasPrice": "0x18904",
      "from": "0xfa28c7fbd5b4752dfebdf498d86677e50c2812fa",
      "to": "0x30b8cf2aa67e1e13a096d8838cc942fbbd52778b",
      "contractAddress": null,
      "l1BaseFeeScalar": "0x146b",
      "l1BlobBaseFee": "0xc2d3d9e8",
      "l1BlobBaseFeeScalar": "0xf79c5",
      "l1Fee": "0x89b73483da",
      "l1GasPrice": "0x52936192",
      "l1GasUsed": "0xac6"
    }
  ],
  "libraries": [],
  "pending": [],
  "returns": {},
  "timestamp": 1739296622,
  "chain": 10,
  "commit": "71ed1ba"
}