{
  "transactions": [
    {
      "hash": "0x7f61c618c5b643991844f028db237e2afee82dd40129751cd7270e963f521095",
      "transactionType": "CALL",
      "contractName": null,
      "contractAddress": "0x30b8cf2aa67e1e13a096d8838cc942fbbd52778b",
      "function": "execTransaction(address,uint256,bytes,uint8,uint256,uint256,uint256,address,address,bytes)",
      "arguments": [
        "0x457f785000cA495FAe63AAb38C9fC4b2965B106a",
        "0",
        "0x982dd3d300000000000000000000000065767ab18a2854895d5287ac689a18b54a17dfb1000000000000000000000000000000000000000000000000000000000000006000000000000000000000000000000000000000000000000000000000000002000000000000000000000000000000000000000000000000000000000000000002000000000000000000000000000000000000000000000000000000000000004000000000000000000000000000000000000000000000000000000000000000e000000000000000000000000000000000000000000000000000000000000000640cf8542f0000000000000000000000000000000000000000000000000000000000000000000000000000000000000000000000000000000000000000000000000000000000000000000000000000000030b8cf2aa67e1e13a096d8838cc942fbbd52778b0000000000000000000000000000000000000000000000000000000000000000000000000000000000000000000000000000000000000000000000642b4c9a200000000000000000000000000000000000000000000000000000000000000000000000000000000000000000000000000000000000000000000000000000000000000000000000000000000030b8cf2aa67e1e13a096d8838cc942fbbd52778b000000000000000000000000000000000000000000000000000000000000000000000000000000000000000000000000000000000000000000000002000000000000000000000000000000000000000000000000000000000000004000000000000000000000000000000000000000000000000000000000000000e00000000000000000000000000000000000000000000000000000000000000064ffffffff00000000000000000000000000000000000000000000000000000000000000000000000000000000000000000000000000000000000000000000000000000000000000000000000000000000ffffffffffffffffffffffffffffffffffffffff000000000000000000000000000000000000000000000000000000000000000000000000000000000000000000000000000000000000000000000064ffffffff00000000000000000000000000000000000000000000000000000000000000000000000000000000000000000000000000000000000000000000000000000000000000000000000000000000ffffffffffffffffffffffffffffffffffffffff00000000000000000000000000000000000000000000000000000000",
        "0",
        "0",
        "0",
        "0",
        "0x0000000000000000000000000000000000000000",
        "0x0000000000000000000000000000000000000000",
        "0x4df2d9e4995344d924cc59f8e6c681c7fe6b70d3612b80bef8bd6b05a2117c2359247a6f02c95358e220151b45140339524db28b11b12b7dec2367c029ae81201bf71d5ccf908769232dca2103d316370dbe87111cb1a01dc573725c23a585934162bb4ec7ff12e8be9aa13c63decd8c3d7df61b122caa809d85e4d8719c5d41fe1c"
      ],
      "transaction": {
        "from": "0xc5894b63e6511f3d3f466ca83f4cfe42c3425ac8",
        "to": "0x30b8cf2aa67e1e13a096d8838cc942fbbd52778b",
        "gas": "0x3b81c",
        "value": "0x0",
        "input": "0x6a761202000000000000000000000000457f785000ca495fae63aab38c9fc4b2965b106a00000000000000000000000000000000000000000000000000000000000000000000000000000000000000000000000000000000000000000000000000000140000000000000000000000000000000000000000000000000000000000000000000000000000000000000000000000000000000000000000000000000000000000000000000000000000000000000000000000000000000000000000000000000000000000000000000000000000000000000000000000000000000000000000000000000000000000000000000000000000000000000000000000000000000000000000000000000000000000000000000000000000000000000000000000000000000000000000000000000000000000000000000000000000000000000052000000000000000000000000000000000000000000000000000000000000003a4982dd3d300000000000000000000000065767ab18a2854895d5287ac689a18b54a17dfb1000000000000000000000000000000000000000000000000000000000000006000000000000000000000000000000000000000000000000000000000000002000000000000000000000000000000000000000000000000000000000000000002000000000000000000000000000000000000000000000000000000000000004000000000000000000000000000000000000000000000000000000000000000e000000000000000000000000000000000000000000000000000000000000000640cf8542f0000000000000000000000000000000000000000000000000000000000000000000000000000000000000000000000000000000000000000000000000000000000000000000000000000000030b8cf2aa67e1e13a096d8838cc942fbbd52778b0000000000000000000000000000000000000000000000000000000000000000000000000000000000000000000000000000000000000000000000642b4c9a200000000000000000000000000000000000000000000000000000000000000000000000000000000000000000000000000000000000000000000000000000000000000000000000000000000030b8cf2aa67e1e13a096d8838cc942fbbd52778b000000000000000000000000000000000000000000000000000000000000000000000000000000000000000000000000000000000000000000000002000000000000000000000000000000000000000000000000000000000000004000000000000000000000000000000000000000000000000000000000000000e00000000000000000000000000000000000000000000000000000000000000064ffffffff00000000000000000000000000000000000000000000000000000000000000000000000000000000000000000000000000000000000000000000000000000000000000000000000000000000ffffffffffffffffffffffffffffffffffffffff000000000000000000000000000000000000000000000000000000000000000000000000000000000000000000000000000000000000000000000064ffffffff00000000000000000000000000000000000000000000000000000000000000000000000000000000000000000000000000000000000000000000000000000000000000000000000000000000ffffffffffffffffffffffffffffffffffffffff000000000000000000000000000000000000000000000000000000000000000000000000000000000000000000000000000000000000000000000000000000000000000000000000000000000000000000000000000000824df2d9e4995344d924cc59f8e6c681c7fe6b70d3612b80bef8bd6b05a2117c2359247a6f02c95358e220151b45140339524db28b11b12b7dec2367c029ae81201bf71d5ccf908769232dca2103d316370dbe87111cb1a01dc573725c23a585934162bb4ec7ff12e8be9aa13c63decd8c3d7df61b122caa809d85e4d8719c5d41fe1c000000000000000000000000000000000000000000000000000000000000",
        "nonce": "0x18",
        "chainId": "0x1"
      },
      "additionalContracts": [],
      "isFixedGasLimit": false
    }
  ],
  "receipts": [
    {
      "status": "0x1",
      "cumulativeGasUsed": "0xe4b21c",
      "logs": [
        {
          "address": "0x457f785000ca495fae63aab38c9fc4b2965b106a",
          "topics": [
            "0x9737a6ed65b2635eeb5c433d89fda29340f82bc8f269f2fbb303f324c81480e1",
            "0x00000000000000000000000030b8cf2aa67e1e13a096d8838cc942fbbd52778b",
            "0x00000000000000000000000065767ab18a2854895d5287ac689a18b54a17dfb1"
          ],
          "data": "0x000000000000000000000000000000000000000000000000000000000000004000000000000000000000000000000000000000000000000000000000000001e00000000000000000000000000000000000000000000000000000000000000002000000000000000000000000000000000000000000000000000000000000004000000000000000000000000000000000000000000000000000000000000000e000000000000000000000000000000000000000000000000000000000000000640cf8542f0000000000000000000000000000000000000000000000000000000000000000000000000000000000000000000000000000000000000000000000000000000000000000000000000000000030b8cf2aa67e1e13a096d8838cc942fbbd52778b0000000000000000000000000000000000000000000000000000000000000000000000000000000000000000000000000000000000000000000000642b4c9a200000000000000000000000000000000000000000000000000000000000000000000000000000000000000000000000000000000000000000000000000000000000000000000000000000000030b8cf2aa67e1e13a096d8838cc942fbbd52778b000000000000000000000000000000000000000000000000000000000000000000000000000000000000000000000000000000000000000000000002000000000000000000000000000000000000000000000000000000000000004000000000000000000000000000000000000000000000000000000000000000e00000000000000000000000000000000000000000000000000000000000000064ffffffff00000000000000000000000000000000000000000000000000000000000000000000000000000000000000000000000000000000000000000000000000000000000000000000000000000000ffffffffffffffffffffffffffffffffffffffff000000000000000000000000000000000000000000000000000000000000000000000000000000000000000000000000000000000000000000000064ffffffff00000000000000000000000000000000000000000000000000000000000000000000000000000000000000000000000000000000000000000000000000000000000000000000000000000000ffffffffffffffffffffffffffffffffffffffff00000000000000000000000000000000000000000000000000000000",
          "blockHash": "0x0b4b3b9b4f0fb537c6a3df9591e37acafa4f81da109a86a410050cfe83d2274c",
          "blockNumber": "0x14ce8b1",
          "transactionHash": "0x7f61c618c5b643991844f028db237e2afee82dd40129751cd7270e963f521095",
          "transactionIndex": "0x86",
          "logIndex": "0x141",
          "removed": false
        },
        {
          "address": "0x30b8cf2aa67e1e13a096d8838cc942fbbd52778b",
          "topics": [
            "0x442e715f626346e8c54381002da614f62bee8d27386535b2521ec8540898556e",
            "0xa19e956835e9fcbd44b81aaef3f9553253b8efad48c27e059f3b940425554291"
          ],
          "data": "0x0000000000000000000000000000000000000000000000000000000000000000",
          "blockHash": "0x0b4b3b9b4f0fb537c6a3df9591e37acafa4f81da109a86a410050cfe83d2274c",
          "blockNumber": "0x14ce8b1",
          "transactionHash": "0x7f61c618c5b643991844f028db237e2afee82dd40129751cd7270e963f521095",
          "transactionIndex": "0x86",
          "logIndex": "0x142",
          "removed": false
        }
      ],
      "logsBloom": "0x00000000400000000000000000002000000000000000000040000000040000000000000000000000000100000000000000000000000000000000000000000001000000000000000000000000000000000000010000000000000000000000000000000000000000000000000000000000000000000008000000000000040000000000000000000000000000800000000010000020000000040000000000000000000000000000004000000000000004000000008000000000000000000000000000000000000000000000000000000000100000000000000000000000000000000000000000000002200000000000000000008000000000000000000000000000",
      "type": "0x2",
      "transactionHash": "0x7f61c618c5b643991844f028db237e2afee82dd40129751cd7270e963f521095",
      "transactionIndex": "0x86",
      "blockHash": "0x0b4b3b9b4f0fb537c6a3df9591e37acafa4f81da109a86a410050cfe83d2274c",
      "blockNumber": "0x14ce8b1",
      "gasUsed": "0x2b150",
      "effectiveGasPrice": "0x38d4a960",
      "from": "0xc5894b63e6511f3d3f466ca83f4cfe42c3425ac8",
      "to": "0x30b8cf2aa67e1e13a096d8838cc942fbbd52778b",
      "contractAddress": null
    }
  ],
  "libraries": [],
  "pending": [],
  "returns": {},
  "timestamp": 1739207427,
  "chain": 1,
  "commit": "e9a8bd6"
}