{
  "deployments": [
    {
      "transactions": [
        {
          "hash": "0xbdc2b43e7cf39e17072017147f03075bf66d8556b68cf1eccd93efb95c2da1d7",
          "transactionType": "CALL",
          "contractName": null,
          "contractAddress": "0x30b8cf2aa67e1e13a096d8838cc942fbbd52778b",
          "function": "execTransaction(address,uint256,bytes,uint8,uint256,uint256,uint256,address,address,bytes)",
          "arguments": [
            "0xa3212332057C479937EA5efE4c92EcE8d3a3100a",
            "0",
            "0x781d26d10000000000000000000000000000000000000000000000000000000000000002",
            "0",
            "0",
            "0",
            "0",
            "0x0000000000000000000000000000000000000000",
            "0x0000000000000000000000000000000000000000",
            "0x655e360f10c50041269bd714e2973cdcfdf771ad5f3584d4d1f4a652e1fd78af423357b72917e5675d53c64f977d415321eb5cf967b5e9fdc967d25fd895294f1b"
          ],
          "transaction": {
            "from": "0xfa28c7fbd5b4752dfebdf498d86677e50c2812fa",
            "to": "0x30b8cf2aa67e1e13a096d8838cc942fbbd52778b",
            "gas": "0x41497",
            "value": "0x0",
            "input": "0x6a761202000000000000000000000000a3212332057c479937ea5efe4c92ece8d3a3100a0000000000000000000000000000000000000000000000000000000000000000000000000000000000000000000000000000000000000000000000000000014000000000000000000000000000000000000000000000000000000000000000000000000000000000000000000000000000000000000000000000000000000000000000000000000000000000000000000000000000000000000000000000000000000000000000000000000000000000000000000000000000000000000000000000000000000000000000000000000000000000000000000000000000000000000000000000000000000000000000000000000000000000000000000000000000000000000000000000000000000000000000000000000000000000000001a00000000000000000000000000000000000000000000000000000000000000024781d26d10000000000000000000000000000000000000000000000000000000000000002000000000000000000000000000000000000000000000000000000000000000000000000000000000000000000000000000000000000000000000041655e360f10c50041269bd714e2973cdcfdf771ad5f3584d4d1f4a652e1fd78af423357b72917e5675d53c64f977d415321eb5cf967b5e9fdc967d25fd895294f1b00000000000000000000000000000000000000000000000000000000000000",
            "nonce": "0x29",
            "chainId": "0xa4b1"
          },
          "additionalContracts": [],
          "isFixedGasLimit": false
        }
      ],
      "receipts": [
        {
          "status": "0x1",
          "cumulativeGasUsed": "0x136eb4",
          "logs": [
            {
              "address": "0x30b8cf2aa67e1e13a096d8838cc942fbbd52778b",
              "topics": [
                "0x66753cd2356569ee081232e3be8909b950e0a76c1f8460c3a5e3c2be32b11bed"
              ],
              "data": "0x000000000000000000000000a3212332057c479937ea5efe4c92ece8d3a3100a0000000000000000000000000000000000000000000000000000000000000000000000000000000000000000000000000000000000000000000000000000016000000000000000000000000000000000000000000000000000000000000000000000000000000000000000000000000000000000000000000000000000000000000000000000000000000000000000000000000000000000000000000000000000000000000000000000000000000000000000000000000000000000000000000000000000000000000000000000000000000000000000000000000000000000000000000000000000000000000000000000000000000000000000000000000000000000000000000000000000000000000000000000000000000000000001c000000000000000000000000000000000000000000000000000000000000002400000000000000000000000000000000000000000000000000000000000000024781d26d10000000000000000000000000000000000000000000000000000000000000002000000000000000000000000000000000000000000000000000000000000000000000000000000000000000000000000000000000000000000000041655e360f10c50041269bd714e2973cdcfdf771ad5f3584d4d1f4a652e1fd78af423357b72917e5675d53c64f977d415321eb5cf967b5e9fdc967d25fd895294f1b0000000000000000000000000000000000000000000000000000000000000000000000000000000000000000000000000000000000000000000000000000600000000000000000000000000000000000000000000000000000000000000023000000000000000000000000fa28c7fbd5b4752dfebdf498d86677e50c2812fa0000000000000000000000000000000000000000000000000000000000000001",
              "blockHash": "0xf6250b1eb1063e5d98fb8cea5cbc126a486594ec8a5914d841ce035b40f0e752",
              "blockNumber": "0x1233ce83",
              "transactionHash": "0xbdc2b43e7cf39e17072017147f03075bf66d8556b68cf1eccd93efb95c2da1d7",
              "transactionIndex": "0x2",
              "logIndex": "0x8",
              "removed": false
            },
            {
              "address": "0xa3212332057c479937ea5efe4c92ece8d3a3100a",
              "topics": [
                "0x14bcd9461bf423d53fe144e9bbbeb02de84c405ec737944cd40b83093ad373d7",
                "0x00000000000000000000000030b8cf2aa67e1e13a096d8838cc942fbbd52778b",
                "0x0000000000000000000000000000000000000000000000000000000000000001",
                "0x0000000000000000000000000000000000000000000000000000000000000002"
              ],
              "data": "0x",
              "blockHash": "0xf6250b1eb1063e5d98fb8cea5cbc126a486594ec8a5914d841ce035b40f0e752",
              "blockNumber": "0x1233ce83",
              "transactionHash": "0xbdc2b43e7cf39e17072017147f03075bf66d8556b68cf1eccd93efb95c2da1d7",
              "transactionIndex": "0x2",
              "logIndex": "0x9",
              "removed": false
            },
            {
              "address": "0x30b8cf2aa67e1e13a096d8838cc942fbbd52778b",
              "topics": [
                "0x442e715f626346e8c54381002da614f62bee8d27386535b2521ec8540898556e",
                "0x3a7eb1fea7b0121b1f69d13ad30a084379ce39b9c75d7894ebf9bac470e6e92f"
              ],
              "data": "0x0000000000000000000000000000000000000000000000000000000000000000",
              "blockHash": "0xf6250b1eb1063e5d98fb8cea5cbc126a486594ec8a5914d841ce035b40f0e752",
              "blockNumber": "0x1233ce83",
              "transactionHash": "0xbdc2b43e7cf39e17072017147f03075bf66d8556b68cf1eccd93efb95c2da1d7",
              "transactionIndex": "0x2",
              "logIndex": "0xa",
              "removed": false
            }
          ],
          "logsBloom": "0x040000004000000000000000000000000000000000000000000000000400000000000000000000000000000000000000000000000100000000000000000c0000000000000000000000000000000000000000050000040000000000000000000000000040000000000000000000000000000004000008000000000000080000000000000000000000000000000000000000000000000000000000000000000000000000000400004000000100000004000000000010000000000000000000000000000000080000000040000000020000110000000000000000000000000040000000000000000000000000000000000000008000008000000000000000000000",
          "type": "0x2",
          "transactionHash": "0xbdc2b43e7cf39e17072017147f03075bf66d8556b68cf1eccd93efb95c2da1d7",
          "transactionIndex": "0x2",
          "blockHash": "0xf6250b1eb1063e5d98fb8cea5cbc126a486594ec8a5914d841ce035b40f0e752",
          "blockNumber": "0x1233ce83",
          "gasUsed": "0x2cae0",
          "effectiveGasPrice": "0x989680",
          "from": "0xfa28c7fbd5b4752dfebdf498d86677e50c2812fa",
          "to": "0x30b8cf2aa67e1e13a096d8838cc942fbbd52778b",
          "contractAddress": null,
          "gasUsedForL1": "0x142cb",
          "l1BlockNumber": "0x14d22ec"
        }
      ],
      "libraries": [],
      "pending": [],
      "returns": {},
      "timestamp": 1739387722,
      "chain": 42161,
      "commit": "279bca9"
    },
    {
      "transactions": [
        {
          "hash": "0xba567e59a733198344071c251c6e89c787cb6dfe00db6b0166a3ffe4de6cd90e",
          "transactionType": "CALL",
          "contractName": null,
          "contractAddress": "0x30b8cf2aa67e1e13a096d8838cc942fbbd52778b",
          "function": "execTransaction(address,uint256,bytes,uint8,uint256,uint256,uint256,address,address,bytes)",
          "arguments": [
            "0xa3212332057C479937EA5efE4c92EcE8d3a3100a",
            "0",
            "0x781d26d10000000000000000000000000000000000000000000000000000000000000002",
            "0",
            "0",
            "0",
            "0",
            "0x0000000000000000000000000000000000000000",
            "0x0000000000000000000000000000000000000000",
            "0x1a6291ba754140e84c01b290d5eaead5371cf58706dd48a8ad28755d85d8c71661cb23aaa533ab6e5c9ee3b6c91dd5229bd64498aa44b2dd5ce101864df95c611c"
          ],
          "transaction": {
            "from": "0xfa28c7fbd5b4752dfebdf498d86677e50c2812fa",
            "to": "0x30b8cf2aa67e1e13a096d8838cc942fbbd52778b",
            "gas": "0x23d7c",
            "value": "0x0",
            "input": "0x6a761202000000000000000000000000a3212332057c479937ea5efe4c92ece8d3a3100a0000000000000000000000000000000000000000000000000000000000000000000000000000000000000000000000000000000000000000000000000000014000000000000000000000000000000000000000000000000000000000000000000000000000000000000000000000000000000000000000000000000000000000000000000000000000000000000000000000000000000000000000000000000000000000000000000000000000000000000000000000000000000000000000000000000000000000000000000000000000000000000000000000000000000000000000000000000000000000000000000000000000000000000000000000000000000000000000000000000000000000000000000000000000000000000001a00000000000000000000000000000000000000000000000000000000000000024781d26d100000000000000000000000000000000000000000000000000000000000000020000000000000000000000000000000000000000000000000000000000000000000000000000000000000000000000000000000000000000000000411a6291ba754140e84c01b290d5eaead5371cf58706dd48a8ad28755d85d8c71661cb23aaa533ab6e5c9ee3b6c91dd5229bd64498aa44b2dd5ce101864df95c611c00000000000000000000000000000000000000000000000000000000000000",
            "nonce": "0x25",
            "chainId": "0xa4ec"
          },
          "additionalContracts": [],
          "isFixedGasLimit": false
        }
      ],
      "receipts": [
        {
          "status": "0x1",
          "cumulativeGasUsed": "0x2d90fe",
          "logs": [
            {
              "address": "0x30b8cf2aa67e1e13a096d8838cc942fbbd52778b",
              "topics": [
                "0x66753cd2356569ee081232e3be8909b950e0a76c1f8460c3a5e3c2be32b11bed"
              ],
              "data": "0x000000000000000000000000a3212332057c479937ea5efe4c92ece8d3a3100a0000000000000000000000000000000000000000000000000000000000000000000000000000000000000000000000000000000000000000000000000000016000000000000000000000000000000000000000000000000000000000000000000000000000000000000000000000000000000000000000000000000000000000000000000000000000000000000000000000000000000000000000000000000000000000000000000000000000000000000000000000000000000000000000000000000000000000000000000000000000000000000000000000000000000000000000000000000000000000000000000000000000000000000000000000000000000000000000000000000000000000000000000000000000000000000001c000000000000000000000000000000000000000000000000000000000000002400000000000000000000000000000000000000000000000000000000000000024781d26d100000000000000000000000000000000000000000000000000000000000000020000000000000000000000000000000000000000000000000000000000000000000000000000000000000000000000000000000000000000000000411a6291ba754140e84c01b290d5eaead5371cf58706dd48a8ad28755d85d8c71661cb23aaa533ab6e5c9ee3b6c91dd5229bd64498aa44b2dd5ce101864df95c611c000000000000000000000000000000000000000000000000000000000000000000000000000000000000000000000000000000000000000000000000000060000000000000000000000000000000000000000000000000000000000000001c000000000000000000000000fa28c7fbd5b4752dfebdf498d86677e50c2812fa0000000000000000000000000000000000000000000000000000000000000001",
              "blockHash": "0x3de2c2e274112e0dbfc19b88a977fec13d17c37299c38efba1ce95cf340dc1b6",
              "blockNumber": "0x1cefe9b",
              "transactionHash": "0xba567e59a733198344071c251c6e89c787cb6dfe00db6b0166a3ffe4de6cd90e",
              "transactionIndex": "0x17",
              "logIndex": "0x66",
              "removed": false
            },
            {
              "address": "0xa3212332057c479937ea5efe4c92ece8d3a3100a",
              "topics": [
                "0x14bcd9461bf423d53fe144e9bbbeb02de84c405ec737944cd40b83093ad373d7",
                "0x00000000000000000000000030b8cf2aa67e1e13a096d8838cc942fbbd52778b",
                "0x0000000000000000000000000000000000000000000000000000000000000001",
                "0x0000000000000000000000000000000000000000000000000000000000000002"
              ],
              "data": "0x",
              "blockHash": "0x3de2c2e274112e0dbfc19b88a977fec13d17c37299c38efba1ce95cf340dc1b6",
              "blockNumber": "0x1cefe9b",
              "transactionHash": "0xba567e59a733198344071c251c6e89c787cb6dfe00db6b0166a3ffe4de6cd90e",
              "transactionIndex": "0x17",
              "logIndex": "0x67",
              "removed": false
            },
            {
              "address": "0x30b8cf2aa67e1e13a096d8838cc942fbbd52778b",
              "topics": [
                "0x442e715f626346e8c54381002da614f62bee8d27386535b2521ec8540898556e",
                "0x87d647a8a2aa116c46f2b2aeae214f8264b5be694287532e3da4b74cb2fb5fdb"
              ],
              "data": "0x0000000000000000000000000000000000000000000000000000000000000000",
              "blockHash": "0x3de2c2e274112e0dbfc19b88a977fec13d17c37299c38efba1ce95cf340dc1b6",
              "blockNumber": "0x1cefe9b",
              "transactionHash": "0xba567e59a733198344071c251c6e89c787cb6dfe00db6b0166a3ffe4de6cd90e",
              "transactionIndex": "0x17",
              "logIndex": "0x68",
              "removed": false
            }
          ],
          "logsBloom": "0x040000004000000000000000000000000000000000000000000000000400000000000000000000000000080000000000000000000000000000000000000c0000000000000000000000000000000000000000050000040000800000000000000000000040000000000000000000000000000004000008000000000000000000000000000000000000000000000000000000000000000000000000000000000000000000000400004000000104000004000000000000000000000000000000000000000000080000000040000000020000110000000000000000000000000040000000000000000000000000000000000000008000008000000000000000000000",
          "type": "0x0",
          "transactionHash": "0xba567e59a733198344071c251c6e89c787cb6dfe00db6b0166a3ffe4de6cd90e",
          "transactionIndex": "0x17",
          "blockHash": "0x3de2c2e274112e0dbfc19b88a977fec13d17c37299c38efba1ce95cf340dc1b6",
          "blockNumber": "0x1cefe9b",
          "gasUsed": "0x18821",
          "effectiveGasPrice": "0x2540be400",
          "from": "0xfa28c7fbd5b4752dfebdf498d86677e50c2812fa",
          "to": "0x30b8cf2aa67e1e13a096d8838cc942fbbd52778b",
          "contractAddress": null
        }
      ],
      "libraries": [],
      "pending": [],
      "returns": {},
      "timestamp": 1739387723,
      "chain": 42220,
      "commit": "279bca9"
    },
    {
      "transactions": [
        {
          "hash": "0x3c0d05bfc51c9207432d6eac5a59afc6fefeea545dbf716b970b669b86591d28",
          "transactionType": "CALL",
          "contractName": null,
          "contractAddress": "0x30b8cf2aa67e1e13a096d8838cc942fbbd52778b",
          "function": "execTransaction(address,uint256,bytes,uint8,uint256,uint256,uint256,address,address,bytes)",
          "arguments": [
            "0xa3212332057C479937EA5efE4c92EcE8d3a3100a",
            "0",
            "0x781d26d10000000000000000000000000000000000000000000000000000000000000002",
            "0",
            "0",
            "0",
            "0",
            "0x0000000000000000000000000000000000000000",
            "0x0000000000000000000000000000000000000000",
            "0xa1b39247839d41b2e12a9cab153f232e9d88dc9a6e16ad18c7e0e1b6ae965a3c324389a49ac557e66da5c619d012d4c4dd239567690690d04847c2ca6152774d1b"
          ],
          "transaction": {
            "from": "0xfa28c7fbd5b4752dfebdf498d86677e50c2812fa",
            "to": "0x30b8cf2aa67e1e13a096d8838cc942fbbd52778b",
            "gas": "0x23d7c",
            "value": "0x0",
            "input": "0x6a761202000000000000000000000000a3212332057c479937ea5efe4c92ece8d3a3100a0000000000000000000000000000000000000000000000000000000000000000000000000000000000000000000000000000000000000000000000000000014000000000000000000000000000000000000000000000000000000000000000000000000000000000000000000000000000000000000000000000000000000000000000000000000000000000000000000000000000000000000000000000000000000000000000000000000000000000000000000000000000000000000000000000000000000000000000000000000000000000000000000000000000000000000000000000000000000000000000000000000000000000000000000000000000000000000000000000000000000000000000000000000000000000000001a00000000000000000000000000000000000000000000000000000000000000024781d26d10000000000000000000000000000000000000000000000000000000000000002000000000000000000000000000000000000000000000000000000000000000000000000000000000000000000000000000000000000000000000041a1b39247839d41b2e12a9cab153f232e9d88dc9a6e16ad18c7e0e1b6ae965a3c324389a49ac557e66da5c619d012d4c4dd239567690690d04847c2ca6152774d1b00000000000000000000000000000000000000000000000000000000000000",
            "nonce": "0x13",
            "chainId": "0xe708"
          },
          "additionalContracts": [],
          "isFixedGasLimit": false
        }
      ],
      "receipts": [
        {
          "status": "0x1",
          "cumulativeGasUsed": "0x18821",
          "logs": [
            {
              "address": "0x30b8cf2aa67e1e13a096d8838cc942fbbd52778b",
              "topics": [
                "0x66753cd2356569ee081232e3be8909b950e0a76c1f8460c3a5e3c2be32b11bed"
              ],
              "data": "0x000000000000000000000000a3212332057c479937ea5efe4c92ece8d3a3100a0000000000000000000000000000000000000000000000000000000000000000000000000000000000000000000000000000000000000000000000000000016000000000000000000000000000000000000000000000000000000000000000000000000000000000000000000000000000000000000000000000000000000000000000000000000000000000000000000000000000000000000000000000000000000000000000000000000000000000000000000000000000000000000000000000000000000000000000000000000000000000000000000000000000000000000000000000000000000000000000000000000000000000000000000000000000000000000000000000000000000000000000000000000000000000000001c000000000000000000000000000000000000000000000000000000000000002400000000000000000000000000000000000000000000000000000000000000024781d26d10000000000000000000000000000000000000000000000000000000000000002000000000000000000000000000000000000000000000000000000000000000000000000000000000000000000000000000000000000000000000041a1b39247839d41b2e12a9cab153f232e9d88dc9a6e16ad18c7e0e1b6ae965a3c324389a49ac557e66da5c619d012d4c4dd239567690690d04847c2ca6152774d1b000000000000000000000000000000000000000000000000000000000000000000000000000000000000000000000000000000000000000000000000000060000000000000000000000000000000000000000000000000000000000000000b000000000000000000000000fa28c7fbd5b4752dfebdf498d86677e50c2812fa0000000000000000000000000000000000000000000000000000000000000001",
              "blockHash": "0x3a399086077f131c923d475eec7e80cb1381e43944173df74b062138c80f9db0",
              "blockNumber": "0xf042e0",
              "transactionHash": "0x3c0d05bfc51c9207432d6eac5a59afc6fefeea545dbf716b970b669b86591d28",
              "transactionIndex": "0x0",
              "logIndex": "0x0",
              "removed": false
            },
            {
              "address": "0xa3212332057c479937ea5efe4c92ece8d3a3100a",
              "topics": [
                "0x14bcd9461bf423d53fe144e9bbbeb02de84c405ec737944cd40b83093ad373d7",
                "0x00000000000000000000000030b8cf2aa67e1e13a096d8838cc942fbbd52778b",
                "0x0000000000000000000000000000000000000000000000000000000000000001",
                "0x0000000000000000000000000000000000000000000000000000000000000002"
              ],
              "data": "0x",
              "blockHash": "0x3a399086077f131c923d475eec7e80cb1381e43944173df74b062138c80f9db0",
              "blockNumber": "0xf042e0",
              "transactionHash": "0x3c0d05bfc51c9207432d6eac5a59afc6fefeea545dbf716b970b669b86591d28",
              "transactionIndex": "0x0",
              "logIndex": "0x1",
              "removed": false
            },
            {
              "address": "0x30b8cf2aa67e1e13a096d8838cc942fbbd52778b",
              "topics": [
                "0x442e715f626346e8c54381002da614f62bee8d27386535b2521ec8540898556e",
                "0xb78078cfbf5410b26d2dcf83a21dbb0511de5b8ad3075c6f44080c66fb56eaf9"
              ],
              "data": "0x0000000000000000000000000000000000000000000000000000000000000000",
              "blockHash": "0x3a399086077f131c923d475eec7e80cb1381e43944173df74b062138c80f9db0",
              "blockNumber": "0xf042e0",
              "transactionHash": "0x3c0d05bfc51c9207432d6eac5a59afc6fefeea545dbf716b970b669b86591d28",
              "transactionIndex": "0x0",
              "logIndex": "0x2",
              "removed": false
            }
          ],
          "logsBloom": "0x040000004000000000000000000000000000000000000000000200000400000000000000000000000000002000000000000000000000000000000000000c0000000000000000000000000000000000000000050000040000000000000000000000000040000000000000000000000000000004000008000000000000000000000000000000000000000000000000000000000000000000000000000000000000000000000400004000000100000004000000000000000000000000000000000000000000080000000040000000020000110000000000000000000000000040000000000000400000000000000000000000008000008000000000000000000000",
          "type": "0x2",
          "transactionHash": "0x3c0d05bfc51c9207432d6eac5a59afc6fefeea545dbf716b970b669b86591d28",
          "transactionIndex": "0x0",
          "blockHash": "0x3a399086077f131c923d475eec7e80cb1381e43944173df74b062138c80f9db0",
          "blockNumber": "0xf042e0",
          "gasUsed": "0x18821",
          "effectiveGasPrice": "0x6ad6a5b",
          "from": "0xfa28c7fbd5b4752dfebdf498d86677e50c2812fa",
          "to": "0x30b8cf2aa67e1e13a096d8838cc942fbbd52778b",
          "contractAddress": null
        }
      ],
      "libraries": [],
      "pending": [],
      "returns": {},
      "timestamp": 1739387724,
      "chain": 59144,
      "commit": "279bca9"
    },
    {
      "transactions": [
        {
          "hash": "0x3cd01116b1d1d7515b1dd425fd9ad15c377c3d4e24932796c2ce0de59ede7244",
          "transactionType": "CALL",
          "contractName": null,
          "contractAddress": "0x30b8cf2aa67e1e13a096d8838cc942fbbd52778b",
          "function": "execTransaction(address,uint256,bytes,uint8,uint256,uint256,uint256,address,address,bytes)",
          "arguments": [
            "0xa3212332057C479937EA5efE4c92EcE8d3a3100a",
            "0",
            "0x781d26d10000000000000000000000000000000000000000000000000000000000000002",
            "0",
            "0",
            "0",
            "0",
            "0x0000000000000000000000000000000000000000",
            "0x0000000000000000000000000000000000000000",
            "0xd17225d52b487588f56d761bb9ea9058f18f43bfdede1c0f330be17154d0d8be6aca002dab5c01a114c50ef65ba11ba703b7eb0fe4f0fc7a8124e7ce3a05e6541b"
          ],
          "transaction": {
            "from": "0xfa28c7fbd5b4752dfebdf498d86677e50c2812fa",
            "to": "0x30b8cf2aa67e1e13a096d8838cc942fbbd52778b",
            "gas": "0x21d8f",
            "value": "0x0",
            "input": "0x6a761202000000000000000000000000a3212332057c479937ea5efe4c92ece8d3a3100a0000000000000000000000000000000000000000000000000000000000000000000000000000000000000000000000000000000000000000000000000000014000000000000000000000000000000000000000000000000000000000000000000000000000000000000000000000000000000000000000000000000000000000000000000000000000000000000000000000000000000000000000000000000000000000000000000000000000000000000000000000000000000000000000000000000000000000000000000000000000000000000000000000000000000000000000000000000000000000000000000000000000000000000000000000000000000000000000000000000000000000000000000000000000000000000001a00000000000000000000000000000000000000000000000000000000000000024781d26d10000000000000000000000000000000000000000000000000000000000000002000000000000000000000000000000000000000000000000000000000000000000000000000000000000000000000000000000000000000000000041d17225d52b487588f56d761bb9ea9058f18f43bfdede1c0f330be17154d0d8be6aca002dab5c01a114c50ef65ba11ba703b7eb0fe4f0fc7a8124e7ce3a05e6541b00000000000000000000000000000000000000000000000000000000000000",
            "nonce": "0xd",
            "chainId": "0xa86a"
          },
          "additionalContracts": [],
          "isFixedGasLimit": false
        }
      ],
      "receipts": [
        {
          "status": "0x1",
          "cumulativeGasUsed": "0x119e9c",
          "logs": [
            {
              "address": "0x30b8cf2aa67e1e13a096d8838cc942fbbd52778b",
              "topics": [
                "0x66753cd2356569ee081232e3be8909b950e0a76c1f8460c3a5e3c2be32b11bed"
              ],
              "data": "0x000000000000000000000000a3212332057c479937ea5efe4c92ece8d3a3100a0000000000000000000000000000000000000000000000000000000000000000000000000000000000000000000000000000000000000000000000000000016000000000000000000000000000000000000000000000000000000000000000000000000000000000000000000000000000000000000000000000000000000000000000000000000000000000000000000000000000000000000000000000000000000000000000000000000000000000000000000000000000000000000000000000000000000000000000000000000000000000000000000000000000000000000000000000000000000000000000000000000000000000000000000000000000000000000000000000000000000000000000000000000000000000000001c000000000000000000000000000000000000000000000000000000000000002400000000000000000000000000000000000000000000000000000000000000024781d26d10000000000000000000000000000000000000000000000000000000000000002000000000000000000000000000000000000000000000000000000000000000000000000000000000000000000000000000000000000000000000041d17225d52b487588f56d761bb9ea9058f18f43bfdede1c0f330be17154d0d8be6aca002dab5c01a114c50ef65ba11ba703b7eb0fe4f0fc7a8124e7ce3a05e6541b0000000000000000000000000000000000000000000000000000000000000000000000000000000000000000000000000000000000000000000000000000600000000000000000000000000000000000000000000000000000000000000008000000000000000000000000fa28c7fbd5b4752dfebdf498d86677e50c2812fa0000000000000000000000000000000000000000000000000000000000000001",
              "blockHash": "0x7ef06ff547a8226bfe6faa1efa333a5b276d2f4046b66019d556618d14ae6988",
              "blockNumber": "0x3692c72",
              "transactionHash": "0x3cd01116b1d1d7515b1dd425fd9ad15c377c3d4e24932796c2ce0de59ede7244",
              "transactionIndex": "0x7",
              "logIndex": "0xf",
              "removed": false
            },
            {
              "address": "0xa3212332057c479937ea5efe4c92ece8d3a3100a",
              "topics": [
                "0x14bcd9461bf423d53fe144e9bbbeb02de84c405ec737944cd40b83093ad373d7",
                "0x00000000000000000000000030b8cf2aa67e1e13a096d8838cc942fbbd52778b",
                "0x0000000000000000000000000000000000000000000000000000000000000001",
                "0x0000000000000000000000000000000000000000000000000000000000000002"
              ],
              "data": "0x",
              "blockHash": "0x7ef06ff547a8226bfe6faa1efa333a5b276d2f4046b66019d556618d14ae6988",
              "blockNumber": "0x3692c72",
              "transactionHash": "0x3cd01116b1d1d7515b1dd425fd9ad15c377c3d4e24932796c2ce0de59ede7244",
              "transactionIndex": "0x7",
              "logIndex": "0x10",
              "removed": false
            },
            {
              "address": "0x30b8cf2aa67e1e13a096d8838cc942fbbd52778b",
              "topics": [
                "0x442e715f626346e8c54381002da614f62bee8d27386535b2521ec8540898556e",
                "0xe571cd63b4e73585c62cdb822ad5de15e2ef6e134703ce4179549b66e030e4bd"
              ],
              "data": "0x0000000000000000000000000000000000000000000000000000000000000000",
              "blockHash": "0x7ef06ff547a8226bfe6faa1efa333a5b276d2f4046b66019d556618d14ae6988",
              "blockNumber": "0x3692c72",
              "transactionHash": "0x3cd01116b1d1d7515b1dd425fd9ad15c377c3d4e24932796c2ce0de59ede7244",
              "transactionIndex": "0x7",
              "logIndex": "0x11",
              "removed": false
            }
          ],
          "logsBloom": "0x040000004000000000000000000000000000000000000000000000000400000000000000000000000000000000000000000000000000000000000000000c0000000000000000000000000004000000000000050000040000000000000000000000000040000000000000000000000000000004000008000000000000000000000000000000000000000000000000000000000000000000000000000010000000000000000400004000000100000004400000000000000000000000000000000000000000080000000040000000020000110000000000000000000000000040000000000000000000000000000000000000008000008000000000000000000000",
          "type": "0x2",
          "transactionHash": "0x3cd01116b1d1d7515b1dd425fd9ad15c377c3d4e24932796c2ce0de59ede7244",
          "transactionIndex": "0x7",
          "blockHash": "0x7ef06ff547a8226bfe6faa1efa333a5b276d2f4046b66019d556618d14ae6988",
          "blockNumber": "0x3692c72",
          "gasUsed": "0x18815",
          "effectiveGasPrice": "0x45ecb568",
          "from": "0xfa28c7fbd5b4752dfebdf498d86677e50c2812fa",
          "to": "0x30b8cf2aa67e1e13a096d8838cc942fbbd52778b",
          "contractAddress": null
        }
      ],
      "libraries": [],
      "pending": [],
      "returns": {},
      "timestamp": 1739387725,
      "chain": 43114,
      "commit": "279bca9"
    }
  ],
  "timestamp": 1739387742
}