{
  "deployments": [
    {
      "transactions": [
        {
          "hash": "0x753544b18a1c935d314384ca4bfb1844d735456561d5d78a02233426bfe118f6",
          "transactionType": "CALL",
          "contractName": null,
          "contractAddress": "0x30b8cf2aa67e1e13a096d8838cc942fbbd52778b",
          "function": "execTransaction(address,uint256,bytes,uint8,uint256,uint256,uint256,address,address,bytes)",
          "arguments": [
            "0xa3212332057C479937EA5efE4c92EcE8d3a3100a",
            "0",
            "0x982dd3d3000000000000000000000000af88d065e77c8cc2239327c5edb3a432268e583100000000000000000000000000000000000000000000000000000000000000600000000000000000000000000000000000000000000000000000000000000120000000000000000000000000000000000000000000000000000000000000000100000000000000000000000000000000000000000000000000000000000000200000000000000000000000000000000000000000000000000000000000000044095ea7b300000000000000000000000068b3465833fb72a70ecdf485e0e4c7bd8665fc45000000000000000000000000000000000000000000000000000000000000000000000000000000000000000000000000000000000000000000000000000000000000000000000000000000000000000000000000000000000000000100000000000000000000000000000000000000000000000000000000000000200000000000000000000000000000000000000000000000000000000000000044ffffffff000000000000000000000000ffffffffffffffffffffffffffffffffffffffff000000000000000000000000000000000000000000000000000000000000000000000000000000000000000000000000000000000000000000000000",
            "0",
            "0",
            "0",
            "0",
            "0x0000000000000000000000000000000000000000",
            "0x0000000000000000000000000000000000000000",
            "0x36da22783ec66d8f5e74215441194e386d31345293b18ab98682e17d60c1771278ab1cf3f4fe86c21b80be54ac126999aac029227d31b2d4696a159a93cd13221c"
          ],
          "transaction": {
            "from": "0xfa28c7fbd5b4752dfebdf498d86677e50c2812fa",
            "to": "0x30b8cf2aa67e1e13a096d8838cc942fbbd52778b",
            "gas": "0x101071",
            "value": "0x0",
            "input": "0x6a761202000000000000000000000000a3212332057c479937ea5efe4c92ece8d3a3100a00000000000000000000000000000000000000000000000000000000000000000000000000000000000000000000000000000000000000000000000000000140000000000000000000000000000000000000000000000000000000000000000000000000000000000000000000000000000000000000000000000000000000000000000000000000000000000000000000000000000000000000000000000000000000000000000000000000000000000000000000000000000000000000000000000000000000000000000000000000000000000000000000000000000000000000000000000000000000000000000000000000000000000000000000000000000000000000000000000000000000000000000000000000000000000000036000000000000000000000000000000000000000000000000000000000000001e4982dd3d3000000000000000000000000af88d065e77c8cc2239327c5edb3a432268e583100000000000000000000000000000000000000000000000000000000000000600000000000000000000000000000000000000000000000000000000000000120000000000000000000000000000000000000000000000000000000000000000100000000000000000000000000000000000000000000000000000000000000200000000000000000000000000000000000000000000000000000000000000044095ea7b300000000000000000000000068b3465833fb72a70ecdf485e0e4c7bd8665fc45000000000000000000000000000000000000000000000000000000000000000000000000000000000000000000000000000000000000000000000000000000000000000000000000000000000000000000000000000000000000000100000000000000000000000000000000000000000000000000000000000000200000000000000000000000000000000000000000000000000000000000000044ffffffff000000000000000000000000ffffffffffffffffffffffffffffffffffffffff00000000000000000000000000000000000000000000000000000000000000000000000000000000000000000000000000000000000000000000000000000000000000000000000000000000000000000000000000000000000000000000000000000000000000000000000000000000000000000000004136da22783ec66d8f5e74215441194e386d31345293b18ab98682e17d60c1771278ab1cf3f4fe86c21b80be54ac126999aac029227d31b2d4696a159a93cd13221c00000000000000000000000000000000000000000000000000000000000000",
            "nonce": "0xb",
            "chainId": "0xa4b1"
          },
          "additionalContracts": [],
          "isFixedGasLimit": false
        },
        {
          "hash": null,
          "transactionType": "CALL",
          "contractName": null,
          "contractAddress": "0x30b8cf2aa67e1e13a096d8838cc942fbbd52778b",
          "function": "execTransaction(address,uint256,bytes,uint8,uint256,uint256,uint256,address,address,bytes)",
          "arguments": [
            "0xa3212332057C479937EA5efE4c92EcE8d3a3100a",
            "0",
            "0x982dd3d300000000000000000000000082af49447d8a07e3bd95bd0d56f35241523fbab100000000000000000000000000000000000000000000000000000000000000600000000000000000000000000000000000000000000000000000000000000120000000000000000000000000000000000000000000000000000000000000000100000000000000000000000000000000000000000000000000000000000000200000000000000000000000000000000000000000000000000000000000000044095ea7b300000000000000000000000068b3465833fb72a70ecdf485e0e4c7bd8665fc45000000000000000000000000000000000000000000000000000000000000000000000000000000000000000000000000000000000000000000000000000000000000000000000000000000000000000000000000000000000000000100000000000000000000000000000000000000000000000000000000000000200000000000000000000000000000000000000000000000000000000000000044ffffffff000000000000000000000000ffffffffffffffffffffffffffffffffffffffff000000000000000000000000000000000000000000000000000000000000000000000000000000000000000000000000000000000000000000000000",
            "0",
            "0",
            "0",
            "0",
            "0x0000000000000000000000000000000000000000",
            "0x0000000000000000000000000000000000000000",
            "0xb44cd4a5b65fe6259aed95fa423a8269763c0ed82c954465be908569143d9fd833dcf7b4640669d56e89c5d1649b7021fca44abd02cc92690cfc1e86547def961b"
          ],
          "transaction": {
            "from": "0xfa28c7fbd5b4752dfebdf498d86677e50c2812fa",
            "to": "0x30b8cf2aa67e1e13a096d8838cc942fbbd52778b",
            "gas": "0x58a4f",
            "value": "0x0",
            "input": "0x6a761202000000000000000000000000a3212332057c479937ea5efe4c92ece8d3a3100a00000000000000000000000000000000000000000000000000000000000000000000000000000000000000000000000000000000000000000000000000000140000000000000000000000000000000000000000000000000000000000000000000000000000000000000000000000000000000000000000000000000000000000000000000000000000000000000000000000000000000000000000000000000000000000000000000000000000000000000000000000000000000000000000000000000000000000000000000000000000000000000000000000000000000000000000000000000000000000000000000000000000000000000000000000000000000000000000000000000000000000000000000000000000000000000036000000000000000000000000000000000000000000000000000000000000001e4982dd3d300000000000000000000000082af49447d8a07e3bd95bd0d56f35241523fbab100000000000000000000000000000000000000000000000000000000000000600000000000000000000000000000000000000000000000000000000000000120000000000000000000000000000000000000000000000000000000000000000100000000000000000000000000000000000000000000000000000000000000200000000000000000000000000000000000000000000000000000000000000044095ea7b300000000000000000000000068b3465833fb72a70ecdf485e0e4c7bd8665fc45000000000000000000000000000000000000000000000000000000000000000000000000000000000000000000000000000000000000000000000000000000000000000000000000000000000000000000000000000000000000000100000000000000000000000000000000000000000000000000000000000000200000000000000000000000000000000000000000000000000000000000000044ffffffff000000000000000000000000ffffffffffffffffffffffffffffffffffffffff000000000000000000000000000000000000000000000000000000000000000000000000000000000000000000000000000000000000000000000000000000000000000000000000000000000000000000000000000000000000000000000000000000000000000000000000000000000000000000000041b44cd4a5b65fe6259aed95fa423a8269763c0ed82c954465be908569143d9fd833dcf7b4640669d56e89c5d1649b7021fca44abd02cc92690cfc1e86547def961b00000000000000000000000000000000000000000000000000000000000000",
            "nonce": "0xc",
            "chainId": "0xa4b1"
          },
          "additionalContracts": [],
          "isFixedGasLimit": false
        },
        {
          "hash": null,
          "transactionType": "CALL",
          "contractName": null,
          "contractAddress": "0x30b8cf2aa67e1e13a096d8838cc942fbbd52778b",
          "function": "execTransaction(address,uint256,bytes,uint8,uint256,uint256,uint256,address,address,bytes)",
          "arguments": [
            "0xa3212332057C479937EA5efE4c92EcE8d3a3100a",
            "0",
            "0x982dd3d300000000000000000000000068b3465833fb72a70ecdf485e0e4c7bd8665fc45000000000000000000000000000000000000000000000000000000000000006000000000000000000000000000000000000000000000000000000000000005800000000000000000000000000000000000000000000000000000000000000004000000000000000000000000000000000000000000000000000000000000008000000000000000000000000000000000000000000000000000000000000001a000000000000000000000000000000000000000000000000000000000000002c000000000000000000000000000000000000000000000000000000000000003e000000000000000000000000000000000000000000000000000000000000000e404e45aaf000000000000000000000000af88d065e77c8cc2239327c5edb3a432268e5831000000000000000000000000af88d065e77c8cc2239327c5edb3a432268e5831000000000000000000000000000000000000000000000000000000000000000000000000000000000000000030b8cf2aa67e1e13a096d8838cc942fbbd52778b0000000000000000000000000000000000000000000000000000000000000000000000000000000000000000000000000000000000000000000000000000000000000000000000000000000000000000000000000000000000000000000000000000000000000000000000000000000000000000000000000000000000000000000000000000000000000000000000000000000000000000000000e404e45aaf000000000000000000000000af88d065e77c8cc2239327c5edb3a432268e583100000000000000000000000082af49447d8a07e3bd95bd0d56f35241523fbab1000000000000000000000000000000000000000000000000000000000000000000000000000000000000000030b8cf2aa67e1e13a096d8838cc942fbbd52778b0000000000000000000000000000000000000000000000000000000000000000000000000000000000000000000000000000000000000000000000000000000000000000000000000000000000000000000000000000000000000000000000000000000000000000000000000000000000000000000000000000000000000000000000000000000000000000000000000000000000000000000000e404e45aaf00000000000000000000000082af49447d8a07e3bd95bd0d56f35241523fbab1000000000000000000000000af88d065e77c8cc2239327c5edb3a432268e5831000000000000000000000000000000000000000000000000000000000000000000000000000000000000000030b8cf2aa67e1e13a096d8838cc942fbbd52778b0000000000000000000000000000000000000000000000000000000000000000000000000000000000000000000000000000000000000000000000000000000000000000000000000000000000000000000000000000000000000000000000000000000000000000000000000000000000000000000000000000000000000000000000000000000000000000000000000000000000000000000000e404e45aaf00000000000000000000000082af49447d8a07e3bd95bd0d56f35241523fbab100000000000000000000000082af49447d8a07e3bd95bd0d56f35241523fbab1000000000000000000000000000000000000000000000000000000000000000000000000000000000000000030b8cf2aa67e1e13a096d8838cc942fbbd52778b000000000000000000000000000000000000000000000000000000000000000000000000000000000000000000000000000000000000000000000000000000000000000000000000000000000000000000000000000000000000000000000000000000000000000000000000000000000000000000000000000000000000000000000000000000000000000000000000000000000000000000000004000000000000000000000000000000000000000000000000000000000000008000000000000000000000000000000000000000000000000000000000000001a000000000000000000000000000000000000000000000000000000000000002c000000000000000000000000000000000000000000000000000000000000003e000000000000000000000000000000000000000000000000000000000000000e4ffffffff000000000000000000000000ffffffffffffffffffffffffffffffffffffffff000000000000000000000000ffffffffffffffffffffffffffffffffffffffff0000000000000000000000000000000000000000000000000000000000000000000000000000000000000000ffffffffffffffffffffffffffffffffffffffff0000000000000000000000000000000000000000000000000000000000000000000000000000000000000000000000000000000000000000000000000000000000000000000000000000000000000000000000000000000000000000000000000000000000000000000000000000000000000000000000000000000000000000000000000000000000000000000000000000000000000000000000e4ffffffff000000000000000000000000ffffffffffffffffffffffffffffffffffffffff000000000000000000000000ffffffffffffffffffffffffffffffffffffffff0000000000000000000000000000000000000000000000000000000000000000000000000000000000000000ffffffffffffffffffffffffffffffffffffffff0000000000000000000000000000000000000000000000000000000000000000000000000000000000000000000000000000000000000000000000000000000000000000000000000000000000000000000000000000000000000000000000000000000000000000000000000000000000000000000000000000000000000000000000000000000000000000000000000000000000000000000000e4ffffffff000000000000000000000000ffffffffffffffffffffffffffffffffffffffff000000000000000000000000ffffffffffffffffffffffffffffffffffffffff0000000000000000000000000000000000000000000000000000000000000000000000000000000000000000ffffffffffffffffffffffffffffffffffffffff0000000000000000000000000000000000000000000000000000000000000000000000000000000000000000000000000000000000000000000000000000000000000000000000000000000000000000000000000000000000000000000000000000000000000000000000000000000000000000000000000000000000000000000000000000000000000000000000000000000000000000000000e4ffffffff000000000000000000000000ffffffffffffffffffffffffffffffffffffffff000000000000000000000000ffffffffffffffffffffffffffffffffffffffff0000000000000000000000000000000000000000000000000000000000000000000000000000000000000000ffffffffffffffffffffffffffffffffffffffff00000000000000000000000000000000000000000000000000000000000000000000000000000000000000000000000000000000000000000000000000000000000000000000000000000000000000000000000000000000000000000000000000000000000000000000000000000000000000000000000000000000",
            "0",
            "0",
            "0",
            "0",
            "0x0000000000000000000000000000000000000000",
            "0x0000000000000000000000000000000000000000",
            "0xbd02bf5413c09b849e037d4de6154bd2f90ee429ff133cb73e49414b74125c8047206e849f463aa9f8508ad6e89d7faf3f23ccec207a3bc36b03c869a54c3ac51c"
          ],
          "transaction": {
            "from": "0xfa28c7fbd5b4752dfebdf498d86677e50c2812fa",
            "to": "0x30b8cf2aa67e1e13a096d8838cc942fbbd52778b",
            "gas": "0x1bdf6e",
            "value": "0x0",
            "input": "0x6a761202000000000000000000000000a3212332057c479937ea5efe4c92ece8d3a3100a000000000000000000000000000000000000000000000000000000000000000000000000000000000000000000000000000000000000000000000000000001400000000000000000000000000000000000000000000000000000000000000000000000000000000000000000000000000000000000000000000000000000000000000000000000000000000000000000000000000000000000000000000000000000000000000000000000000000000000000000000000000000000000000000000000000000000000000000000000000000000000000000000000000000000000000000000000000000000000000000000000000000000000000000000000000000000000000000000000000000000000000000000000000000000000000c200000000000000000000000000000000000000000000000000000000000000aa4982dd3d300000000000000000000000068b3465833fb72a70ecdf485e0e4c7bd8665fc45000000000000000000000000000000000000000000000000000000000000006000000000000000000000000000000000000000000000000000000000000005800000000000000000000000000000000000000000000000000000000000000004000000000000000000000000000000000000000000000000000000000000008000000000000000000000000000000000000000000000000000000000000001a000000000000000000000000000000000000000000000000000000000000002c000000000000000000000000000000000000000000000000000000000000003e000000000000000000000000000000000000000000000000000000000000000e404e45aaf000000000000000000000000af88d065e77c8cc2239327c5edb3a432268e5831000000000000000000000000af88d065e77c8cc2239327c5edb3a432268e5831000000000000000000000000000000000000000000000000000000000000000000000000000000000000000030b8cf2aa67e1e13a096d8838cc942fbbd52778b0000000000000000000000000000000000000000000000000000000000000000000000000000000000000000000000000000000000000000000000000000000000000000000000000000000000000000000000000000000000000000000000000000000000000000000000000000000000000000000000000000000000000000000000000000000000000000000000000000000000000000000000e404e45aaf000000000000000000000000af88d065e77c8cc2239327c5edb3a432268e583100000000000000000000000082af49447d8a07e3bd95bd0d56f35241523fbab1000000000000000000000000000000000000000000000000000000000000000000000000000000000000000030b8cf2aa67e1e13a096d8838cc942fbbd52778b0000000000000000000000000000000000000000000000000000000000000000000000000000000000000000000000000000000000000000000000000000000000000000000000000000000000000000000000000000000000000000000000000000000000000000000000000000000000000000000000000000000000000000000000000000000000000000000000000000000000000000000000e404e45aaf00000000000000000000000082af49447d8a07e3bd95bd0d56f35241523fbab1000000000000000000000000af88d065e77c8cc2239327c5edb3a432268e5831000000000000000000000000000000000000000000000000000000000000000000000000000000000000000030b8cf2aa67e1e13a096d8838cc942fbbd52778b0000000000000000000000000000000000000000000000000000000000000000000000000000000000000000000000000000000000000000000000000000000000000000000000000000000000000000000000000000000000000000000000000000000000000000000000000000000000000000000000000000000000000000000000000000000000000000000000000000000000000000000000e404e45aaf00000000000000000000000082af49447d8a07e3bd95bd0d56f35241523fbab100000000000000000000000082af49447d8a07e3bd95bd0d56f35241523fbab1000000000000000000000000000000000000000000000000000000000000000000000000000000000000000030b8cf2aa67e1e13a096d8838cc942fbbd52778b000000000000000000000000000000000000000000000000000000000000000000000000000000000000000000000000000000000000000000000000000000000000000000000000000000000000000000000000000000000000000000000000000000000000000000000000000000000000000000000000000000000000000000000000000000000000000000000000000000000000000000000004000000000000000000000000000000000000000000000000000000000000008000000000000000000000000000000000000000000000000000000000000001a000000000000000000000000000000000000000000000000000000000000002c000000000000000000000000000000000000000000000000000000000000003e000000000000000000000000000000000000000000000000000000000000000e4ffffffff000000000000000000000000ffffffffffffffffffffffffffffffffffffffff000000000000000000000000ffffffffffffffffffffffffffffffffffffffff0000000000000000000000000000000000000000000000000000000000000000000000000000000000000000ffffffffffffffffffffffffffffffffffffffff0000000000000000000000000000000000000000000000000000000000000000000000000000000000000000000000000000000000000000000000000000000000000000000000000000000000000000000000000000000000000000000000000000000000000000000000000000000000000000000000000000000000000000000000000000000000000000000000000000000000000000000000e4ffffffff000000000000000000000000ffffffffffffffffffffffffffffffffffffffff000000000000000000000000ffffffffffffffffffffffffffffffffffffffff0000000000000000000000000000000000000000000000000000000000000000000000000000000000000000ffffffffffffffffffffffffffffffffffffffff0000000000000000000000000000000000000000000000000000000000000000000000000000000000000000000000000000000000000000000000000000000000000000000000000000000000000000000000000000000000000000000000000000000000000000000000000000000000000000000000000000000000000000000000000000000000000000000000000000000000000000000000e4ffffffff000000000000000000000000ffffffffffffffffffffffffffffffffffffffff000000000000000000000000ffffffffffffffffffffffffffffffffffffffff0000000000000000000000000000000000000000000000000000000000000000000000000000000000000000ffffffffffffffffffffffffffffffffffffffff0000000000000000000000000000000000000000000000000000000000000000000000000000000000000000000000000000000000000000000000000000000000000000000000000000000000000000000000000000000000000000000000000000000000000000000000000000000000000000000000000000000000000000000000000000000000000000000000000000000000000000000000e4ffffffff000000000000000000000000ffffffffffffffffffffffffffffffffffffffff000000000000000000000000ffffffffffffffffffffffffffffffffffffffff0000000000000000000000000000000000000000000000000000000000000000000000000000000000000000ffffffffffffffffffffffffffffffffffffffff00000000000000000000000000000000000000000000000000000000000000000000000000000000000000000000000000000000000000000000000000000000000000000000000000000000000000000000000000000000000000000000000000000000000000000000000000000000000000000000000000000000000000000000000000000000000000000000000000000000000000000000000000000000000000000000000000000000000000000000000000000041bd02bf5413c09b849e037d4de6154bd2f90ee429ff133cb73e49414b74125c8047206e849f463aa9f8508ad6e89d7faf3f23ccec207a3bc36b03c869a54c3ac51c00000000000000000000000000000000000000000000000000000000000000",
            "nonce": "0xd",
            "chainId": "0xa4b1"
          },
          "additionalContracts": [],
          "isFixedGasLimit": false
        },
        {
          "hash": null,
          "transactionType": "CALL",
          "contractName": null,
          "contractAddress": "0x30b8cf2aa67e1e13a096d8838cc942fbbd52778b",
          "function": "execTransaction(address,uint256,bytes,uint8,uint256,uint256,uint256,address,address,bytes)",
          "arguments": [
            "0x30B8Cf2AA67E1e13A096d8838cC942Fbbd52778b",
            "0",
            "0xf08a03230000000000000000000000000000000000000000000000000000000000000000",
            "0",
            "0",
            "0",
            "0",
            "0x0000000000000000000000000000000000000000",
            "0x0000000000000000000000000000000000000000",
            "0xa7dfbd34ec85a1821be417fd68c8e8303674d96b40c405ca755bcee75fc79d5565e4eda827e32dc0e08cd706b7f94578f1563694af971aefaddab63ca81fbd731c"
          ],
          "transaction": {
            "from": "0xfa28c7fbd5b4752dfebdf498d86677e50c2812fa",
            "to": "0x30b8cf2aa67e1e13a096d8838cc942fbbd52778b",
            "gas": "0x14402",
            "value": "0x0",
            "input": "0x6a76120200000000000000000000000030b8cf2aa67e1e13a096d8838cc942fbbd52778b0000000000000000000000000000000000000000000000000000000000000000000000000000000000000000000000000000000000000000000000000000014000000000000000000000000000000000000000000000000000000000000000000000000000000000000000000000000000000000000000000000000000000000000000000000000000000000000000000000000000000000000000000000000000000000000000000000000000000000000000000000000000000000000000000000000000000000000000000000000000000000000000000000000000000000000000000000000000000000000000000000000000000000000000000000000000000000000000000000000000000000000000000000000000000000000001a00000000000000000000000000000000000000000000000000000000000000024f08a03230000000000000000000000000000000000000000000000000000000000000000000000000000000000000000000000000000000000000000000000000000000000000000000000000000000000000000000000000000000000000041a7dfbd34ec85a1821be417fd68c8e8303674d96b40c405ca755bcee75fc79d5565e4eda827e32dc0e08cd706b7f94578f1563694af971aefaddab63ca81fbd731c00000000000000000000000000000000000000000000000000000000000000",
            "nonce": "0xe",
            "chainId": "0xa4b1"
          },
          "additionalContracts": [],
          "isFixedGasLimit": false
        },
        {
          "hash": null,
          "transactionType": "CALL",
          "contractName": null,
          "contractAddress": "0x30b8cf2aa67e1e13a096d8838cc942fbbd52778b",
          "function": "execTransaction(address,uint256,bytes,uint8,uint256,uint256,uint256,address,address,bytes)",
          "arguments": [
            "0x30B8Cf2AA67E1e13A096d8838cC942Fbbd52778b",
            "0",
            "0xe19a9dd9000000000000000000000000a3212332057c479937ea5efe4c92ece8d3a3100a",
            "0",
            "0",
            "0",
            "0",
            "0x0000000000000000000000000000000000000000",
            "0x0000000000000000000000000000000000000000",
            "0xa0a8fa991d9e9fffe1a68e703069d34286d93bb5feef76cc50a85e7495875970400afd1e659923d1a065ca3cd83e1bfd80b99f54f7e58f8859045c96e3c19a941c"
          ],
          "transaction": {
            "from": "0xfa28c7fbd5b4752dfebdf498d86677e50c2812fa",
            "to": "0x30b8cf2aa67e1e13a096d8838cc942fbbd52778b",
            "gas": "0x1dcbc",
            "value": "0x0",
            "input": "0x6a76120200000000000000000000000030b8cf2aa67e1e13a096d8838cc942fbbd52778b0000000000000000000000000000000000000000000000000000000000000000000000000000000000000000000000000000000000000000000000000000014000000000000000000000000000000000000000000000000000000000000000000000000000000000000000000000000000000000000000000000000000000000000000000000000000000000000000000000000000000000000000000000000000000000000000000000000000000000000000000000000000000000000000000000000000000000000000000000000000000000000000000000000000000000000000000000000000000000000000000000000000000000000000000000000000000000000000000000000000000000000000000000000000000000000001a00000000000000000000000000000000000000000000000000000000000000024e19a9dd9000000000000000000000000a3212332057c479937ea5efe4c92ece8d3a3100a000000000000000000000000000000000000000000000000000000000000000000000000000000000000000000000000000000000000000000000041a0a8fa991d9e9fffe1a68e703069d34286d93bb5feef76cc50a85e7495875970400afd1e659923d1a065ca3cd83e1bfd80b99f54f7e58f8859045c96e3c19a941c00000000000000000000000000000000000000000000000000000000000000",
            "nonce": "0xf",
            "chainId": "0xa4b1"
          },
          "additionalContracts": [],
          "isFixedGasLimit": false
        },
        {
          "hash": null,
          "transactionType": "CALL",
          "contractName": null,
          "contractAddress": "0x30b8cf2aa67e1e13a096d8838cc942fbbd52778b",
          "function": "execTransaction(address,uint256,bytes,uint8,uint256,uint256,uint256,address,address,bytes)",
          "arguments": [
            "0xa3212332057C479937EA5efE4c92EcE8d3a3100a",
            "0",
            "0x4313b9e50000000000000000000000000000000000000000000000000000000000000001",
            "0",
            "0",
            "0",
            "0",
            "0x0000000000000000000000000000000000000000",
            "0x0000000000000000000000000000000000000000",
            "0x3b9e6a238206615eb498cf87376b6b53ba7e67f1cf33525e4c04f845aa0955b31a556c82f37b51566f95ca3a60ac44f36a892807fe7273d7ab68d28a9664ead71b"
          ],
          "transaction": {
            "from": "0xfa28c7fbd5b4752dfebdf498d86677e50c2812fa",
            "to": "0x30b8cf2aa67e1e13a096d8838cc942fbbd52778b",
            "gas": "0x27a03",
            "value": "0x0",
            "input": "0x6a761202000000000000000000000000a3212332057c479937ea5efe4c92ece8d3a3100a0000000000000000000000000000000000000000000000000000000000000000000000000000000000000000000000000000000000000000000000000000014000000000000000000000000000000000000000000000000000000000000000000000000000000000000000000000000000000000000000000000000000000000000000000000000000000000000000000000000000000000000000000000000000000000000000000000000000000000000000000000000000000000000000000000000000000000000000000000000000000000000000000000000000000000000000000000000000000000000000000000000000000000000000000000000000000000000000000000000000000000000000000000000000000000000001a000000000000000000000000000000000000000000000000000000000000000244313b9e500000000000000000000000000000000000000000000000000000000000000010000000000000000000000000000000000000000000000000000000000000000000000000000000000000000000000000000000000000000000000413b9e6a238206615eb498cf87376b6b53ba7e67f1cf33525e4c04f845aa0955b31a556c82f37b51566f95ca3a60ac44f36a892807fe7273d7ab68d28a9664ead71b00000000000000000000000000000000000000000000000000000000000000",
            "nonce": "0x10",
            "chainId": "0xa4b1"
          },
          "additionalContracts": [],
          "isFixedGasLimit": false
        },
        {
          "hash": null,
          "transactionType": "CALL",
          "contractName": null,
          "contractAddress": "0x30b8cf2aa67e1e13a096d8838cc942fbbd52778b",
          "function": "execTransaction(address,uint256,bytes,uint8,uint256,uint256,uint256,address,address,bytes)",
          "arguments": [
            "0xa3212332057C479937EA5efE4c92EcE8d3a3100a",
            "0",
            "0x781d26d10000000000000000000000000000000000000000000000000000000000000002",
            "0",
            "0",
            "0",
            "0",
            "0x0000000000000000000000000000000000000000",
            "0x0000000000000000000000000000000000000000",
            "0xee87fd414f71bc6e310911aa6c0d92c8519f34517197f51f0b58a7025d604f5b7cc10b6f28d52e574913400c046b006e52c81fcb39a1d842722a9ebb33199f2d1b"
          ],
          "transaction": {
            "from": "0xfa28c7fbd5b4752dfebdf498d86677e50c2812fa",
            "to": "0x30b8cf2aa67e1e13a096d8838cc942fbbd52778b",
            "gas": "0x21d8f",
            "value": "0x0",
            "input": "0x6a761202000000000000000000000000a3212332057c479937ea5efe4c92ece8d3a3100a0000000000000000000000000000000000000000000000000000000000000000000000000000000000000000000000000000000000000000000000000000014000000000000000000000000000000000000000000000000000000000000000000000000000000000000000000000000000000000000000000000000000000000000000000000000000000000000000000000000000000000000000000000000000000000000000000000000000000000000000000000000000000000000000000000000000000000000000000000000000000000000000000000000000000000000000000000000000000000000000000000000000000000000000000000000000000000000000000000000000000000000000000000000000000000000001a00000000000000000000000000000000000000000000000000000000000000024781d26d10000000000000000000000000000000000000000000000000000000000000002000000000000000000000000000000000000000000000000000000000000000000000000000000000000000000000000000000000000000000000041ee87fd414f71bc6e310911aa6c0d92c8519f34517197f51f0b58a7025d604f5b7cc10b6f28d52e574913400c046b006e52c81fcb39a1d842722a9ebb33199f2d1b00000000000000000000000000000000000000000000000000000000000000",
            "nonce": "0x11",
            "chainId": "0xa4b1"
          },
          "additionalContracts": [],
          "isFixedGasLimit": false
        }
      ],
      "receipts": [
        {
          "status": "0x1",
          "cumulativeGasUsed": "0xad5b7",
          "logs": [
            {
              "address": "0x30b8cf2aa67e1e13a096d8838cc942fbbd52778b",
              "topics": [
                "0x66753cd2356569ee081232e3be8909b950e0a76c1f8460c3a5e3c2be32b11bed"
              ],
              "data": "0x000000000000000000000000a3212332057c479937ea5efe4c92ece8d3a3100a000000000000000000000000000000000000000000000000000000000000000000000000000000000000000000000000000000000000000000000000000001600000000000000000000000000000000000000000000000000000000000000000000000000000000000000000000000000000000000000000000000000000000000000000000000000000000000000000000000000000000000000000000000000000000000000000000000000000000000000000000000000000000000000000000000000000000000000000000000000000000000000000000000000000000000000000000000000000000000000000000000000000000000000000000000000000000000000000000000000000000000000000000000000000000000000380000000000000000000000000000000000000000000000000000000000000040000000000000000000000000000000000000000000000000000000000000001e4982dd3d3000000000000000000000000af88d065e77c8cc2239327c5edb3a432268e583100000000000000000000000000000000000000000000000000000000000000600000000000000000000000000000000000000000000000000000000000000120000000000000000000000000000000000000000000000000000000000000000100000000000000000000000000000000000000000000000000000000000000200000000000000000000000000000000000000000000000000000000000000044095ea7b300000000000000000000000068b3465833fb72a70ecdf485e0e4c7bd8665fc45000000000000000000000000000000000000000000000000000000000000000000000000000000000000000000000000000000000000000000000000000000000000000000000000000000000000000000000000000000000000000100000000000000000000000000000000000000000000000000000000000000200000000000000000000000000000000000000000000000000000000000000044ffffffff000000000000000000000000ffffffffffffffffffffffffffffffffffffffff00000000000000000000000000000000000000000000000000000000000000000000000000000000000000000000000000000000000000000000000000000000000000000000000000000000000000000000000000000000000000000000000000000000000000000000000000000000000000000000004136da22783ec66d8f5e74215441194e386d31345293b18ab98682e17d60c1771278ab1cf3f4fe86c21b80be54ac126999aac029227d31b2d4696a159a93cd13221c0000000000000000000000000000000000000000000000000000000000000000000000000000000000000000000000000000000000000000000000000000600000000000000000000000000000000000000000000000000000000000000005000000000000000000000000fa28c7fbd5b4752dfebdf498d86677e50c2812fa0000000000000000000000000000000000000000000000000000000000000001",
              "blockHash": "0x84be20830fe63b7f620b39b31b498f8b881d8683f4d87a2c00fc24bbcf7fe313",
              "blockNumber": "0x12331bfe",
              "transactionHash": "0x753544b18a1c935d314384ca4bfb1844d735456561d5d78a02233426bfe118f6",
              "transactionIndex": "0x1",
              "logIndex": "0x0",
              "removed": false
            },
            {
              "address": "0xa3212332057c479937ea5efe4c92ece8d3a3100a",
              "topics": [
                "0x9737a6ed65b2635eeb5c433d89fda29340f82bc8f269f2fbb303f324c81480e1",
                "0x00000000000000000000000030b8cf2aa67e1e13a096d8838cc942fbbd52778b",
                "0x000000000000000000000000af88d065e77c8cc2239327c5edb3a432268e5831"
              ],
              "data": "0x00000000000000000000000000000000000000000000000000000000000000400000000000000000000000000000000000000000000000000000000000000100000000000000000000000000000000000000000000000000000000000000000100000000000000000000000000000000000000000000000000000000000000200000000000000000000000000000000000000000000000000000000000000044095ea7b300000000000000000000000068b3465833fb72a70ecdf485e0e4c7bd8665fc45000000000000000000000000000000000000000000000000000000000000000000000000000000000000000000000000000000000000000000000000000000000000000000000000000000000000000000000000000000000000000100000000000000000000000000000000000000000000000000000000000000200000000000000000000000000000000000000000000000000000000000000044ffffffff000000000000000000000000ffffffffffffffffffffffffffffffffffffffff000000000000000000000000000000000000000000000000000000000000000000000000000000000000000000000000000000000000000000000000",
              "blockHash": "0x84be20830fe63b7f620b39b31b498f8b881d8683f4d87a2c00fc24bbcf7fe313",
              "blockNumber": "0x12331bfe",
              "transactionHash": "0x753544b18a1c935d314384ca4bfb1844d735456561d5d78a02233426bfe118f6",
              "transactionIndex": "0x1",
              "logIndex": "0x1",
              "removed": false
            },
            {
              "address": "0x30b8cf2aa67e1e13a096d8838cc942fbbd52778b",
              "topics": [
                "0x442e715f626346e8c54381002da614f62bee8d27386535b2521ec8540898556e",
                "0x3a0bc5c418991431f62d4f13744293f03ef7cfb3e3bae803efee06d7f1fd26d9"
              ],
              "data": "0x0000000000000000000000000000000000000000000000000000000000000000",
              "blockHash": "0x84be20830fe63b7f620b39b31b498f8b881d8683f4d87a2c00fc24bbcf7fe313",
              "blockNumber": "0x12331bfe",
              "transactionHash": "0x753544b18a1c935d314384ca4bfb1844d735456561d5d78a02233426bfe118f6",
              "transactionIndex": "0x1",
              "logIndex": "0x2",
              "removed": false
            }
          ],
          "logsBloom": "0x00000000400000000000000000002000000000000000000000000000040000000000000000000000100000000000000000000000000008000000000000080000000000000000000000000000000000000000050000000000000000000000000000000040000000000000000000000000000000000008000000000000000000000000000000000000000000000000000000000000000000000000000000000000000000000400004000000000000004000000000000000000000000000400000000004000000000000000000000020000110000000000000000000000000000000000000000000002200000000000100000008000002000000000000000000000",
          "type": "0x2",
          "transactionHash": "0x753544b18a1c935d314384ca4bfb1844d735456561d5d78a02233426bfe118f6",
          "transactionIndex": "0x1",
          "blockHash": "0x84be20830fe63b7f620b39b31b498f8b881d8683f4d87a2c00fc24bbcf7fe313",
          "blockNumber": "0x12331bfe",
          "gasUsed": "0xad5b7",
          "effectiveGasPrice": "0x989680",
          "from": "0xfa28c7fbd5b4752dfebdf498d86677e50c2812fa",
          "to": "0x30b8cf2aa67e1e13a096d8838cc942fbbd52778b",
          "contractAddress": null,
          "gasUsedForL1": "0x6d2e2",
          "l1BlockNumber": "0x14d1f2c"
        }
      ],
      "libraries": [],
      "pending": [],
      "returns": {},
      "timestamp": 1739376184,
      "chain": 42161,
      "commit": "279bca9"
    },
    {
      "transactions": [
        {
          "hash": null,
          "transactionType": "CALL",
          "contractName": null,
          "contractAddress": "0x30b8cf2aa67e1e13a096d8838cc942fbbd52778b",
          "function": "execTransaction(address,uint256,bytes,uint8,uint256,uint256,uint256,address,address,bytes)",
          "arguments": [
            "0xa3212332057C479937EA5efE4c92EcE8d3a3100a",
            "0",
            "0x982dd3d3000000000000000000000000765de816845861e75a25fca122bb6898b8b1282a00000000000000000000000000000000000000000000000000000000000000600000000000000000000000000000000000000000000000000000000000000120000000000000000000000000000000000000000000000000000000000000000100000000000000000000000000000000000000000000000000000000000000200000000000000000000000000000000000000000000000000000000000000044095ea7b30000000000000000000000005615cdab10dc425a742d643d949a7f474c01abc4000000000000000000000000000000000000000000000000000000000000000000000000000000000000000000000000000000000000000000000000000000000000000000000000000000000000000000000000000000000000000100000000000000000000000000000000000000000000000000000000000000200000000000000000000000000000000000000000000000000000000000000044ffffffff000000000000000000000000ffffffffffffffffffffffffffffffffffffffff000000000000000000000000000000000000000000000000000000000000000000000000000000000000000000000000000000000000000000000000",
            "0",
            "0",
            "0",
            "0",
            "0x0000000000000000000000000000000000000000",
            "0x0000000000000000000000000000000000000000",
            "0xaae3327d0b97e3db79809741ebca42e312e794fcb0a4212bd150ea9c806a55593916367ea958e4998d7ce7c7df529a3f65cb474a7e816d4e896a90246be08a6a1b"
          ],
          "transaction": {
            "from": "0xfa28c7fbd5b4752dfebdf498d86677e50c2812fa",
            "to": "0x30b8cf2aa67e1e13a096d8838cc942fbbd52778b",
            "gas": "0x58a4f",
            "value": "0x0",
            "input": "0x6a761202000000000000000000000000a3212332057c479937ea5efe4c92ece8d3a3100a00000000000000000000000000000000000000000000000000000000000000000000000000000000000000000000000000000000000000000000000000000140000000000000000000000000000000000000000000000000000000000000000000000000000000000000000000000000000000000000000000000000000000000000000000000000000000000000000000000000000000000000000000000000000000000000000000000000000000000000000000000000000000000000000000000000000000000000000000000000000000000000000000000000000000000000000000000000000000000000000000000000000000000000000000000000000000000000000000000000000000000000000000000000000000000000036000000000000000000000000000000000000000000000000000000000000001e4982dd3d3000000000000000000000000765de816845861e75a25fca122bb6898b8b1282a00000000000000000000000000000000000000000000000000000000000000600000000000000000000000000000000000000000000000000000000000000120000000000000000000000000000000000000000000000000000000000000000100000000000000000000000000000000000000000000000000000000000000200000000000000000000000000000000000000000000000000000000000000044095ea7b30000000000000000000000005615cdab10dc425a742d643d949a7f474c01abc4000000000000000000000000000000000000000000000000000000000000000000000000000000000000000000000000000000000000000000000000000000000000000000000000000000000000000000000000000000000000000100000000000000000000000000000000000000000000000000000000000000200000000000000000000000000000000000000000000000000000000000000044ffffffff000000000000000000000000ffffffffffffffffffffffffffffffffffffffff000000000000000000000000000000000000000000000000000000000000000000000000000000000000000000000000000000000000000000000000000000000000000000000000000000000000000000000000000000000000000000000000000000000000000000000000000000000000000000000041aae3327d0b97e3db79809741ebca42e312e794fcb0a4212bd150ea9c806a55593916367ea958e4998d7ce7c7df529a3f65cb474a7e816d4e896a90246be08a6a1b00000000000000000000000000000000000000000000000000000000000000",
            "nonce": "0xc",
            "chainId": "0xa4ec"
          },
          "additionalContracts": [],
          "isFixedGasLimit": false
        },
        {
          "hash": null,
          "transactionType": "CALL",
          "contractName": null,
          "contractAddress": "0x30b8cf2aa67e1e13a096d8838cc942fbbd52778b",
          "function": "execTransaction(address,uint256,bytes,uint8,uint256,uint256,uint256,address,address,bytes)",
          "arguments": [
            "0xa3212332057C479937EA5efE4c92EcE8d3a3100a",
            "0",
            "0x982dd3d3000000000000000000000000d8763cba276a3738e6de85b4b3bf5fded6d6ca7300000000000000000000000000000000000000000000000000000000000000600000000000000000000000000000000000000000000000000000000000000120000000000000000000000000000000000000000000000000000000000000000100000000000000000000000000000000000000000000000000000000000000200000000000000000000000000000000000000000000000000000000000000044095ea7b30000000000000000000000005615cdab10dc425a742d643d949a7f474c01abc4000000000000000000000000000000000000000000000000000000000000000000000000000000000000000000000000000000000000000000000000000000000000000000000000000000000000000000000000000000000000000100000000000000000000000000000000000000000000000000000000000000200000000000000000000000000000000000000000000000000000000000000044ffffffff000000000000000000000000ffffffffffffffffffffffffffffffffffffffff000000000000000000000000000000000000000000000000000000000000000000000000000000000000000000000000000000000000000000000000",
            "0",
            "0",
            "0",
            "0",
            "0x0000000000000000000000000000000000000000",
            "0x0000000000000000000000000000000000000000",
            "0x8b29e18fce771edbdc5b8d47421fc6b95bac8124b22183e7e57336163b45609213e0dc4f40b201fa2006182b22a7433bbbf0e203eb71bf54af11a9d38162a8d91c"
          ],
          "transaction": {
            "from": "0xfa28c7fbd5b4752dfebdf498d86677e50c2812fa",
            "to": "0x30b8cf2aa67e1e13a096d8838cc942fbbd52778b",
            "gas": "0x58a4f",
            "value": "0x0",
            "input": "0x6a761202000000000000000000000000a3212332057c479937ea5efe4c92ece8d3a3100a00000000000000000000000000000000000000000000000000000000000000000000000000000000000000000000000000000000000000000000000000000140000000000000000000000000000000000000000000000000000000000000000000000000000000000000000000000000000000000000000000000000000000000000000000000000000000000000000000000000000000000000000000000000000000000000000000000000000000000000000000000000000000000000000000000000000000000000000000000000000000000000000000000000000000000000000000000000000000000000000000000000000000000000000000000000000000000000000000000000000000000000000000000000000000000000036000000000000000000000000000000000000000000000000000000000000001e4982dd3d3000000000000000000000000d8763cba276a3738e6de85b4b3bf5fded6d6ca7300000000000000000000000000000000000000000000000000000000000000600000000000000000000000000000000000000000000000000000000000000120000000000000000000000000000000000000000000000000000000000000000100000000000000000000000000000000000000000000000000000000000000200000000000000000000000000000000000000000000000000000000000000044095ea7b30000000000000000000000005615cdab10dc425a742d643d949a7f474c01abc4000000000000000000000000000000000000000000000000000000000000000000000000000000000000000000000000000000000000000000000000000000000000000000000000000000000000000000000000000000000000000100000000000000000000000000000000000000000000000000000000000000200000000000000000000000000000000000000000000000000000000000000044ffffffff000000000000000000000000ffffffffffffffffffffffffffffffffffffffff0000000000000000000000000000000000000000000000000000000000000000000000000000000000000000000000000000000000000000000000000000000000000000000000000000000000000000000000000000000000000000000000000000000000000000000000000000000000000000000000418b29e18fce771edbdc5b8d47421fc6b95bac8124b22183e7e57336163b45609213e0dc4f40b201fa2006182b22a7433bbbf0e203eb71bf54af11a9d38162a8d91c00000000000000000000000000000000000000000000000000000000000000",
            "nonce": "0xd",
            "chainId": "0xa4ec"
          },
          "additionalContracts": [],
          "isFixedGasLimit": false
        },
        {
          "hash": null,
          "transactionType": "CALL",
          "contractName": null,
          "contractAddress": "0x30b8cf2aa67e1e13a096d8838cc942fbbd52778b",
          "function": "execTransaction(address,uint256,bytes,uint8,uint256,uint256,uint256,address,address,bytes)",
          "arguments": [
            "0xa3212332057C479937EA5efE4c92EcE8d3a3100a",
            "0",
            "0x982dd3d30000000000000000000000005615cdab10dc425a742d643d949a7f474c01abc4000000000000000000000000000000000000000000000000000000000000006000000000000000000000000000000000000000000000000000000000000005800000000000000000000000000000000000000000000000000000000000000004000000000000000000000000000000000000000000000000000000000000008000000000000000000000000000000000000000000000000000000000000001a000000000000000000000000000000000000000000000000000000000000002c000000000000000000000000000000000000000000000000000000000000003e000000000000000000000000000000000000000000000000000000000000000e404e45aaf000000000000000000000000765de816845861e75a25fca122bb6898b8b1282a000000000000000000000000765de816845861e75a25fca122bb6898b8b1282a000000000000000000000000000000000000000000000000000000000000000000000000000000000000000030b8cf2aa67e1e13a096d8838cc942fbbd52778b0000000000000000000000000000000000000000000000000000000000000000000000000000000000000000000000000000000000000000000000000000000000000000000000000000000000000000000000000000000000000000000000000000000000000000000000000000000000000000000000000000000000000000000000000000000000000000000000000000000000000000000000e404e45aaf000000000000000000000000765de816845861e75a25fca122bb6898b8b1282a000000000000000000000000d8763cba276a3738e6de85b4b3bf5fded6d6ca73000000000000000000000000000000000000000000000000000000000000000000000000000000000000000030b8cf2aa67e1e13a096d8838cc942fbbd52778b0000000000000000000000000000000000000000000000000000000000000000000000000000000000000000000000000000000000000000000000000000000000000000000000000000000000000000000000000000000000000000000000000000000000000000000000000000000000000000000000000000000000000000000000000000000000000000000000000000000000000000000000e404e45aaf000000000000000000000000d8763cba276a3738e6de85b4b3bf5fded6d6ca73000000000000000000000000765de816845861e75a25fca122bb6898b8b1282a000000000000000000000000000000000000000000000000000000000000000000000000000000000000000030b8cf2aa67e1e13a096d8838cc942fbbd52778b0000000000000000000000000000000000000000000000000000000000000000000000000000000000000000000000000000000000000000000000000000000000000000000000000000000000000000000000000000000000000000000000000000000000000000000000000000000000000000000000000000000000000000000000000000000000000000000000000000000000000000000000e404e45aaf000000000000000000000000d8763cba276a3738e6de85b4b3bf5fded6d6ca73000000000000000000000000d8763cba276a3738e6de85b4b3bf5fded6d6ca73000000000000000000000000000000000000000000000000000000000000000000000000000000000000000030b8cf2aa67e1e13a096d8838cc942fbbd52778b000000000000000000000000000000000000000000000000000000000000000000000000000000000000000000000000000000000000000000000000000000000000000000000000000000000000000000000000000000000000000000000000000000000000000000000000000000000000000000000000000000000000000000000000000000000000000000000000000000000000000000000004000000000000000000000000000000000000000000000000000000000000008000000000000000000000000000000000000000000000000000000000000001a000000000000000000000000000000000000000000000000000000000000002c000000000000000000000000000000000000000000000000000000000000003e000000000000000000000000000000000000000000000000000000000000000e4ffffffff000000000000000000000000ffffffffffffffffffffffffffffffffffffffff000000000000000000000000ffffffffffffffffffffffffffffffffffffffff0000000000000000000000000000000000000000000000000000000000000000000000000000000000000000ffffffffffffffffffffffffffffffffffffffff0000000000000000000000000000000000000000000000000000000000000000000000000000000000000000000000000000000000000000000000000000000000000000000000000000000000000000000000000000000000000000000000000000000000000000000000000000000000000000000000000000000000000000000000000000000000000000000000000000000000000000000000e4ffffffff000000000000000000000000ffffffffffffffffffffffffffffffffffffffff000000000000000000000000ffffffffffffffffffffffffffffffffffffffff0000000000000000000000000000000000000000000000000000000000000000000000000000000000000000ffffffffffffffffffffffffffffffffffffffff0000000000000000000000000000000000000000000000000000000000000000000000000000000000000000000000000000000000000000000000000000000000000000000000000000000000000000000000000000000000000000000000000000000000000000000000000000000000000000000000000000000000000000000000000000000000000000000000000000000000000000000000e4ffffffff000000000000000000000000ffffffffffffffffffffffffffffffffffffffff000000000000000000000000ffffffffffffffffffffffffffffffffffffffff0000000000000000000000000000000000000000000000000000000000000000000000000000000000000000ffffffffffffffffffffffffffffffffffffffff0000000000000000000000000000000000000000000000000000000000000000000000000000000000000000000000000000000000000000000000000000000000000000000000000000000000000000000000000000000000000000000000000000000000000000000000000000000000000000000000000000000000000000000000000000000000000000000000000000000000000000000000e4ffffffff000000000000000000000000ffffffffffffffffffffffffffffffffffffffff000000000000000000000000ffffffffffffffffffffffffffffffffffffffff0000000000000000000000000000000000000000000000000000000000000000000000000000000000000000ffffffffffffffffffffffffffffffffffffffff00000000000000000000000000000000000000000000000000000000000000000000000000000000000000000000000000000000000000000000000000000000000000000000000000000000000000000000000000000000000000000000000000000000000000000000000000000000000000000000000000000000",
            "0",
            "0",
            "0",
            "0",
            "0x0000000000000000000000000000000000000000",
            "0x0000000000000000000000000000000000000000",
            "0x044e1c34e5f5c5dd40d9f98a2ae5f35731771ea09e925370d1b2e24b844a8d8a2b8005e406345440ad98388f33b137900d3d23410319dedef10b379c4657e00b1b"
          ],
          "transaction": {
            "from": "0xfa28c7fbd5b4752dfebdf498d86677e50c2812fa",
            "to": "0x30b8cf2aa67e1e13a096d8838cc942fbbd52778b",
            "gas": "0x1bdf6e",
            "value": "0x0",
            "input": "0x6a761202000000000000000000000000a3212332057c479937ea5efe4c92ece8d3a3100a000000000000000000000000000000000000000000000000000000000000000000000000000000000000000000000000000000000000000000000000000001400000000000000000000000000000000000000000000000000000000000000000000000000000000000000000000000000000000000000000000000000000000000000000000000000000000000000000000000000000000000000000000000000000000000000000000000000000000000000000000000000000000000000000000000000000000000000000000000000000000000000000000000000000000000000000000000000000000000000000000000000000000000000000000000000000000000000000000000000000000000000000000000000000000000000c200000000000000000000000000000000000000000000000000000000000000aa4982dd3d30000000000000000000000005615cdab10dc425a742d643d949a7f474c01abc4000000000000000000000000000000000000000000000000000000000000006000000000000000000000000000000000000000000000000000000000000005800000000000000000000000000000000000000000000000000000000000000004000000000000000000000000000000000000000000000000000000000000008000000000000000000000000000000000000000000000000000000000000001a000000000000000000000000000000000000000000000000000000000000002c000000000000000000000000000000000000000000000000000000000000003e000000000000000000000000000000000000000000000000000000000000000e404e45aaf000000000000000000000000765de816845861e75a25fca122bb6898b8b1282a000000000000000000000000765de816845861e75a25fca122bb6898b8b1282a000000000000000000000000000000000000000000000000000000000000000000000000000000000000000030b8cf2aa67e1e13a096d8838cc942fbbd52778b0000000000000000000000000000000000000000000000000000000000000000000000000000000000000000000000000000000000000000000000000000000000000000000000000000000000000000000000000000000000000000000000000000000000000000000000000000000000000000000000000000000000000000000000000000000000000000000000000000000000000000000000e404e45aaf000000000000000000000000765de816845861e75a25fca122bb6898b8b1282a000000000000000000000000d8763cba276a3738e6de85b4b3bf5fded6d6ca73000000000000000000000000000000000000000000000000000000000000000000000000000000000000000030b8cf2aa67e1e13a096d8838cc942fbbd52778b0000000000000000000000000000000000000000000000000000000000000000000000000000000000000000000000000000000000000000000000000000000000000000000000000000000000000000000000000000000000000000000000000000000000000000000000000000000000000000000000000000000000000000000000000000000000000000000000000000000000000000000000e404e45aaf000000000000000000000000d8763cba276a3738e6de85b4b3bf5fded6d6ca73000000000000000000000000765de816845861e75a25fca122bb6898b8b1282a000000000000000000000000000000000000000000000000000000000000000000000000000000000000000030b8cf2aa67e1e13a096d8838cc942fbbd52778b0000000000000000000000000000000000000000000000000000000000000000000000000000000000000000000000000000000000000000000000000000000000000000000000000000000000000000000000000000000000000000000000000000000000000000000000000000000000000000000000000000000000000000000000000000000000000000000000000000000000000000000000e404e45aaf000000000000000000000000d8763cba276a3738e6de85b4b3bf5fded6d6ca73000000000000000000000000d8763cba276a3738e6de85b4b3bf5fded6d6ca73000000000000000000000000000000000000000000000000000000000000000000000000000000000000000030b8cf2aa67e1e13a096d8838cc942fbbd52778b000000000000000000000000000000000000000000000000000000000000000000000000000000000000000000000000000000000000000000000000000000000000000000000000000000000000000000000000000000000000000000000000000000000000000000000000000000000000000000000000000000000000000000000000000000000000000000000000000000000000000000000004000000000000000000000000000000000000000000000000000000000000008000000000000000000000000000000000000000000000000000000000000001a000000000000000000000000000000000000000000000000000000000000002c000000000000000000000000000000000000000000000000000000000000003e000000000000000000000000000000000000000000000000000000000000000e4ffffffff000000000000000000000000ffffffffffffffffffffffffffffffffffffffff000000000000000000000000ffffffffffffffffffffffffffffffffffffffff0000000000000000000000000000000000000000000000000000000000000000000000000000000000000000ffffffffffffffffffffffffffffffffffffffff0000000000000000000000000000000000000000000000000000000000000000000000000000000000000000000000000000000000000000000000000000000000000000000000000000000000000000000000000000000000000000000000000000000000000000000000000000000000000000000000000000000000000000000000000000000000000000000000000000000000000000000000e4ffffffff000000000000000000000000ffffffffffffffffffffffffffffffffffffffff000000000000000000000000ffffffffffffffffffffffffffffffffffffffff0000000000000000000000000000000000000000000000000000000000000000000000000000000000000000ffffffffffffffffffffffffffffffffffffffff0000000000000000000000000000000000000000000000000000000000000000000000000000000000000000000000000000000000000000000000000000000000000000000000000000000000000000000000000000000000000000000000000000000000000000000000000000000000000000000000000000000000000000000000000000000000000000000000000000000000000000000000e4ffffffff000000000000000000000000ffffffffffffffffffffffffffffffffffffffff000000000000000000000000ffffffffffffffffffffffffffffffffffffffff0000000000000000000000000000000000000000000000000000000000000000000000000000000000000000ffffffffffffffffffffffffffffffffffffffff0000000000000000000000000000000000000000000000000000000000000000000000000000000000000000000000000000000000000000000000000000000000000000000000000000000000000000000000000000000000000000000000000000000000000000000000000000000000000000000000000000000000000000000000000000000000000000000000000000000000000000000000e4ffffffff000000000000000000000000ffffffffffffffffffffffffffffffffffffffff000000000000000000000000ffffffffffffffffffffffffffffffffffffffff0000000000000000000000000000000000000000000000000000000000000000000000000000000000000000ffffffffffffffffffffffffffffffffffffffff00000000000000000000000000000000000000000000000000000000000000000000000000000000000000000000000000000000000000000000000000000000000000000000000000000000000000000000000000000000000000000000000000000000000000000000000000000000000000000000000000000000000000000000000000000000000000000000000000000000000000000000000000000000000000000000000000000000000000000000000000000041044e1c34e5f5c5dd40d9f98a2ae5f35731771ea09e925370d1b2e24b844a8d8a2b8005e406345440ad98388f33b137900d3d23410319dedef10b379c4657e00b1b00000000000000000000000000000000000000000000000000000000000000",
            "nonce": "0xe",
            "chainId": "0xa4ec"
          },
          "additionalContracts": [],
          "isFixedGasLimit": false
        },
        {
          "hash": null,
          "transactionType": "CALL",
          "contractName": null,
          "contractAddress": "0x30b8cf2aa67e1e13a096d8838cc942fbbd52778b",
          "function": "execTransaction(address,uint256,bytes,uint8,uint256,uint256,uint256,address,address,bytes)",
          "arguments": [
            "0x30B8Cf2AA67E1e13A096d8838cC942Fbbd52778b",
            "0",
            "0xf08a03230000000000000000000000000000000000000000000000000000000000000000",
            "0",
            "0",
            "0",
            "0",
            "0x0000000000000000000000000000000000000000",
            "0x0000000000000000000000000000000000000000",
            "0x29e7cb969e9d515cf45f660cdb735c8c027e328d8a1621f620249a4e744b840732a69e4ce707c9a07b743a52aa2221c3c722d459a1a694f9122b75805bf10b951c"
          ],
          "transaction": {
            "from": "0xfa28c7fbd5b4752dfebdf498d86677e50c2812fa",
            "to": "0x30b8cf2aa67e1e13a096d8838cc942fbbd52778b",
            "gas": "0x14402",
            "value": "0x0",
            "input": "0x6a76120200000000000000000000000030b8cf2aa67e1e13a096d8838cc942fbbd52778b0000000000000000000000000000000000000000000000000000000000000000000000000000000000000000000000000000000000000000000000000000014000000000000000000000000000000000000000000000000000000000000000000000000000000000000000000000000000000000000000000000000000000000000000000000000000000000000000000000000000000000000000000000000000000000000000000000000000000000000000000000000000000000000000000000000000000000000000000000000000000000000000000000000000000000000000000000000000000000000000000000000000000000000000000000000000000000000000000000000000000000000000000000000000000000000001a00000000000000000000000000000000000000000000000000000000000000024f08a0323000000000000000000000000000000000000000000000000000000000000000000000000000000000000000000000000000000000000000000000000000000000000000000000000000000000000000000000000000000000000004129e7cb969e9d515cf45f660cdb735c8c027e328d8a1621f620249a4e744b840732a69e4ce707c9a07b743a52aa2221c3c722d459a1a694f9122b75805bf10b951c00000000000000000000000000000000000000000000000000000000000000",
            "nonce": "0xf",
            "chainId": "0xa4ec"
          },
          "additionalContracts": [],
          "isFixedGasLimit": false
        },
        {
          "hash": null,
          "transactionType": "CALL",
          "contractName": null,
          "contractAddress": "0x30b8cf2aa67e1e13a096d8838cc942fbbd52778b",
          "function": "execTransaction(address,uint256,bytes,uint8,uint256,uint256,uint256,address,address,bytes)",
          "arguments": [
            "0x30B8Cf2AA67E1e13A096d8838cC942Fbbd52778b",
            "0",
            "0xe19a9dd9000000000000000000000000a3212332057c479937ea5efe4c92ece8d3a3100a",
            "0",
            "0",
            "0",
            "0",
            "0x0000000000000000000000000000000000000000",
            "0x0000000000000000000000000000000000000000",
            "0x887f1968d6a45b8da5616e9797af2d125a1601dc716691a8a1554b3c6ce1d7697f879f9d13e025689d350c15c838fea62cd8b17ef31a2d3feb81cf7200511a251b"
          ],
          "transaction": {
            "from": "0xfa28c7fbd5b4752dfebdf498d86677e50c2812fa",
            "to": "0x30b8cf2aa67e1e13a096d8838cc942fbbd52778b",
            "gas": "0x1c22e",
            "value": "0x0",
            "input": "0x6a76120200000000000000000000000030b8cf2aa67e1e13a096d8838cc942fbbd52778b0000000000000000000000000000000000000000000000000000000000000000000000000000000000000000000000000000000000000000000000000000014000000000000000000000000000000000000000000000000000000000000000000000000000000000000000000000000000000000000000000000000000000000000000000000000000000000000000000000000000000000000000000000000000000000000000000000000000000000000000000000000000000000000000000000000000000000000000000000000000000000000000000000000000000000000000000000000000000000000000000000000000000000000000000000000000000000000000000000000000000000000000000000000000000000000001a00000000000000000000000000000000000000000000000000000000000000024e19a9dd9000000000000000000000000a3212332057c479937ea5efe4c92ece8d3a3100a000000000000000000000000000000000000000000000000000000000000000000000000000000000000000000000000000000000000000000000041887f1968d6a45b8da5616e9797af2d125a1601dc716691a8a1554b3c6ce1d7697f879f9d13e025689d350c15c838fea62cd8b17ef31a2d3feb81cf7200511a251b00000000000000000000000000000000000000000000000000000000000000",
            "nonce": "0x10",
            "chainId": "0xa4ec"
          },
          "additionalContracts": [],
          "isFixedGasLimit": false
        },
        {
          "hash": null,
          "transactionType": "CALL",
          "contractName": null,
          "contractAddress": "0x30b8cf2aa67e1e13a096d8838cc942fbbd52778b",
          "function": "execTransaction(address,uint256,bytes,uint8,uint256,uint256,uint256,address,address,bytes)",
          "arguments": [
            "0xa3212332057C479937EA5efE4c92EcE8d3a3100a",
            "0",
            "0x4313b9e50000000000000000000000000000000000000000000000000000000000000001",
            "0",
            "0",
            "0",
            "0",
            "0x0000000000000000000000000000000000000000",
            "0x0000000000000000000000000000000000000000",
            "0xe7b57393f41fa41d6f2b1801e35f12c7c1acea9f2f69f7939cee78d5f68157340e99b89305b23abd66f0ef7e2465f7d5b97f789237d0c233e44fe871cde33ab01c"
          ],
          "transaction": {
            "from": "0xfa28c7fbd5b4752dfebdf498d86677e50c2812fa",
            "to": "0x30b8cf2aa67e1e13a096d8838cc942fbbd52778b",
            "gas": "0x27a03",
            "value": "0x0",
            "input": "0x6a761202000000000000000000000000a3212332057c479937ea5efe4c92ece8d3a3100a0000000000000000000000000000000000000000000000000000000000000000000000000000000000000000000000000000000000000000000000000000014000000000000000000000000000000000000000000000000000000000000000000000000000000000000000000000000000000000000000000000000000000000000000000000000000000000000000000000000000000000000000000000000000000000000000000000000000000000000000000000000000000000000000000000000000000000000000000000000000000000000000000000000000000000000000000000000000000000000000000000000000000000000000000000000000000000000000000000000000000000000000000000000000000000000001a000000000000000000000000000000000000000000000000000000000000000244313b9e50000000000000000000000000000000000000000000000000000000000000001000000000000000000000000000000000000000000000000000000000000000000000000000000000000000000000000000000000000000000000041e7b57393f41fa41d6f2b1801e35f12c7c1acea9f2f69f7939cee78d5f68157340e99b89305b23abd66f0ef7e2465f7d5b97f789237d0c233e44fe871cde33ab01c00000000000000000000000000000000000000000000000000000000000000",
            "nonce": "0x11",
            "chainId": "0xa4ec"
          },
          "additionalContracts": [],
          "isFixedGasLimit": false
        },
        {
          "hash": null,
          "transactionType": "CALL",
          "contractName": null,
          "contractAddress": "0x30b8cf2aa67e1e13a096d8838cc942fbbd52778b",
          "function": "execTransaction(address,uint256,bytes,uint8,uint256,uint256,uint256,address,address,bytes)",
          "arguments": [
            "0xa3212332057C479937EA5efE4c92EcE8d3a3100a",
            "0",
            "0x781d26d10000000000000000000000000000000000000000000000000000000000000002",
            "0",
            "0",
            "0",
            "0",
            "0x0000000000000000000000000000000000000000",
            "0x0000000000000000000000000000000000000000",
            "0x931bc0fe261ea907d7f1e5fc3d0abd3a963a52c9661280a24191cccf00a997994bf7606218a5513391342d7d6a465ca9368cef28afbf4e634130460a2d1246671b"
          ],
          "transaction": {
            "from": "0xfa28c7fbd5b4752dfebdf498d86677e50c2812fa",
            "to": "0x30b8cf2aa67e1e13a096d8838cc942fbbd52778b",
            "gas": "0x21d8f",
            "value": "0x0",
            "input": "0x6a761202000000000000000000000000a3212332057c479937ea5efe4c92ece8d3a3100a0000000000000000000000000000000000000000000000000000000000000000000000000000000000000000000000000000000000000000000000000000014000000000000000000000000000000000000000000000000000000000000000000000000000000000000000000000000000000000000000000000000000000000000000000000000000000000000000000000000000000000000000000000000000000000000000000000000000000000000000000000000000000000000000000000000000000000000000000000000000000000000000000000000000000000000000000000000000000000000000000000000000000000000000000000000000000000000000000000000000000000000000000000000000000000000001a00000000000000000000000000000000000000000000000000000000000000024781d26d10000000000000000000000000000000000000000000000000000000000000002000000000000000000000000000000000000000000000000000000000000000000000000000000000000000000000000000000000000000000000041931bc0fe261ea907d7f1e5fc3d0abd3a963a52c9661280a24191cccf00a997994bf7606218a5513391342d7d6a465ca9368cef28afbf4e634130460a2d1246671b00000000000000000000000000000000000000000000000000000000000000",
            "nonce": "0x12",
            "chainId": "0xa4ec"
          },
          "additionalContracts": [],
          "isFixedGasLimit": false
        }
      ],
      "receipts": [],
      "libraries": [],
      "pending": [],
      "returns": {},
      "timestamp": 1739376185,
      "chain": 42220,
      "commit": "279bca9"
    },
    {
      "transactions": [
        {
          "hash": null,
          "transactionType": "CALL",
          "contractName": null,
          "contractAddress": "0x30b8cf2aa67e1e13a096d8838cc942fbbd52778b",
          "function": "execTransaction(address,uint256,bytes,uint8,uint256,uint256,uint256,address,address,bytes)",
          "arguments": [
            "0xa3212332057C479937EA5efE4c92EcE8d3a3100a",
            "0",
            "0x982dd3d3000000000000000000000000176211869ca2b568f2a7d4ee941e073a821ee1ff00000000000000000000000000000000000000000000000000000000000000600000000000000000000000000000000000000000000000000000000000000120000000000000000000000000000000000000000000000000000000000000000100000000000000000000000000000000000000000000000000000000000000200000000000000000000000000000000000000000000000000000000000000044095ea7b30000000000000000000000003d4e44eb1374240ce5f1b871ab261cd16335b76a000000000000000000000000000000000000000000000000000000000000000000000000000000000000000000000000000000000000000000000000000000000000000000000000000000000000000000000000000000000000000100000000000000000000000000000000000000000000000000000000000000200000000000000000000000000000000000000000000000000000000000000044ffffffff000000000000000000000000ffffffffffffffffffffffffffffffffffffffff000000000000000000000000000000000000000000000000000000000000000000000000000000000000000000000000000000000000000000000000",
            "0",
            "0",
            "0",
            "0",
            "0x0000000000000000000000000000000000000000",
            "0x0000000000000000000000000000000000000000",
            "0x84362f8ed0eaf855f55c03426f5c7d9ae45cf23eda9b0de1fec9aa57991dcce55755eb482afb5786e98a0c0230eb6cec9b132c9675047ab5d2864060a2145d851b"
          ],
          "transaction": {
            "from": "0xfa28c7fbd5b4752dfebdf498d86677e50c2812fa",
            "to": "0x30b8cf2aa67e1e13a096d8838cc942fbbd52778b",
            "gas": "0x58a4f",
            "value": "0x0",
            "input": "0x6a761202000000000000000000000000a3212332057c479937ea5efe4c92ece8d3a3100a00000000000000000000000000000000000000000000000000000000000000000000000000000000000000000000000000000000000000000000000000000140000000000000000000000000000000000000000000000000000000000000000000000000000000000000000000000000000000000000000000000000000000000000000000000000000000000000000000000000000000000000000000000000000000000000000000000000000000000000000000000000000000000000000000000000000000000000000000000000000000000000000000000000000000000000000000000000000000000000000000000000000000000000000000000000000000000000000000000000000000000000000000000000000000000000036000000000000000000000000000000000000000000000000000000000000001e4982dd3d3000000000000000000000000176211869ca2b568f2a7d4ee941e073a821ee1ff00000000000000000000000000000000000000000000000000000000000000600000000000000000000000000000000000000000000000000000000000000120000000000000000000000000000000000000000000000000000000000000000100000000000000000000000000000000000000000000000000000000000000200000000000000000000000000000000000000000000000000000000000000044095ea7b30000000000000000000000003d4e44eb1374240ce5f1b871ab261cd16335b76a000000000000000000000000000000000000000000000000000000000000000000000000000000000000000000000000000000000000000000000000000000000000000000000000000000000000000000000000000000000000000100000000000000000000000000000000000000000000000000000000000000200000000000000000000000000000000000000000000000000000000000000044ffffffff000000000000000000000000ffffffffffffffffffffffffffffffffffffffff00000000000000000000000000000000000000000000000000000000000000000000000000000000000000000000000000000000000000000000000000000000000000000000000000000000000000000000000000000000000000000000000000000000000000000000000000000000000000000000004184362f8ed0eaf855f55c03426f5c7d9ae45cf23eda9b0de1fec9aa57991dcce55755eb482afb5786e98a0c0230eb6cec9b132c9675047ab5d2864060a2145d851b00000000000000000000000000000000000000000000000000000000000000",
            "nonce": "0xa",
            "chainId": "0xe708"
          },
          "additionalContracts": [],
          "isFixedGasLimit": false
        },
        {
          "hash": null,
          "transactionType": "CALL",
          "contractName": null,
          "contractAddress": "0x30b8cf2aa67e1e13a096d8838cc942fbbd52778b",
          "function": "execTransaction(address,uint256,bytes,uint8,uint256,uint256,uint256,address,address,bytes)",
          "arguments": [
            "0xa3212332057C479937EA5efE4c92EcE8d3a3100a",
            "0",
            "0x982dd3d3000000000000000000000000e5d7c2a44ffddf6b295a15c148167daaaf5cf34f00000000000000000000000000000000000000000000000000000000000000600000000000000000000000000000000000000000000000000000000000000120000000000000000000000000000000000000000000000000000000000000000100000000000000000000000000000000000000000000000000000000000000200000000000000000000000000000000000000000000000000000000000000044095ea7b30000000000000000000000003d4e44eb1374240ce5f1b871ab261cd16335b76a000000000000000000000000000000000000000000000000000000000000000000000000000000000000000000000000000000000000000000000000000000000000000000000000000000000000000000000000000000000000000100000000000000000000000000000000000000000000000000000000000000200000000000000000000000000000000000000000000000000000000000000044ffffffff000000000000000000000000ffffffffffffffffffffffffffffffffffffffff000000000000000000000000000000000000000000000000000000000000000000000000000000000000000000000000000000000000000000000000",
            "0",
            "0",
            "0",
            "0",
            "0x0000000000000000000000000000000000000000",
            "0x0000000000000000000000000000000000000000",
            "0x3ae7f324dd5e6fc15bbe4c683d836376f93ca70eeacd4e7755ad1bc5a91ac0d337fbed9e4f9bd48d4d4350b595a0b9c9e5006d6d9319f82aed7911dca74f5ed91b"
          ],
          "transaction": {
            "from": "0xfa28c7fbd5b4752dfebdf498d86677e50c2812fa",
            "to": "0x30b8cf2aa67e1e13a096d8838cc942fbbd52778b",
            "gas": "0x5ddac",
            "value": "0x0",
            "input": "0x6a761202000000000000000000000000a3212332057c479937ea5efe4c92ece8d3a3100a00000000000000000000000000000000000000000000000000000000000000000000000000000000000000000000000000000000000000000000000000000140000000000000000000000000000000000000000000000000000000000000000000000000000000000000000000000000000000000000000000000000000000000000000000000000000000000000000000000000000000000000000000000000000000000000000000000000000000000000000000000000000000000000000000000000000000000000000000000000000000000000000000000000000000000000000000000000000000000000000000000000000000000000000000000000000000000000000000000000000000000000000000000000000000000000036000000000000000000000000000000000000000000000000000000000000001e4982dd3d3000000000000000000000000e5d7c2a44ffddf6b295a15c148167daaaf5cf34f00000000000000000000000000000000000000000000000000000000000000600000000000000000000000000000000000000000000000000000000000000120000000000000000000000000000000000000000000000000000000000000000100000000000000000000000000000000000000000000000000000000000000200000000000000000000000000000000000000000000000000000000000000044095ea7b30000000000000000000000003d4e44eb1374240ce5f1b871ab261cd16335b76a000000000000000000000000000000000000000000000000000000000000000000000000000000000000000000000000000000000000000000000000000000000000000000000000000000000000000000000000000000000000000100000000000000000000000000000000000000000000000000000000000000200000000000000000000000000000000000000000000000000000000000000044ffffffff000000000000000000000000ffffffffffffffffffffffffffffffffffffffff0000000000000000000000000000000000000000000000000000000000000000000000000000000000000000000000000000000000000000000000000000000000000000000000000000000000000000000000000000000000000000000000000000000000000000000000000000000000000000000000413ae7f324dd5e6fc15bbe4c683d836376f93ca70eeacd4e7755ad1bc5a91ac0d337fbed9e4f9bd48d4d4350b595a0b9c9e5006d6d9319f82aed7911dca74f5ed91b00000000000000000000000000000000000000000000000000000000000000",
            "nonce": "0xb",
            "chainId": "0xe708"
          },
          "additionalContracts": [],
          "isFixedGasLimit": false
        },
        {
          "hash": null,
          "transactionType": "CALL",
          "contractName": null,
          "contractAddress": "0x30b8cf2aa67e1e13a096d8838cc942fbbd52778b",
          "function": "execTransaction(address,uint256,bytes,uint8,uint256,uint256,uint256,address,address,bytes)",
          "arguments": [
            "0xa3212332057C479937EA5efE4c92EcE8d3a3100a",
            "0",
            "0x982dd3d30000000000000000000000003d4e44eb1374240ce5f1b871ab261cd16335b76a000000000000000000000000000000000000000000000000000000000000006000000000000000000000000000000000000000000000000000000000000005800000000000000000000000000000000000000000000000000000000000000004000000000000000000000000000000000000000000000000000000000000008000000000000000000000000000000000000000000000000000000000000001a000000000000000000000000000000000000000000000000000000000000002c000000000000000000000000000000000000000000000000000000000000003e000000000000000000000000000000000000000000000000000000000000000e404e45aaf000000000000000000000000176211869ca2b568f2a7d4ee941e073a821ee1ff000000000000000000000000176211869ca2b568f2a7d4ee941e073a821ee1ff000000000000000000000000000000000000000000000000000000000000000000000000000000000000000030b8cf2aa67e1e13a096d8838cc942fbbd52778b0000000000000000000000000000000000000000000000000000000000000000000000000000000000000000000000000000000000000000000000000000000000000000000000000000000000000000000000000000000000000000000000000000000000000000000000000000000000000000000000000000000000000000000000000000000000000000000000000000000000000000000000e404e45aaf000000000000000000000000176211869ca2b568f2a7d4ee941e073a821ee1ff000000000000000000000000e5d7c2a44ffddf6b295a15c148167daaaf5cf34f000000000000000000000000000000000000000000000000000000000000000000000000000000000000000030b8cf2aa67e1e13a096d8838cc942fbbd52778b0000000000000000000000000000000000000000000000000000000000000000000000000000000000000000000000000000000000000000000000000000000000000000000000000000000000000000000000000000000000000000000000000000000000000000000000000000000000000000000000000000000000000000000000000000000000000000000000000000000000000000000000e404e45aaf000000000000000000000000e5d7c2a44ffddf6b295a15c148167daaaf5cf34f000000000000000000000000176211869ca2b568f2a7d4ee941e073a821ee1ff000000000000000000000000000000000000000000000000000000000000000000000000000000000000000030b8cf2aa67e1e13a096d8838cc942fbbd52778b0000000000000000000000000000000000000000000000000000000000000000000000000000000000000000000000000000000000000000000000000000000000000000000000000000000000000000000000000000000000000000000000000000000000000000000000000000000000000000000000000000000000000000000000000000000000000000000000000000000000000000000000e404e45aaf000000000000000000000000e5d7c2a44ffddf6b295a15c148167daaaf5cf34f000000000000000000000000e5d7c2a44ffddf6b295a15c148167daaaf5cf34f000000000000000000000000000000000000000000000000000000000000000000000000000000000000000030b8cf2aa67e1e13a096d8838cc942fbbd52778b000000000000000000000000000000000000000000000000000000000000000000000000000000000000000000000000000000000000000000000000000000000000000000000000000000000000000000000000000000000000000000000000000000000000000000000000000000000000000000000000000000000000000000000000000000000000000000000000000000000000000000000004000000000000000000000000000000000000000000000000000000000000008000000000000000000000000000000000000000000000000000000000000001a000000000000000000000000000000000000000000000000000000000000002c000000000000000000000000000000000000000000000000000000000000003e000000000000000000000000000000000000000000000000000000000000000e4ffffffff000000000000000000000000ffffffffffffffffffffffffffffffffffffffff000000000000000000000000ffffffffffffffffffffffffffffffffffffffff0000000000000000000000000000000000000000000000000000000000000000000000000000000000000000ffffffffffffffffffffffffffffffffffffffff0000000000000000000000000000000000000000000000000000000000000000000000000000000000000000000000000000000000000000000000000000000000000000000000000000000000000000000000000000000000000000000000000000000000000000000000000000000000000000000000000000000000000000000000000000000000000000000000000000000000000000000000e4ffffffff000000000000000000000000ffffffffffffffffffffffffffffffffffffffff000000000000000000000000ffffffffffffffffffffffffffffffffffffffff0000000000000000000000000000000000000000000000000000000000000000000000000000000000000000ffffffffffffffffffffffffffffffffffffffff0000000000000000000000000000000000000000000000000000000000000000000000000000000000000000000000000000000000000000000000000000000000000000000000000000000000000000000000000000000000000000000000000000000000000000000000000000000000000000000000000000000000000000000000000000000000000000000000000000000000000000000000e4ffffffff000000000000000000000000ffffffffffffffffffffffffffffffffffffffff000000000000000000000000ffffffffffffffffffffffffffffffffffffffff0000000000000000000000000000000000000000000000000000000000000000000000000000000000000000ffffffffffffffffffffffffffffffffffffffff0000000000000000000000000000000000000000000000000000000000000000000000000000000000000000000000000000000000000000000000000000000000000000000000000000000000000000000000000000000000000000000000000000000000000000000000000000000000000000000000000000000000000000000000000000000000000000000000000000000000000000000000e4ffffffff000000000000000000000000ffffffffffffffffffffffffffffffffffffffff000000000000000000000000ffffffffffffffffffffffffffffffffffffffff0000000000000000000000000000000000000000000000000000000000000000000000000000000000000000ffffffffffffffffffffffffffffffffffffffff00000000000000000000000000000000000000000000000000000000000000000000000000000000000000000000000000000000000000000000000000000000000000000000000000000000000000000000000000000000000000000000000000000000000000000000000000000000000000000000000000000000",
            "0",
            "0",
            "0",
            "0",
            "0x0000000000000000000000000000000000000000",
            "0x0000000000000000000000000000000000000000",
            "0x16497321e301d7cf12c443298a4bb431a71a4b1525c808206a39b7815d97a2f6159c39630b31f5848290d5e22c0abbd6181a8f04b54be0fc5f8ad7d8effaeb6e1c"
          ],
          "transaction": {
            "from": "0xfa28c7fbd5b4752dfebdf498d86677e50c2812fa",
            "to": "0x30b8cf2aa67e1e13a096d8838cc942fbbd52778b",
            "gas": "0x1bdf6e",
            "value": "0x0",
            "input": "0x6a761202000000000000000000000000a3212332057c479937ea5efe4c92ece8d3a3100a000000000000000000000000000000000000000000000000000000000000000000000000000000000000000000000000000000000000000000000000000001400000000000000000000000000000000000000000000000000000000000000000000000000000000000000000000000000000000000000000000000000000000000000000000000000000000000000000000000000000000000000000000000000000000000000000000000000000000000000000000000000000000000000000000000000000000000000000000000000000000000000000000000000000000000000000000000000000000000000000000000000000000000000000000000000000000000000000000000000000000000000000000000000000000000000c200000000000000000000000000000000000000000000000000000000000000aa4982dd3d30000000000000000000000003d4e44eb1374240ce5f1b871ab261cd16335b76a000000000000000000000000000000000000000000000000000000000000006000000000000000000000000000000000000000000000000000000000000005800000000000000000000000000000000000000000000000000000000000000004000000000000000000000000000000000000000000000000000000000000008000000000000000000000000000000000000000000000000000000000000001a000000000000000000000000000000000000000000000000000000000000002c000000000000000000000000000000000000000000000000000000000000003e000000000000000000000000000000000000000000000000000000000000000e404e45aaf000000000000000000000000176211869ca2b568f2a7d4ee941e073a821ee1ff000000000000000000000000176211869ca2b568f2a7d4ee941e073a821ee1ff000000000000000000000000000000000000000000000000000000000000000000000000000000000000000030b8cf2aa67e1e13a096d8838cc942fbbd52778b0000000000000000000000000000000000000000000000000000000000000000000000000000000000000000000000000000000000000000000000000000000000000000000000000000000000000000000000000000000000000000000000000000000000000000000000000000000000000000000000000000000000000000000000000000000000000000000000000000000000000000000000e404e45aaf000000000000000000000000176211869ca2b568f2a7d4ee941e073a821ee1ff000000000000000000000000e5d7c2a44ffddf6b295a15c148167daaaf5cf34f000000000000000000000000000000000000000000000000000000000000000000000000000000000000000030b8cf2aa67e1e13a096d8838cc942fbbd52778b0000000000000000000000000000000000000000000000000000000000000000000000000000000000000000000000000000000000000000000000000000000000000000000000000000000000000000000000000000000000000000000000000000000000000000000000000000000000000000000000000000000000000000000000000000000000000000000000000000000000000000000000e404e45aaf000000000000000000000000e5d7c2a44ffddf6b295a15c148167daaaf5cf34f000000000000000000000000176211869ca2b568f2a7d4ee941e073a821ee1ff000000000000000000000000000000000000000000000000000000000000000000000000000000000000000030b8cf2aa67e1e13a096d8838cc942fbbd52778b0000000000000000000000000000000000000000000000000000000000000000000000000000000000000000000000000000000000000000000000000000000000000000000000000000000000000000000000000000000000000000000000000000000000000000000000000000000000000000000000000000000000000000000000000000000000000000000000000000000000000000000000e404e45aaf000000000000000000000000e5d7c2a44ffddf6b295a15c148167daaaf5cf34f000000000000000000000000e5d7c2a44ffddf6b295a15c148167daaaf5cf34f000000000000000000000000000000000000000000000000000000000000000000000000000000000000000030b8cf2aa67e1e13a096d8838cc942fbbd52778b000000000000000000000000000000000000000000000000000000000000000000000000000000000000000000000000000000000000000000000000000000000000000000000000000000000000000000000000000000000000000000000000000000000000000000000000000000000000000000000000000000000000000000000000000000000000000000000000000000000000000000000004000000000000000000000000000000000000000000000000000000000000008000000000000000000000000000000000000000000000000000000000000001a000000000000000000000000000000000000000000000000000000000000002c000000000000000000000000000000000000000000000000000000000000003e000000000000000000000000000000000000000000000000000000000000000e4ffffffff000000000000000000000000ffffffffffffffffffffffffffffffffffffffff000000000000000000000000ffffffffffffffffffffffffffffffffffffffff0000000000000000000000000000000000000000000000000000000000000000000000000000000000000000ffffffffffffffffffffffffffffffffffffffff0000000000000000000000000000000000000000000000000000000000000000000000000000000000000000000000000000000000000000000000000000000000000000000000000000000000000000000000000000000000000000000000000000000000000000000000000000000000000000000000000000000000000000000000000000000000000000000000000000000000000000000000e4ffffffff000000000000000000000000ffffffffffffffffffffffffffffffffffffffff000000000000000000000000ffffffffffffffffffffffffffffffffffffffff0000000000000000000000000000000000000000000000000000000000000000000000000000000000000000ffffffffffffffffffffffffffffffffffffffff0000000000000000000000000000000000000000000000000000000000000000000000000000000000000000000000000000000000000000000000000000000000000000000000000000000000000000000000000000000000000000000000000000000000000000000000000000000000000000000000000000000000000000000000000000000000000000000000000000000000000000000000e4ffffffff000000000000000000000000ffffffffffffffffffffffffffffffffffffffff000000000000000000000000ffffffffffffffffffffffffffffffffffffffff0000000000000000000000000000000000000000000000000000000000000000000000000000000000000000ffffffffffffffffffffffffffffffffffffffff0000000000000000000000000000000000000000000000000000000000000000000000000000000000000000000000000000000000000000000000000000000000000000000000000000000000000000000000000000000000000000000000000000000000000000000000000000000000000000000000000000000000000000000000000000000000000000000000000000000000000000000000e4ffffffff000000000000000000000000ffffffffffffffffffffffffffffffffffffffff000000000000000000000000ffffffffffffffffffffffffffffffffffffffff0000000000000000000000000000000000000000000000000000000000000000000000000000000000000000ffffffffffffffffffffffffffffffffffffffff0000000000000000000000000000000000000000000000000000000000000000000000000000000000000000000000000000000000000000000000000000000000000000000000000000000000000000000000000000000000000000000000000000000000000000000000000000000000000000000000000000000000000000000000000000000000000000000000000000000000000000000000000000000000000000000000000000000000000000000000000000004116497321e301d7cf12c443298a4bb431a71a4b1525c808206a39b7815d97a2f6159c39630b31f5848290d5e22c0abbd6181a8f04b54be0fc5f8ad7d8effaeb6e1c00000000000000000000000000000000000000000000000000000000000000",
            "nonce": "0xc",
            "chainId": "0xe708"
          },
          "additionalContracts": [],
          "isFixedGasLimit": false
        },
        {
          "hash": null,
          "transactionType": "CALL",
          "contractName": null,
          "contractAddress": "0x30b8cf2aa67e1e13a096d8838cc942fbbd52778b",
          "function": "execTransaction(address,uint256,bytes,uint8,uint256,uint256,uint256,address,address,bytes)",
          "arguments": [
            "0x30B8Cf2AA67E1e13A096d8838cC942Fbbd52778b",
            "0",
            "0xf08a03230000000000000000000000000000000000000000000000000000000000000000",
            "0",
            "0",
            "0",
            "0",
            "0x0000000000000000000000000000000000000000",
            "0x0000000000000000000000000000000000000000",
            "0x188bb0532be71a34841f5404f779c5bf2731364687def0e924f7c6ef66930b38428772a5ce52b06153881b5159413bf7dd69e735026530ba121a3744f6de85561c"
          ],
          "transaction": {
            "from": "0xfa28c7fbd5b4752dfebdf498d86677e50c2812fa",
            "to": "0x30b8cf2aa67e1e13a096d8838cc942fbbd52778b",
            "gas": "0x14402",
            "value": "0x0",
            "input": "0x6a76120200000000000000000000000030b8cf2aa67e1e13a096d8838cc942fbbd52778b0000000000000000000000000000000000000000000000000000000000000000000000000000000000000000000000000000000000000000000000000000014000000000000000000000000000000000000000000000000000000000000000000000000000000000000000000000000000000000000000000000000000000000000000000000000000000000000000000000000000000000000000000000000000000000000000000000000000000000000000000000000000000000000000000000000000000000000000000000000000000000000000000000000000000000000000000000000000000000000000000000000000000000000000000000000000000000000000000000000000000000000000000000000000000000000001a00000000000000000000000000000000000000000000000000000000000000024f08a03230000000000000000000000000000000000000000000000000000000000000000000000000000000000000000000000000000000000000000000000000000000000000000000000000000000000000000000000000000000000000041188bb0532be71a34841f5404f779c5bf2731364687def0e924f7c6ef66930b38428772a5ce52b06153881b5159413bf7dd69e735026530ba121a3744f6de85561c00000000000000000000000000000000000000000000000000000000000000",
            "nonce": "0xd",
            "chainId": "0xe708"
          },
          "additionalContracts": [],
          "isFixedGasLimit": false
        },
        {
          "hash": null,
          "transactionType": "CALL",
          "contractName": null,
          "contractAddress": "0x30b8cf2aa67e1e13a096d8838cc942fbbd52778b",
          "function": "execTransaction(address,uint256,bytes,uint8,uint256,uint256,uint256,address,address,bytes)",
          "arguments": [
            "0x30B8Cf2AA67E1e13A096d8838cC942Fbbd52778b",
            "0",
            "0xe19a9dd9000000000000000000000000a3212332057c479937ea5efe4c92ece8d3a3100a",
            "0",
            "0",
            "0",
            "0",
            "0x0000000000000000000000000000000000000000",
            "0x0000000000000000000000000000000000000000",
            "0xcef9feb2df8a46e61396394eac6b7e21e3f5899ec8aee33b233c690e7a2e793f2b43076d44c56ccf79d77cd5e88880389cf9528f96e1dcd2614825d6cd2ec98d1c"
          ],
          "transaction": {
            "from": "0xfa28c7fbd5b4752dfebdf498d86677e50c2812fa",
            "to": "0x30b8cf2aa67e1e13a096d8838cc942fbbd52778b",
            "gas": "0x1dcbc",
            "value": "0x0",
            "input": "0x6a76120200000000000000000000000030b8cf2aa67e1e13a096d8838cc942fbbd52778b0000000000000000000000000000000000000000000000000000000000000000000000000000000000000000000000000000000000000000000000000000014000000000000000000000000000000000000000000000000000000000000000000000000000000000000000000000000000000000000000000000000000000000000000000000000000000000000000000000000000000000000000000000000000000000000000000000000000000000000000000000000000000000000000000000000000000000000000000000000000000000000000000000000000000000000000000000000000000000000000000000000000000000000000000000000000000000000000000000000000000000000000000000000000000000000001a00000000000000000000000000000000000000000000000000000000000000024e19a9dd9000000000000000000000000a3212332057c479937ea5efe4c92ece8d3a3100a000000000000000000000000000000000000000000000000000000000000000000000000000000000000000000000000000000000000000000000041cef9feb2df8a46e61396394eac6b7e21e3f5899ec8aee33b233c690e7a2e793f2b43076d44c56ccf79d77cd5e88880389cf9528f96e1dcd2614825d6cd2ec98d1c00000000000000000000000000000000000000000000000000000000000000",
            "nonce": "0xe",
            "chainId": "0xe708"
          },
          "additionalContracts": [],
          "isFixedGasLimit": false
        },
        {
          "hash": null,
          "transactionType": "CALL",
          "contractName": null,
          "contractAddress": "0x30b8cf2aa67e1e13a096d8838cc942fbbd52778b",
          "function": "execTransaction(address,uint256,bytes,uint8,uint256,uint256,uint256,address,address,bytes)",
          "arguments": [
            "0xa3212332057C479937EA5efE4c92EcE8d3a3100a",
            "0",
            "0x4313b9e50000000000000000000000000000000000000000000000000000000000000001",
            "0",
            "0",
            "0",
            "0",
            "0x0000000000000000000000000000000000000000",
            "0x0000000000000000000000000000000000000000",
            "0x174c522f7add6e3fab45d38b35fb9720b4e8e7b1a4197b27e15c1420892687b242e4d5a4a8428b88b924e713a6f1e788da21774da813249461db2303205737351c"
          ],
          "transaction": {
            "from": "0xfa28c7fbd5b4752dfebdf498d86677e50c2812fa",
            "to": "0x30b8cf2aa67e1e13a096d8838cc942fbbd52778b",
            "gas": "0x27a03",
            "value": "0x0",
            "input": "0x6a761202000000000000000000000000a3212332057c479937ea5efe4c92ece8d3a3100a0000000000000000000000000000000000000000000000000000000000000000000000000000000000000000000000000000000000000000000000000000014000000000000000000000000000000000000000000000000000000000000000000000000000000000000000000000000000000000000000000000000000000000000000000000000000000000000000000000000000000000000000000000000000000000000000000000000000000000000000000000000000000000000000000000000000000000000000000000000000000000000000000000000000000000000000000000000000000000000000000000000000000000000000000000000000000000000000000000000000000000000000000000000000000000000001a000000000000000000000000000000000000000000000000000000000000000244313b9e50000000000000000000000000000000000000000000000000000000000000001000000000000000000000000000000000000000000000000000000000000000000000000000000000000000000000000000000000000000000000041174c522f7add6e3fab45d38b35fb9720b4e8e7b1a4197b27e15c1420892687b242e4d5a4a8428b88b924e713a6f1e788da21774da813249461db2303205737351c00000000000000000000000000000000000000000000000000000000000000",
            "nonce": "0xf",
            "chainId": "0xe708"
          },
          "additionalContracts": [],
          "isFixedGasLimit": false
        },
        {
          "hash": null,
          "transactionType": "CALL",
          "contractName": null,
          "contractAddress": "0x30b8cf2aa67e1e13a096d8838cc942fbbd52778b",
          "function": "execTransaction(address,uint256,bytes,uint8,uint256,uint256,uint256,address,address,bytes)",
          "arguments": [
            "0xa3212332057C479937EA5efE4c92EcE8d3a3100a",
            "0",
            "0x781d26d10000000000000000000000000000000000000000000000000000000000000002",
            "0",
            "0",
            "0",
            "0",
            "0x0000000000000000000000000000000000000000",
            "0x0000000000000000000000000000000000000000",
            "0x453159c257d7c83cc85e1f1aeb4f1e7dca3841034370d883a85e33b7dd57e89e5bcb84207042981473c70edf10f786d65b366102685f81d02e23c99673d3ea8c1b"
          ],
          "transaction": {
            "from": "0xfa28c7fbd5b4752dfebdf498d86677e50c2812fa",
            "to": "0x30b8cf2aa67e1e13a096d8838cc942fbbd52778b",
            "gas": "0x23d7c",
            "value": "0x0",
            "input": "0x6a761202000000000000000000000000a3212332057c479937ea5efe4c92ece8d3a3100a0000000000000000000000000000000000000000000000000000000000000000000000000000000000000000000000000000000000000000000000000000014000000000000000000000000000000000000000000000000000000000000000000000000000000000000000000000000000000000000000000000000000000000000000000000000000000000000000000000000000000000000000000000000000000000000000000000000000000000000000000000000000000000000000000000000000000000000000000000000000000000000000000000000000000000000000000000000000000000000000000000000000000000000000000000000000000000000000000000000000000000000000000000000000000000000001a00000000000000000000000000000000000000000000000000000000000000024781d26d10000000000000000000000000000000000000000000000000000000000000002000000000000000000000000000000000000000000000000000000000000000000000000000000000000000000000000000000000000000000000041453159c257d7c83cc85e1f1aeb4f1e7dca3841034370d883a85e33b7dd57e89e5bcb84207042981473c70edf10f786d65b366102685f81d02e23c99673d3ea8c1b00000000000000000000000000000000000000000000000000000000000000",
            "nonce": "0x10",
            "chainId": "0xe708"
          },
          "additionalContracts": [],
          "isFixedGasLimit": false
        }
      ],
      "receipts": [],
      "libraries": [],
      "pending": [],
      "returns": {},
      "timestamp": 1739376186,
      "chain": 59144,
      "commit": "279bca9"
    },
    {
      "transactions": [
        {
          "hash": null,
          "transactionType": "CALL",
          "contractName": null,
          "contractAddress": "0x30b8cf2aa67e1e13a096d8838cc942fbbd52778b",
          "function": "execTransaction(address,uint256,bytes,uint8,uint256,uint256,uint256,address,address,bytes)",
          "arguments": [
            "0xa3212332057C479937EA5efE4c92EcE8d3a3100a",
            "0",
            "0x982dd3d3000000000000000000000000b97ef9ef8734c71904d8002f8b6bc66dd9c48a6e00000000000000000000000000000000000000000000000000000000000000600000000000000000000000000000000000000000000000000000000000000120000000000000000000000000000000000000000000000000000000000000000100000000000000000000000000000000000000000000000000000000000000200000000000000000000000000000000000000000000000000000000000000044095ea7b3000000000000000000000000bb00ff08d01d300023c629e8ffffcb65a5a578ce000000000000000000000000000000000000000000000000000000000000000000000000000000000000000000000000000000000000000000000000000000000000000000000000000000000000000000000000000000000000000100000000000000000000000000000000000000000000000000000000000000200000000000000000000000000000000000000000000000000000000000000044ffffffff000000000000000000000000ffffffffffffffffffffffffffffffffffffffff000000000000000000000000000000000000000000000000000000000000000000000000000000000000000000000000000000000000000000000000",
            "0",
            "0",
            "0",
            "0",
            "0x0000000000000000000000000000000000000000",
            "0x0000000000000000000000000000000000000000",
            "0xee4a24c290a4834b8374c92c8eb29f93c912367f8010112609b897fda9ee4ecc3154c054193380da4f648cbde8d3719267cab715da4b037e84c339318309e9c71b"
          ],
          "transaction": {
            "from": "0xfa28c7fbd5b4752dfebdf498d86677e50c2812fa",
            "to": "0x30b8cf2aa67e1e13a096d8838cc942fbbd52778b",
            "gas": "0x5dd89",
            "value": "0x0",
            "input": "0x6a761202000000000000000000000000a3212332057c479937ea5efe4c92ece8d3a3100a00000000000000000000000000000000000000000000000000000000000000000000000000000000000000000000000000000000000000000000000000000140000000000000000000000000000000000000000000000000000000000000000000000000000000000000000000000000000000000000000000000000000000000000000000000000000000000000000000000000000000000000000000000000000000000000000000000000000000000000000000000000000000000000000000000000000000000000000000000000000000000000000000000000000000000000000000000000000000000000000000000000000000000000000000000000000000000000000000000000000000000000000000000000000000000000036000000000000000000000000000000000000000000000000000000000000001e4982dd3d3000000000000000000000000b97ef9ef8734c71904d8002f8b6bc66dd9c48a6e00000000000000000000000000000000000000000000000000000000000000600000000000000000000000000000000000000000000000000000000000000120000000000000000000000000000000000000000000000000000000000000000100000000000000000000000000000000000000000000000000000000000000200000000000000000000000000000000000000000000000000000000000000044095ea7b3000000000000000000000000bb00ff08d01d300023c629e8ffffcb65a5a578ce000000000000000000000000000000000000000000000000000000000000000000000000000000000000000000000000000000000000000000000000000000000000000000000000000000000000000000000000000000000000000100000000000000000000000000000000000000000000000000000000000000200000000000000000000000000000000000000000000000000000000000000044ffffffff000000000000000000000000ffffffffffffffffffffffffffffffffffffffff000000000000000000000000000000000000000000000000000000000000000000000000000000000000000000000000000000000000000000000000000000000000000000000000000000000000000000000000000000000000000000000000000000000000000000000000000000000000000000000041ee4a24c290a4834b8374c92c8eb29f93c912367f8010112609b897fda9ee4ecc3154c054193380da4f648cbde8d3719267cab715da4b037e84c339318309e9c71b00000000000000000000000000000000000000000000000000000000000000",
            "nonce": "0x7",
            "chainId": "0xa86a"
          },
          "additionalContracts": [],
          "isFixedGasLimit": false
        },
        {
          "hash": null,
          "transactionType": "CALL",
          "contractName": null,
          "contractAddress": "0x30b8cf2aa67e1e13a096d8838cc942fbbd52778b",
          "function": "execTransaction(address,uint256,bytes,uint8,uint256,uint256,uint256,address,address,bytes)",
          "arguments": [
            "0xa3212332057C479937EA5efE4c92EcE8d3a3100a",
            "0",
            "0x982dd3d3000000000000000000000000b31f66aa3c1e785363f0875a1b74e27b85fd66c700000000000000000000000000000000000000000000000000000000000000600000000000000000000000000000000000000000000000000000000000000120000000000000000000000000000000000000000000000000000000000000000100000000000000000000000000000000000000000000000000000000000000200000000000000000000000000000000000000000000000000000000000000044095ea7b3000000000000000000000000bb00ff08d01d300023c629e8ffffcb65a5a578ce000000000000000000000000000000000000000000000000000000000000000000000000000000000000000000000000000000000000000000000000000000000000000000000000000000000000000000000000000000000000000100000000000000000000000000000000000000000000000000000000000000200000000000000000000000000000000000000000000000000000000000000044ffffffff000000000000000000000000ffffffffffffffffffffffffffffffffffffffff000000000000000000000000000000000000000000000000000000000000000000000000000000000000000000000000000000000000000000000000",
            "0",
            "0",
            "0",
            "0",
            "0x0000000000000000000000000000000000000000",
            "0x0000000000000000000000000000000000000000",
            "0x36bdce55740b01e7cb15f584f521f4ddb34aefabd61363ecee4bb675a6cd6b46578dd7a70bca380d2b56ab80403c2513b2819bd4ab09ab4705e57e65cfdd4c041c"
          ],
          "transaction": {
            "from": "0xfa28c7fbd5b4752dfebdf498d86677e50c2812fa",
            "to": "0x30b8cf2aa67e1e13a096d8838cc942fbbd52778b",
            "gas": "0x58a2d",
            "value": "0x0",
            "input": "0x6a761202000000000000000000000000a3212332057c479937ea5efe4c92ece8d3a3100a00000000000000000000000000000000000000000000000000000000000000000000000000000000000000000000000000000000000000000000000000000140000000000000000000000000000000000000000000000000000000000000000000000000000000000000000000000000000000000000000000000000000000000000000000000000000000000000000000000000000000000000000000000000000000000000000000000000000000000000000000000000000000000000000000000000000000000000000000000000000000000000000000000000000000000000000000000000000000000000000000000000000000000000000000000000000000000000000000000000000000000000000000000000000000000000036000000000000000000000000000000000000000000000000000000000000001e4982dd3d3000000000000000000000000b31f66aa3c1e785363f0875a1b74e27b85fd66c700000000000000000000000000000000000000000000000000000000000000600000000000000000000000000000000000000000000000000000000000000120000000000000000000000000000000000000000000000000000000000000000100000000000000000000000000000000000000000000000000000000000000200000000000000000000000000000000000000000000000000000000000000044095ea7b3000000000000000000000000bb00ff08d01d300023c629e8ffffcb65a5a578ce000000000000000000000000000000000000000000000000000000000000000000000000000000000000000000000000000000000000000000000000000000000000000000000000000000000000000000000000000000000000000100000000000000000000000000000000000000000000000000000000000000200000000000000000000000000000000000000000000000000000000000000044ffffffff000000000000000000000000ffffffffffffffffffffffffffffffffffffffff00000000000000000000000000000000000000000000000000000000000000000000000000000000000000000000000000000000000000000000000000000000000000000000000000000000000000000000000000000000000000000000000000000000000000000000000000000000000000000000004136bdce55740b01e7cb15f584f521f4ddb34aefabd61363ecee4bb675a6cd6b46578dd7a70bca380d2b56ab80403c2513b2819bd4ab09ab4705e57e65cfdd4c041c00000000000000000000000000000000000000000000000000000000000000",
            "nonce": "0x8",
            "chainId": "0xa86a"
          },
          "additionalContracts": [],
          "isFixedGasLimit": false
        },
        {
          "hash": null,
          "transactionType": "CALL",
          "contractName": null,
          "contractAddress": "0x30b8cf2aa67e1e13a096d8838cc942fbbd52778b",
          "function": "execTransaction(address,uint256,bytes,uint8,uint256,uint256,uint256,address,address,bytes)",
          "arguments": [
            "0xa3212332057C479937EA5efE4c92EcE8d3a3100a",
            "0",
            "0x982dd3d3000000000000000000000000bb00ff08d01d300023c629e8ffffcb65a5a578ce000000000000000000000000000000000000000000000000000000000000006000000000000000000000000000000000000000000000000000000000000005800000000000000000000000000000000000000000000000000000000000000004000000000000000000000000000000000000000000000000000000000000008000000000000000000000000000000000000000000000000000000000000001a000000000000000000000000000000000000000000000000000000000000002c000000000000000000000000000000000000000000000000000000000000003e000000000000000000000000000000000000000000000000000000000000000e404e45aaf000000000000000000000000b97ef9ef8734c71904d8002f8b6bc66dd9c48a6e000000000000000000000000b97ef9ef8734c71904d8002f8b6bc66dd9c48a6e000000000000000000000000000000000000000000000000000000000000000000000000000000000000000030b8cf2aa67e1e13a096d8838cc942fbbd52778b0000000000000000000000000000000000000000000000000000000000000000000000000000000000000000000000000000000000000000000000000000000000000000000000000000000000000000000000000000000000000000000000000000000000000000000000000000000000000000000000000000000000000000000000000000000000000000000000000000000000000000000000e404e45aaf000000000000000000000000b97ef9ef8734c71904d8002f8b6bc66dd9c48a6e000000000000000000000000b31f66aa3c1e785363f0875a1b74e27b85fd66c7000000000000000000000000000000000000000000000000000000000000000000000000000000000000000030b8cf2aa67e1e13a096d8838cc942fbbd52778b0000000000000000000000000000000000000000000000000000000000000000000000000000000000000000000000000000000000000000000000000000000000000000000000000000000000000000000000000000000000000000000000000000000000000000000000000000000000000000000000000000000000000000000000000000000000000000000000000000000000000000000000e404e45aaf000000000000000000000000b31f66aa3c1e785363f0875a1b74e27b85fd66c7000000000000000000000000b97ef9ef8734c71904d8002f8b6bc66dd9c48a6e000000000000000000000000000000000000000000000000000000000000000000000000000000000000000030b8cf2aa67e1e13a096d8838cc942fbbd52778b0000000000000000000000000000000000000000000000000000000000000000000000000000000000000000000000000000000000000000000000000000000000000000000000000000000000000000000000000000000000000000000000000000000000000000000000000000000000000000000000000000000000000000000000000000000000000000000000000000000000000000000000e404e45aaf000000000000000000000000b31f66aa3c1e785363f0875a1b74e27b85fd66c7000000000000000000000000b31f66aa3c1e785363f0875a1b74e27b85fd66c7000000000000000000000000000000000000000000000000000000000000000000000000000000000000000030b8cf2aa67e1e13a096d8838cc942fbbd52778b000000000000000000000000000000000000000000000000000000000000000000000000000000000000000000000000000000000000000000000000000000000000000000000000000000000000000000000000000000000000000000000000000000000000000000000000000000000000000000000000000000000000000000000000000000000000000000000000000000000000000000000004000000000000000000000000000000000000000000000000000000000000008000000000000000000000000000000000000000000000000000000000000001a000000000000000000000000000000000000000000000000000000000000002c000000000000000000000000000000000000000000000000000000000000003e000000000000000000000000000000000000000000000000000000000000000e4ffffffff000000000000000000000000ffffffffffffffffffffffffffffffffffffffff000000000000000000000000ffffffffffffffffffffffffffffffffffffffff0000000000000000000000000000000000000000000000000000000000000000000000000000000000000000ffffffffffffffffffffffffffffffffffffffff0000000000000000000000000000000000000000000000000000000000000000000000000000000000000000000000000000000000000000000000000000000000000000000000000000000000000000000000000000000000000000000000000000000000000000000000000000000000000000000000000000000000000000000000000000000000000000000000000000000000000000000000e4ffffffff000000000000000000000000ffffffffffffffffffffffffffffffffffffffff000000000000000000000000ffffffffffffffffffffffffffffffffffffffff0000000000000000000000000000000000000000000000000000000000000000000000000000000000000000ffffffffffffffffffffffffffffffffffffffff0000000000000000000000000000000000000000000000000000000000000000000000000000000000000000000000000000000000000000000000000000000000000000000000000000000000000000000000000000000000000000000000000000000000000000000000000000000000000000000000000000000000000000000000000000000000000000000000000000000000000000000000e4ffffffff000000000000000000000000ffffffffffffffffffffffffffffffffffffffff000000000000000000000000ffffffffffffffffffffffffffffffffffffffff0000000000000000000000000000000000000000000000000000000000000000000000000000000000000000ffffffffffffffffffffffffffffffffffffffff0000000000000000000000000000000000000000000000000000000000000000000000000000000000000000000000000000000000000000000000000000000000000000000000000000000000000000000000000000000000000000000000000000000000000000000000000000000000000000000000000000000000000000000000000000000000000000000000000000000000000000000000e4ffffffff000000000000000000000000ffffffffffffffffffffffffffffffffffffffff000000000000000000000000ffffffffffffffffffffffffffffffffffffffff0000000000000000000000000000000000000000000000000000000000000000000000000000000000000000ffffffffffffffffffffffffffffffffffffffff00000000000000000000000000000000000000000000000000000000000000000000000000000000000000000000000000000000000000000000000000000000000000000000000000000000000000000000000000000000000000000000000000000000000000000000000000000000000000000000000000000000",
            "0",
            "0",
            "0",
            "0",
            "0x0000000000000000000000000000000000000000",
            "0x0000000000000000000000000000000000000000",
            "0xf450f43aa6d08815e93d585d9195565da99a5f9cf4b7f6d4991863be29dffc712c7e4a5194edc37c12db8e99d910040f8a6599ce5689ba20d06de28133b5e8fc1b"
          ],
          "transaction": {
            "from": "0xfa28c7fbd5b4752dfebdf498d86677e50c2812fa",
            "to": "0x30b8cf2aa67e1e13a096d8838cc942fbbd52778b",
            "gas": "0x1bdf0b",
            "value": "0x0",
            "input": "0x6a761202000000000000000000000000a3212332057c479937ea5efe4c92ece8d3a3100a000000000000000000000000000000000000000000000000000000000000000000000000000000000000000000000000000000000000000000000000000001400000000000000000000000000000000000000000000000000000000000000000000000000000000000000000000000000000000000000000000000000000000000000000000000000000000000000000000000000000000000000000000000000000000000000000000000000000000000000000000000000000000000000000000000000000000000000000000000000000000000000000000000000000000000000000000000000000000000000000000000000000000000000000000000000000000000000000000000000000000000000000000000000000000000000c200000000000000000000000000000000000000000000000000000000000000aa4982dd3d3000000000000000000000000bb00ff08d01d300023c629e8ffffcb65a5a578ce000000000000000000000000000000000000000000000000000000000000006000000000000000000000000000000000000000000000000000000000000005800000000000000000000000000000000000000000000000000000000000000004000000000000000000000000000000000000000000000000000000000000008000000000000000000000000000000000000000000000000000000000000001a000000000000000000000000000000000000000000000000000000000000002c000000000000000000000000000000000000000000000000000000000000003e000000000000000000000000000000000000000000000000000000000000000e404e45aaf000000000000000000000000b97ef9ef8734c71904d8002f8b6bc66dd9c48a6e000000000000000000000000b97ef9ef8734c71904d8002f8b6bc66dd9c48a6e000000000000000000000000000000000000000000000000000000000000000000000000000000000000000030b8cf2aa67e1e13a096d8838cc942fbbd52778b0000000000000000000000000000000000000000000000000000000000000000000000000000000000000000000000000000000000000000000000000000000000000000000000000000000000000000000000000000000000000000000000000000000000000000000000000000000000000000000000000000000000000000000000000000000000000000000000000000000000000000000000e404e45aaf000000000000000000000000b97ef9ef8734c71904d8002f8b6bc66dd9c48a6e000000000000000000000000b31f66aa3c1e785363f0875a1b74e27b85fd66c7000000000000000000000000000000000000000000000000000000000000000000000000000000000000000030b8cf2aa67e1e13a096d8838cc942fbbd52778b0000000000000000000000000000000000000000000000000000000000000000000000000000000000000000000000000000000000000000000000000000000000000000000000000000000000000000000000000000000000000000000000000000000000000000000000000000000000000000000000000000000000000000000000000000000000000000000000000000000000000000000000e404e45aaf000000000000000000000000b31f66aa3c1e785363f0875a1b74e27b85fd66c7000000000000000000000000b97ef9ef8734c71904d8002f8b6bc66dd9c48a6e000000000000000000000000000000000000000000000000000000000000000000000000000000000000000030b8cf2aa67e1e13a096d8838cc942fbbd52778b0000000000000000000000000000000000000000000000000000000000000000000000000000000000000000000000000000000000000000000000000000000000000000000000000000000000000000000000000000000000000000000000000000000000000000000000000000000000000000000000000000000000000000000000000000000000000000000000000000000000000000000000e404e45aaf000000000000000000000000b31f66aa3c1e785363f0875a1b74e27b85fd66c7000000000000000000000000b31f66aa3c1e785363f0875a1b74e27b85fd66c7000000000000000000000000000000000000000000000000000000000000000000000000000000000000000030b8cf2aa67e1e13a096d8838cc942fbbd52778b000000000000000000000000000000000000000000000000000000000000000000000000000000000000000000000000000000000000000000000000000000000000000000000000000000000000000000000000000000000000000000000000000000000000000000000000000000000000000000000000000000000000000000000000000000000000000000000000000000000000000000000004000000000000000000000000000000000000000000000000000000000000008000000000000000000000000000000000000000000000000000000000000001a000000000000000000000000000000000000000000000000000000000000002c000000000000000000000000000000000000000000000000000000000000003e000000000000000000000000000000000000000000000000000000000000000e4ffffffff000000000000000000000000ffffffffffffffffffffffffffffffffffffffff000000000000000000000000ffffffffffffffffffffffffffffffffffffffff0000000000000000000000000000000000000000000000000000000000000000000000000000000000000000ffffffffffffffffffffffffffffffffffffffff0000000000000000000000000000000000000000000000000000000000000000000000000000000000000000000000000000000000000000000000000000000000000000000000000000000000000000000000000000000000000000000000000000000000000000000000000000000000000000000000000000000000000000000000000000000000000000000000000000000000000000000000e4ffffffff000000000000000000000000ffffffffffffffffffffffffffffffffffffffff000000000000000000000000ffffffffffffffffffffffffffffffffffffffff0000000000000000000000000000000000000000000000000000000000000000000000000000000000000000ffffffffffffffffffffffffffffffffffffffff0000000000000000000000000000000000000000000000000000000000000000000000000000000000000000000000000000000000000000000000000000000000000000000000000000000000000000000000000000000000000000000000000000000000000000000000000000000000000000000000000000000000000000000000000000000000000000000000000000000000000000000000e4ffffffff000000000000000000000000ffffffffffffffffffffffffffffffffffffffff000000000000000000000000ffffffffffffffffffffffffffffffffffffffff0000000000000000000000000000000000000000000000000000000000000000000000000000000000000000ffffffffffffffffffffffffffffffffffffffff0000000000000000000000000000000000000000000000000000000000000000000000000000000000000000000000000000000000000000000000000000000000000000000000000000000000000000000000000000000000000000000000000000000000000000000000000000000000000000000000000000000000000000000000000000000000000000000000000000000000000000000000e4ffffffff000000000000000000000000ffffffffffffffffffffffffffffffffffffffff000000000000000000000000ffffffffffffffffffffffffffffffffffffffff0000000000000000000000000000000000000000000000000000000000000000000000000000000000000000ffffffffffffffffffffffffffffffffffffffff00000000000000000000000000000000000000000000000000000000000000000000000000000000000000000000000000000000000000000000000000000000000000000000000000000000000000000000000000000000000000000000000000000000000000000000000000000000000000000000000000000000000000000000000000000000000000000000000000000000000000000000000000000000000000000000000000000000000000000000000000000041f450f43aa6d08815e93d585d9195565da99a5f9cf4b7f6d4991863be29dffc712c7e4a5194edc37c12db8e99d910040f8a6599ce5689ba20d06de28133b5e8fc1b00000000000000000000000000000000000000000000000000000000000000",
            "nonce": "0x9",
            "chainId": "0xa86a"
          },
          "additionalContracts": [],
          "isFixedGasLimit": false
        },
        {
          "hash": null,
          "transactionType": "CALL",
          "contractName": null,
          "contractAddress": "0x30b8cf2aa67e1e13a096d8838cc942fbbd52778b",
          "function": "execTransaction(address,uint256,bytes,uint8,uint256,uint256,uint256,address,address,bytes)",
          "arguments": [
            "0x30B8Cf2AA67E1e13A096d8838cC942Fbbd52778b",
            "0",
            "0xf08a03230000000000000000000000000000000000000000000000000000000000000000",
            "0",
            "0",
            "0",
            "0",
            "0x0000000000000000000000000000000000000000",
            "0x0000000000000000000000000000000000000000",
            "0x06b059fddf59ca28c9025a8af75929285a91204ec7282a87fa120350e201df451e8fd4b682794558346fa6dec5d4bd9543ec88e1064972e2fe2e868321864bed1c"
          ],
          "transaction": {
            "from": "0xfa28c7fbd5b4752dfebdf498d86677e50c2812fa",
            "to": "0x30b8cf2aa67e1e13a096d8838cc942fbbd52778b",
            "gas": "0x14402",
            "value": "0x0",
            "input": "0x6a76120200000000000000000000000030b8cf2aa67e1e13a096d8838cc942fbbd52778b0000000000000000000000000000000000000000000000000000000000000000000000000000000000000000000000000000000000000000000000000000014000000000000000000000000000000000000000000000000000000000000000000000000000000000000000000000000000000000000000000000000000000000000000000000000000000000000000000000000000000000000000000000000000000000000000000000000000000000000000000000000000000000000000000000000000000000000000000000000000000000000000000000000000000000000000000000000000000000000000000000000000000000000000000000000000000000000000000000000000000000000000000000000000000000000001a00000000000000000000000000000000000000000000000000000000000000024f08a0323000000000000000000000000000000000000000000000000000000000000000000000000000000000000000000000000000000000000000000000000000000000000000000000000000000000000000000000000000000000000004106b059fddf59ca28c9025a8af75929285a91204ec7282a87fa120350e201df451e8fd4b682794558346fa6dec5d4bd9543ec88e1064972e2fe2e868321864bed1c00000000000000000000000000000000000000000000000000000000000000",
            "nonce": "0xa",
            "chainId": "0xa86a"
          },
          "additionalContracts": [],
          "isFixedGasLimit": false
        },
        {
          "hash": null,
          "transactionType": "CALL",
          "contractName": null,
          "contractAddress": "0x30b8cf2aa67e1e13a096d8838cc942fbbd52778b",
          "function": "execTransaction(address,uint256,bytes,uint8,uint256,uint256,uint256,address,address,bytes)",
          "arguments": [
            "0x30B8Cf2AA67E1e13A096d8838cC942Fbbd52778b",
            "0",
            "0xe19a9dd9000000000000000000000000a3212332057c479937ea5efe4c92ece8d3a3100a",
            "0",
            "0",
            "0",
            "0",
            "0x0000000000000000000000000000000000000000",
            "0x0000000000000000000000000000000000000000",
            "0xcc0be4e322e674b860750b1dd7cbc6e95df57aafd91bc4e31f0054fd0515f58505724e82662b32b03389cd3e6a2f22876dccdafffe9ff2e9ba672c172ce83ed01b"
          ],
          "transaction": {
            "from": "0xfa28c7fbd5b4752dfebdf498d86677e50c2812fa",
            "to": "0x30b8cf2aa67e1e13a096d8838cc942fbbd52778b",
            "gas": "0x1c22e",
            "value": "0x0",
            "input": "0x6a76120200000000000000000000000030b8cf2aa67e1e13a096d8838cc942fbbd52778b0000000000000000000000000000000000000000000000000000000000000000000000000000000000000000000000000000000000000000000000000000014000000000000000000000000000000000000000000000000000000000000000000000000000000000000000000000000000000000000000000000000000000000000000000000000000000000000000000000000000000000000000000000000000000000000000000000000000000000000000000000000000000000000000000000000000000000000000000000000000000000000000000000000000000000000000000000000000000000000000000000000000000000000000000000000000000000000000000000000000000000000000000000000000000000000001a00000000000000000000000000000000000000000000000000000000000000024e19a9dd9000000000000000000000000a3212332057c479937ea5efe4c92ece8d3a3100a000000000000000000000000000000000000000000000000000000000000000000000000000000000000000000000000000000000000000000000041cc0be4e322e674b860750b1dd7cbc6e95df57aafd91bc4e31f0054fd0515f58505724e82662b32b03389cd3e6a2f22876dccdafffe9ff2e9ba672c172ce83ed01b00000000000000000000000000000000000000000000000000000000000000",
            "nonce": "0xb",
            "chainId": "0xa86a"
          },
          "additionalContracts": [],
          "isFixedGasLimit": false
        },
        {
          "hash": null,
          "transactionType": "CALL",
          "contractName": null,
          "contractAddress": "0x30b8cf2aa67e1e13a096d8838cc942fbbd52778b",
          "function": "execTransaction(address,uint256,bytes,uint8,uint256,uint256,uint256,address,address,bytes)",
          "arguments": [
            "0xa3212332057C479937EA5efE4c92EcE8d3a3100a",
            "0",
            "0x4313b9e50000000000000000000000000000000000000000000000000000000000000001",
            "0",
            "0",
            "0",
            "0",
            "0x0000000000000000000000000000000000000000",
            "0x0000000000000000000000000000000000000000",
            "0x97186bdbce871dc35b6a6441187d0e7fcf1ad1cf6240cc17c5004e6f78594edc77a869ff5883f8983aba1832a8b91d86476f28443f5f22537098886c9750b4aa1b"
          ],
          "transaction": {
            "from": "0xfa28c7fbd5b4752dfebdf498d86677e50c2812fa",
            "to": "0x30b8cf2aa67e1e13a096d8838cc942fbbd52778b",
            "gas": "0x279f2",
            "value": "0x0",
            "input": "0x6a761202000000000000000000000000a3212332057c479937ea5efe4c92ece8d3a3100a0000000000000000000000000000000000000000000000000000000000000000000000000000000000000000000000000000000000000000000000000000014000000000000000000000000000000000000000000000000000000000000000000000000000000000000000000000000000000000000000000000000000000000000000000000000000000000000000000000000000000000000000000000000000000000000000000000000000000000000000000000000000000000000000000000000000000000000000000000000000000000000000000000000000000000000000000000000000000000000000000000000000000000000000000000000000000000000000000000000000000000000000000000000000000000000001a000000000000000000000000000000000000000000000000000000000000000244313b9e5000000000000000000000000000000000000000000000000000000000000000100000000000000000000000000000000000000000000000000000000000000000000000000000000000000000000000000000000000000000000004197186bdbce871dc35b6a6441187d0e7fcf1ad1cf6240cc17c5004e6f78594edc77a869ff5883f8983aba1832a8b91d86476f28443f5f22537098886c9750b4aa1b00000000000000000000000000000000000000000000000000000000000000",
            "nonce": "0xc",
            "chainId": "0xa86a"
          },
          "additionalContracts": [],
          "isFixedGasLimit": false
        },
        {
          "hash": null,
          "transactionType": "CALL",
          "contractName": null,
          "contractAddress": "0x30b8cf2aa67e1e13a096d8838cc942fbbd52778b",
          "function": "execTransaction(address,uint256,bytes,uint8,uint256,uint256,uint256,address,address,bytes)",
          "arguments": [
            "0xa3212332057C479937EA5efE4c92EcE8d3a3100a",
            "0",
            "0x781d26d10000000000000000000000000000000000000000000000000000000000000002",
            "0",
            "0",
            "0",
            "0",
            "0x0000000000000000000000000000000000000000",
            "0x0000000000000000000000000000000000000000",
            "0xd17225d52b487588f56d761bb9ea9058f18f43bfdede1c0f330be17154d0d8be6aca002dab5c01a114c50ef65ba11ba703b7eb0fe4f0fc7a8124e7ce3a05e6541b"
          ],
          "transaction": {
            "from": "0xfa28c7fbd5b4752dfebdf498d86677e50c2812fa",
            "to": "0x30b8cf2aa67e1e13a096d8838cc942fbbd52778b",
            "gas": "0x21d8f",
            "value": "0x0",
            "input": "0x6a761202000000000000000000000000a3212332057c479937ea5efe4c92ece8d3a3100a0000000000000000000000000000000000000000000000000000000000000000000000000000000000000000000000000000000000000000000000000000014000000000000000000000000000000000000000000000000000000000000000000000000000000000000000000000000000000000000000000000000000000000000000000000000000000000000000000000000000000000000000000000000000000000000000000000000000000000000000000000000000000000000000000000000000000000000000000000000000000000000000000000000000000000000000000000000000000000000000000000000000000000000000000000000000000000000000000000000000000000000000000000000000000000000001a00000000000000000000000000000000000000000000000000000000000000024781d26d10000000000000000000000000000000000000000000000000000000000000002000000000000000000000000000000000000000000000000000000000000000000000000000000000000000000000000000000000000000000000041d17225d52b487588f56d761bb9ea9058f18f43bfdede1c0f330be17154d0d8be6aca002dab5c01a114c50ef65ba11ba703b7eb0fe4f0fc7a8124e7ce3a05e6541b00000000000000000000000000000000000000000000000000000000000000",
            "nonce": "0xd",
            "chainId": "0xa86a"
          },
          "additionalContracts": [],
          "isFixedGasLimit": false
        }
      ],
      "receipts": [],
      "libraries": [],
      "pending": [],
      "returns": {},
      "timestamp": 1739376187,
      "chain": 43114,
      "commit": "279bca9"
    }
  ],
  "timestamp": 1739376190
}