{
  "transactions": [
    {
      "hash": "0xc02c7b801989214cd5946cd990990b3c7c654aeea37abd59534204b36a5ca14c",
      "transactionType": "CALL",
      "contractName": null,
      "contractAddress": "0x30b8cf2aa67e1e13a096d8838cc942fbbd52778b",
      "function": "execTransaction(address,uint256,bytes,uint8,uint256,uint256,uint256,address,address,bytes)",
      "arguments": [
        "0x457f785000cA495FAe63AAb38C9fC4b2965B106a",
        "0",
        "0x982dd3d3000000000000000000000000c02aaa39b223fe8d0a0e5c4f27ead9083c756cc200000000000000000000000000000000000000000000000000000000000000600000000000000000000000000000000000000000000000000000000000000140000000000000000000000000000000000000000000000000000000000000000200000000000000000000000000000000000000000000000000000000000000400000000000000000000000000000000000000000000000000000000000000060000000000000000000000000000000000000000000000000000000000000000000000000000000000000000000000000000000000000000000000000000000242e1a7d4d00000000000000000000000000000000000000000000000000000000000000000000000000000000000000000000000000000000000000000000000000000000000000000000000000000000000000000000000000000000000000020000000000000000000000000000000000000000000000000000000000000040000000000000000000000000000000000000000000000000000000000000006000000000000000000000000000000000000000000000000000000000000000000000000000000000000000000000000000000000000000000000000000000024ffffffff000000000000000000000000000000000000000000000000000000000000000000000000000000000000000000000000000000000000000000000000",
        "0",
        "0",
        "0",
        "0",
        "0x0000000000000000000000000000000000000000",
        "0x0000000000000000000000000000000000000000",
        "0x9c6e09f9c71edd1c32cc522b1a828141fe74e6e82ba98bddf7a959c38f53c46c7877461f621570ded94a4bf8aabaf3a562af1a842d47dce8ca371c1b003846121b"
      ],
      "transaction": {
        "from": "0xfa28c7fbd5b4752dfebdf498d86677e50c2812fa",
        "to": "0x30b8cf2aa67e1e13a096d8838cc942fbbd52778b",
        "gas": "0x52dac",
        "value": "0x0",
        "input": "0x6a761202000000000000000000000000457f785000ca495fae63aab38c9fc4b2965b106a0000000000000000000000000000000000000000000000000000000000000000000000000000000000000000000000000000000000000000000000000000014000000000000000000000000000000000000000000000000000000000000000000000000000000000000000000000000000000000000000000000000000000000000000000000000000000000000000000000000000000000000000000000000000000000000000000000000000000000000000000000000000000000000000000000000000000000000000000000000000000000000000000000000000000000000000000000000000000000000000000000000000000000000000000000000000000000000000000000000000000000000000000000000000000000000003a00000000000000000000000000000000000000000000000000000000000000224982dd3d3000000000000000000000000c02aaa39b223fe8d0a0e5c4f27ead9083c756cc200000000000000000000000000000000000000000000000000000000000000600000000000000000000000000000000000000000000000000000000000000140000000000000000000000000000000000000000000000000000000000000000200000000000000000000000000000000000000000000000000000000000000400000000000000000000000000000000000000000000000000000000000000060000000000000000000000000000000000000000000000000000000000000000000000000000000000000000000000000000000000000000000000000000000242e1a7d4d00000000000000000000000000000000000000000000000000000000000000000000000000000000000000000000000000000000000000000000000000000000000000000000000000000000000000000000000000000000000000020000000000000000000000000000000000000000000000000000000000000040000000000000000000000000000000000000000000000000000000000000006000000000000000000000000000000000000000000000000000000000000000000000000000000000000000000000000000000000000000000000000000000024ffffffff0000000000000000000000000000000000000000000000000000000000000000000000000000000000000000000000000000000000000000000000000000000000000000000000000000000000000000000000000000000000000000000000000000000000000000000000000000000000000000000000419c6e09f9c71edd1c32cc522b1a828141fe74e6e82ba98bddf7a959c38f53c46c7877461f621570ded94a4bf8aabaf3a562af1a842d47dce8ca371c1b003846121b00000000000000000000000000000000000000000000000000000000000000",
        "nonce": "0x4",
        "chainId": "0x1"
      },
      "additionalContracts": [],
      "isFixedGasLimit": false
    },
    {
      "hash": "0x2eb7618820bff61f3ea5c23c208df6d13a31166ce3b8bcb71e229b576b7dfff2",
      "transactionType": "CALL",
      "contractName": null,
      "contractAddress": "0x30b8cf2aa67e1e13a096d8838cc942fbbd52778b",
      "function": "execTransaction(address,uint256,bytes,uint8,uint256,uint256,uint256,address,address,bytes)",
      "arguments": [
        "0x457f785000cA495FAe63AAb38C9fC4b2965B106a",
        "0",
        "0x982dd3d3000000000000000000000000a0b86991c6218b36c1d19d4a2e9eb0ce3606eb4800000000000000000000000000000000000000000000000000000000000000600000000000000000000000000000000000000000000000000000000000000120000000000000000000000000000000000000000000000000000000000000000100000000000000000000000000000000000000000000000000000000000000200000000000000000000000000000000000000000000000000000000000000044095ea7b300000000000000000000000065767ab18a2854895d5287ac689a18b54a17dfb1000000000000000000000000000000000000000000000000000000000000000000000000000000000000000000000000000000000000000000000000000000000000000000000000000000000000000000000000000000000000000100000000000000000000000000000000000000000000000000000000000000200000000000000000000000000000000000000000000000000000000000000044ffffffff000000000000000000000000ffffffffffffffffffffffffffffffffffffffff000000000000000000000000000000000000000000000000000000000000000000000000000000000000000000000000000000000000000000000000",
        "0",
        "0",
        "0",
        "0",
        "0x0000000000000000000000000000000000000000",
        "0x0000000000000000000000000000000000000000",
        "0x36805ba6eaa297f9b64e0160bab0e1d8d928d26c929e133b93fd4c98377915df311231f7265d0eb2222998a1cc2fc18bc9b5c73e9b82308b52c9305b4398eb8d1c"
      ],
      "transaction": {
        "from": "0xfa28c7fbd5b4752dfebdf498d86677e50c2812fa",
        "to": "0x30b8cf2aa67e1e13a096d8838cc942fbbd52778b",
        "gas": "0x54af5",
        "value": "0x0",
        "input": "0x6a761202000000000000000000000000457f785000ca495fae63aab38c9fc4b2965b106a00000000000000000000000000000000000000000000000000000000000000000000000000000000000000000000000000000000000000000000000000000140000000000000000000000000000000000000000000000000000000000000000000000000000000000000000000000000000000000000000000000000000000000000000000000000000000000000000000000000000000000000000000000000000000000000000000000000000000000000000000000000000000000000000000000000000000000000000000000000000000000000000000000000000000000000000000000000000000000000000000000000000000000000000000000000000000000000000000000000000000000000000000000000000000000000036000000000000000000000000000000000000000000000000000000000000001e4982dd3d3000000000000000000000000a0b86991c6218b36c1d19d4a2e9eb0ce3606eb4800000000000000000000000000000000000000000000000000000000000000600000000000000000000000000000000000000000000000000000000000000120000000000000000000000000000000000000000000000000000000000000000100000000000000000000000000000000000000000000000000000000000000200000000000000000000000000000000000000000000000000000000000000044095ea7b300000000000000000000000065767ab18a2854895d5287ac689a18b54a17dfb1000000000000000000000000000000000000000000000000000000000000000000000000000000000000000000000000000000000000000000000000000000000000000000000000000000000000000000000000000000000000000100000000000000000000000000000000000000000000000000000000000000200000000000000000000000000000000000000000000000000000000000000044ffffffff000000000000000000000000ffffffffffffffffffffffffffffffffffffffff00000000000000000000000000000000000000000000000000000000000000000000000000000000000000000000000000000000000000000000000000000000000000000000000000000000000000000000000000000000000000000000000000000000000000000000000000000000000000000000004136805ba6eaa297f9b64e0160bab0e1d8d928d26c929e133b93fd4c98377915df311231f7265d0eb2222998a1cc2fc18bc9b5c73e9b82308b52c9305b4398eb8d1c00000000000000000000000000000000000000000000000000000000000000",
        "nonce": "0x5",
        "chainId": "0x1"
      },
      "additionalContracts": [],
      "isFixedGasLimit": false
    },
    {
      "hash": "0x4bc2491bc43470bbc86cb140555dd034bb1a3db71f137dec51af094a27b9b6dc",
      "transactionType": "CALL",
      "contractName": null,
      "contractAddress": "0x30b8cf2aa67e1e13a096d8838cc942fbbd52778b",
      "function": "execTransaction(address,uint256,bytes,uint8,uint256,uint256,uint256,address,address,bytes)",
      "arguments": [
        "0x457f785000cA495FAe63AAb38C9fC4b2965B106a",
        "0",
        "0x982dd3d300000000000000000000000065767ab18a2854895d5287ac689a18b54a17dfb1000000000000000000000000000000000000000000000000000000000000006000000000000000000000000000000000000000000000000000000000000002000000000000000000000000000000000000000000000000000000000000000002000000000000000000000000000000000000000000000000000000000000004000000000000000000000000000000000000000000000000000000000000000e00000000000000000000000000000000000000000000000000000000000000064f45346dc0000000000000000000000000000000000000000000000000000000000000000000000000000000000000000000000000000000000000000000000000000000000000000000000000000000030b8cf2aa67e1e13a096d8838cc942fbbd52778b00000000000000000000000000000000000000000000000000000000000000000000000000000000000000000000000000000000000000000000006469328dec0000000000000000000000000000000000000000000000000000000000000000000000000000000000000000000000000000000000000000000000000000000000000000000000000000000030b8cf2aa67e1e13a096d8838cc942fbbd52778b000000000000000000000000000000000000000000000000000000000000000000000000000000000000000000000000000000000000000000000002000000000000000000000000000000000000000000000000000000000000004000000000000000000000000000000000000000000000000000000000000000e00000000000000000000000000000000000000000000000000000000000000064ffffffff00000000000000000000000000000000000000000000000000000000000000000000000000000000000000000000000000000000000000000000000000000000000000000000000000000000ffffffffffffffffffffffffffffffffffffffff000000000000000000000000000000000000000000000000000000000000000000000000000000000000000000000000000000000000000000000064ffffffff00000000000000000000000000000000000000000000000000000000000000000000000000000000000000000000000000000000000000000000000000000000000000000000000000000000ffffffffffffffffffffffffffffffffffffffff00000000000000000000000000000000000000000000000000000000",
        "0",
        "0",
        "0",
        "0",
        "0x0000000000000000000000000000000000000000",
        "0x0000000000000000000000000000000000000000",
        "0x3283a79954ed928fc5294af456a857d87ea39d885b7e752e179b1a24e56dddc0152d194527c3a000d4ccaf0501ec50c348e55c72cce730dbca9be44163e472531c"
      ],
      "transaction": {
        "from": "0xfa28c7fbd5b4752dfebdf498d86677e50c2812fa",
        "to": "0x30b8cf2aa67e1e13a096d8838cc942fbbd52778b",
        "gas": "0xa5435",
        "value": "0x0",
        "input": "0x6a761202000000000000000000000000457f785000ca495fae63aab38c9fc4b2965b106a00000000000000000000000000000000000000000000000000000000000000000000000000000000000000000000000000000000000000000000000000000140000000000000000000000000000000000000000000000000000000000000000000000000000000000000000000000000000000000000000000000000000000000000000000000000000000000000000000000000000000000000000000000000000000000000000000000000000000000000000000000000000000000000000000000000000000000000000000000000000000000000000000000000000000000000000000000000000000000000000000000000000000000000000000000000000000000000000000000000000000000000000000000000000000000000052000000000000000000000000000000000000000000000000000000000000003a4982dd3d300000000000000000000000065767ab18a2854895d5287ac689a18b54a17dfb1000000000000000000000000000000000000000000000000000000000000006000000000000000000000000000000000000000000000000000000000000002000000000000000000000000000000000000000000000000000000000000000002000000000000000000000000000000000000000000000000000000000000004000000000000000000000000000000000000000000000000000000000000000e00000000000000000000000000000000000000000000000000000000000000064f45346dc0000000000000000000000000000000000000000000000000000000000000000000000000000000000000000000000000000000000000000000000000000000000000000000000000000000030b8cf2aa67e1e13a096d8838cc942fbbd52778b00000000000000000000000000000000000000000000000000000000000000000000000000000000000000000000000000000000000000000000006469328dec0000000000000000000000000000000000000000000000000000000000000000000000000000000000000000000000000000000000000000000000000000000000000000000000000000000030b8cf2aa67e1e13a096d8838cc942fbbd52778b000000000000000000000000000000000000000000000000000000000000000000000000000000000000000000000000000000000000000000000002000000000000000000000000000000000000000000000000000000000000004000000000000000000000000000000000000000000000000000000000000000e00000000000000000000000000000000000000000000000000000000000000064ffffffff00000000000000000000000000000000000000000000000000000000000000000000000000000000000000000000000000000000000000000000000000000000000000000000000000000000ffffffffffffffffffffffffffffffffffffffff000000000000000000000000000000000000000000000000000000000000000000000000000000000000000000000000000000000000000000000064ffffffff00000000000000000000000000000000000000000000000000000000000000000000000000000000000000000000000000000000000000000000000000000000000000000000000000000000ffffffffffffffffffffffffffffffffffffffff000000000000000000000000000000000000000000000000000000000000000000000000000000000000000000000000000000000000000000000000000000000000000000000000000000000000000000000000000000413283a79954ed928fc5294af456a857d87ea39d885b7e752e179b1a24e56dddc0152d194527c3a000d4ccaf0501ec50c348e55c72cce730dbca9be44163e472531c00000000000000000000000000000000000000000000000000000000000000",
        "nonce": "0x6",
        "chainId": "0x1"
      },
      "additionalContracts": [],
      "isFixedGasLimit": false
    }
  ],
  "receipts": [
    {
      "status": "0x1",
      "cumulativeGasUsed": "0xd138b8",
      "logs": [
        {
          "address": "0x457f785000ca495fae63aab38c9fc4b2965b106a",
          "topics": [
            "0x9737a6ed65b2635eeb5c433d89fda29340f82bc8f269f2fbb303f324c81480e1",
            "0x00000000000000000000000030b8cf2aa67e1e13a096d8838cc942fbbd52778b",
            "0x000000000000000000000000c02aaa39b223fe8d0a0e5c4f27ead9083c756cc2"
          ],
          "data": "0x00000000000000000000000000000000000000000000000000000000000000400000000000000000000000000000000000000000000000000000000000000120000000000000000000000000000000000000000000000000000000000000000200000000000000000000000000000000000000000000000000000000000000400000000000000000000000000000000000000000000000000000000000000060000000000000000000000000000000000000000000000000000000000000000000000000000000000000000000000000000000000000000000000000000000242e1a7d4d00000000000000000000000000000000000000000000000000000000000000000000000000000000000000000000000000000000000000000000000000000000000000000000000000000000000000000000000000000000000000020000000000000000000000000000000000000000000000000000000000000040000000000000000000000000000000000000000000000000000000000000006000000000000000000000000000000000000000000000000000000000000000000000000000000000000000000000000000000000000000000000000000000024ffffffff000000000000000000000000000000000000000000000000000000000000000000000000000000000000000000000000000000000000000000000000",
          "blockHash": "0x34307c783f0b84182c810e0a086850ebfb1350745f0fa59576bb868f0d4cf5f6",
          "blockNumber": "0x14ce3ac",
          "transactionHash": "0xc02c7b801989214cd5946cd990990b3c7c654aeea37abd59534204b36a5ca14c",
          "transactionIndex": "0xc9",
          "logIndex": "0x145",
          "removed": false
        },
        {
          "address": "0x30b8cf2aa67e1e13a096d8838cc942fbbd52778b",
          "topics": [
            "0x442e715f626346e8c54381002da614f62bee8d27386535b2521ec8540898556e",
            "0x10e06f1dacd7808a4714648defacd3288b34e850276cb854cae30d14fbbcd3cd"
          ],
          "data": "0x0000000000000000000000000000000000000000000000000000000000000000",
          "blockHash": "0x34307c783f0b84182c810e0a086850ebfb1350745f0fa59576bb868f0d4cf5f6",
          "blockNumber": "0x14ce3ac",
          "transactionHash": "0xc02c7b801989214cd5946cd990990b3c7c654aeea37abd59534204b36a5ca14c",
          "transactionIndex": "0xc9",
          "logIndex": "0x146",
          "removed": false
        }
      ],
      "logsBloom": "0x00000000400000000000000001002000000000000000000000000000041000000000000000000000000100000000000000000000000000000000000000000000000000000000000000000000000000800000010000000000000000000000000000000000000000000000000000000000000000000008000000000000000000000000000000000000000000400000000000000020000000000000000000000000000000000000004000000000020004000000008000000000000000000000000000000000000000000000000000080000100000000000000000000000000000000000000000000002200000000000000000008000000000000000000000000000",
      "type": "0x2",
      "transactionHash": "0xc02c7b801989214cd5946cd990990b3c7c654aeea37abd59534204b36a5ca14c",
      "transactionIndex": "0xc9",
      "blockHash": "0x34307c783f0b84182c810e0a086850ebfb1350745f0fa59576bb868f0d4cf5f6",
      "blockNumber": "0x14ce3ac",
      "gasUsed": "0x38a72",
      "effectiveGasPrice": "0x41fffd43",
      "from": "0xfa28c7fbd5b4752dfebdf498d86677e50c2812fa",
      "to": "0x30b8cf2aa67e1e13a096d8838cc942fbbd52778b",
      "contractAddress": null
    },
    {
      "status": "0x1",
      "cumulativeGasUsed": "0xd50db0",
      "logs": [
        {
          "address": "0x457f785000ca495fae63aab38c9fc4b2965b106a",
          "topics": [
            "0x9737a6ed65b2635eeb5c433d89fda29340f82bc8f269f2fbb303f324c81480e1",
            "0x00000000000000000000000030b8cf2aa67e1e13a096d8838cc942fbbd52778b",
            "0x000000000000000000000000a0b86991c6218b36c1d19d4a2e9eb0ce3606eb48"
          ],
          "data": "0x00000000000000000000000000000000000000000000000000000000000000400000000000000000000000000000000000000000000000000000000000000100000000000000000000000000000000000000000000000000000000000000000100000000000000000000000000000000000000000000000000000000000000200000000000000000000000000000000000000000000000000000000000000044095ea7b300000000000000000000000065767ab18a2854895d5287ac689a18b54a17dfb1000000000000000000000000000000000000000000000000000000000000000000000000000000000000000000000000000000000000000000000000000000000000000000000000000000000000000000000000000000000000000100000000000000000000000000000000000000000000000000000000000000200000000000000000000000000000000000000000000000000000000000000044ffffffff000000000000000000000000ffffffffffffffffffffffffffffffffffffffff000000000000000000000000000000000000000000000000000000000000000000000000000000000000000000000000000000000000000000000000",
          "blockHash": "0x34307c783f0b84182c810e0a086850ebfb1350745f0fa59576bb868f0d4cf5f6",
          "blockNumber": "0x14ce3ac",
          "transactionHash": "0x2eb7618820bff61f3ea5c23c208df6d13a31166ce3b8bcb71e229b576b7dfff2",
          "transactionIndex": "0xca",
          "logIndex": "0x147",
          "removed": false
        },
        {
          "address": "0x30b8cf2aa67e1e13a096d8838cc942fbbd52778b",
          "topics": [
            "0x442e715f626346e8c54381002da614f62bee8d27386535b2521ec8540898556e",
            "0x0df99b649795f460a2ea0f83f96652345bbfd7228300d62f9e9d7d84b47fb462"
          ],
          "data": "0x0000000000000000000000000000000000000000000000000000000000000000",
          "blockHash": "0x34307c783f0b84182c810e0a086850ebfb1350745f0fa59576bb868f0d4cf5f6",
          "blockNumber": "0x14ce3ac",
          "transactionHash": "0x2eb7618820bff61f3ea5c23c208df6d13a31166ce3b8bcb71e229b576b7dfff2",
          "transactionIndex": "0xca",
          "logIndex": "0x148",
          "removed": false
        }
      ],
      "logsBloom": "0x00000000400000000000000000002000000000000000000001000000040000000000000000000000000102000000000000000000000000000000000000000000000000000000080000000000000000000000090000000000000000000000000000000000000000000000000000000000000000000008000000000000000000000000000000000000000000000000000200000020000000000000000000000000000000000000004000000000000004000000008000000000000000000000000000000000000000000000000000000000100000000000000000000000000000000000000000000002200000000000000004008000000000000000000000000000",
      "type": "0x2",
      "transactionHash": "0x2eb7618820bff61f3ea5c23c208df6d13a31166ce3b8bcb71e229b576b7dfff2",
      "transactionIndex": "0xca",
      "blockHash": "0x34307c783f0b84182c810e0a086850ebfb1350745f0fa59576bb868f0d4cf5f6",
      "blockNumber": "0x14ce3ac",
      "gasUsed": "0x3d4f8",
      "effectiveGasPrice": "0x41fffd43",
      "from": "0xfa28c7fbd5b4752dfebdf498d86677e50c2812fa",
      "to": "0x30b8cf2aa67e1e13a096d8838cc942fbbd52778b",
      "contractAddress": null
    },
    {
      "status": "0x1",
      "cumulativeGasUsed": "0xdc880d",
      "logs": [
        {
          "address": "0x457f785000ca495fae63aab38c9fc4b2965b106a",
          "topics": [
            "0x9737a6ed65b2635eeb5c433d89fda29340f82bc8f269f2fbb303f324c81480e1",
            "0x00000000000000000000000030b8cf2aa67e1e13a096d8838cc942fbbd52778b",
            "0x00000000000000000000000065767ab18a2854895d5287ac689a18b54a17dfb1"
          ],
          "data": "0x000000000000000000000000000000000000000000000000000000000000004000000000000000000000000000000000000000000000000000000000000001e00000000000000000000000000000000000000000000000000000000000000002000000000000000000000000000000000000000000000000000000000000004000000000000000000000000000000000000000000000000000000000000000e00000000000000000000000000000000000000000000000000000000000000064f45346dc0000000000000000000000000000000000000000000000000000000000000000000000000000000000000000000000000000000000000000000000000000000000000000000000000000000030b8cf2aa67e1e13a096d8838cc942fbbd52778b00000000000000000000000000000000000000000000000000000000000000000000000000000000000000000000000000000000000000000000006469328dec0000000000000000000000000000000000000000000000000000000000000000000000000000000000000000000000000000000000000000000000000000000000000000000000000000000030b8cf2aa67e1e13a096d8838cc942fbbd52778b000000000000000000000000000000000000000000000000000000000000000000000000000000000000000000000000000000000000000000000002000000000000000000000000000000000000000000000000000000000000004000000000000000000000000000000000000000000000000000000000000000e00000000000000000000000000000000000000000000000000000000000000064ffffffff00000000000000000000000000000000000000000000000000000000000000000000000000000000000000000000000000000000000000000000000000000000000000000000000000000000ffffffffffffffffffffffffffffffffffffffff000000000000000000000000000000000000000000000000000000000000000000000000000000000000000000000000000000000000000000000064ffffffff00000000000000000000000000000000000000000000000000000000000000000000000000000000000000000000000000000000000000000000000000000000000000000000000000000000ffffffffffffffffffffffffffffffffffffffff00000000000000000000000000000000000000000000000000000000",
          "blockHash": "0x34307c783f0b84182c810e0a086850ebfb1350745f0fa59576bb868f0d4cf5f6",
          "blockNumber": "0x14ce3ac",
          "transactionHash": "0x4bc2491bc43470bbc86cb140555dd034bb1a3db71f137dec51af094a27b9b6dc",
          "transactionIndex": "0xcb",
          "logIndex": "0x149",
          "removed": false
        },
        {
          "address": "0x30b8cf2aa67e1e13a096d8838cc942fbbd52778b",
          "topics": [
            "0x442e715f626346e8c54381002da614f62bee8d27386535b2521ec8540898556e",
            "0x3a5e11ece14289b713754f681a75d2e3208fe6e9dcedc646bb3bfe3fdc797ae7"
          ],
          "data": "0x0000000000000000000000000000000000000000000000000000000000000000",
          "blockHash": "0x34307c783f0b84182c810e0a086850ebfb1350745f0fa59576bb868f0d4cf5f6",
          "blockNumber": "0x14ce3ac",
          "transactionHash": "0x4bc2491bc43470bbc86cb140555dd034bb1a3db71f137dec51af094a27b9b6dc",
          "transactionIndex": "0xcb",
          "logIndex": "0x14a",
          "removed": false
        }
      ],
      "logsBloom": "0x00000000400000000000000000002000000000000000000040000000040000000000000000000000000100000000000000000000000000000000000000000001000000000000000000000004000000000000010000000040000000000000000000000000000000000000000000000000000000000008001000000000000000000000000000000000000000000000000000000020000000040000000000000000000000000000004000000000000004000000008000000000000000000000000000000000000000000000000000000000100000000000000000000000000000000000000000000002200000000000000000008000000000000000000000000000",
      "type": "0x2",
      "transactionHash": "0x4bc2491bc43470bbc86cb140555dd034bb1a3db71f137dec51af094a27b9b6dc",
      "transactionIndex": "0xcb",
      "blockHash": "0x34307c783f0b84182c810e0a086850ebfb1350745f0fa59576bb868f0d4cf5f6",
      "blockNumber": "0x14ce3ac",
      "gasUsed": "0x77a5d",
      "effectiveGasPrice": "0x41fffd43",
      "from": "0xfa28c7fbd5b4752dfebdf498d86677e50c2812fa",
      "to": "0x30b8cf2aa67e1e13a096d8838cc942fbbd52778b",
      "contractAddress": null
    }
  ],
  "libraries": [],
  "pending": [],
  "returns": {},
  "timestamp": 1739191910,
  "chain": 1,
  "commit": "9199ef4"
}