{
  "transactions": [
    {
      "hash": "0xeab66bb3b104cdb90cdd8946b62f3564cb5caf9b08e7072db6d18adf59704102",
      "transactionType": "CALL",
      "contractName": null,
      "contractAddress": "0x30b8cf2aa67e1e13a096d8838cc942fbbd52778b",
      "function": "execTransaction(address,uint256,bytes,uint8,uint256,uint256,uint256,address,address,bytes)",
      "arguments": [
        "0xa3212332057C479937EA5efE4c92EcE8d3a3100a",
        "0",
        "0x781d26d10000000000000000000000000000000000000000000000000000000000000002",
        "0",
        "0",
        "0",
        "0",
        "0x0000000000000000000000000000000000000000",
        "0x0000000000000000000000000000000000000000",
        "0x1e86c458ce6b73a7add35a6e40c13c275e4270f12c397c68ad46a9aa78ee708216795a78b4825f0a1d4ed652edcf8225a08982aeb29fd321e450b34ecbed1a101c"
      ],
      "transaction": {
        "from": "0x343bd4e802bae35f89e043299b82067aab38dfd3",
        "to": "0x30b8cf2aa67e1e13a096d8838cc942fbbd52778b",
        "gas": "0x23d7c",
        "value": "0x0",
        "input": "0x6a761202000000000000000000000000a3212332057c479937ea5efe4c92ece8d3a3100a0000000000000000000000000000000000000000000000000000000000000000000000000000000000000000000000000000000000000000000000000000014000000000000000000000000000000000000000000000000000000000000000000000000000000000000000000000000000000000000000000000000000000000000000000000000000000000000000000000000000000000000000000000000000000000000000000000000000000000000000000000000000000000000000000000000000000000000000000000000000000000000000000000000000000000000000000000000000000000000000000000000000000000000000000000000000000000000000000000000000000000000000000000000000000000000001a00000000000000000000000000000000000000000000000000000000000000024781d26d100000000000000000000000000000000000000000000000000000000000000020000000000000000000000000000000000000000000000000000000000000000000000000000000000000000000000000000000000000000000000411e86c458ce6b73a7add35a6e40c13c275e4270f12c397c68ad46a9aa78ee708216795a78b4825f0a1d4ed652edcf8225a08982aeb29fd321e450b34ecbed1a101c00000000000000000000000000000000000000000000000000000000000000",
        "nonce": "0x14",
        "chainId": "0xa"
      },
      "additionalContracts": [],
      "isFixedGasLimit": false
    }
  ],
  "receipts": [
    {
      "status": "0x1",
      "cumulativeGasUsed": "0x53dc64",
      "logs": [
        {
          "address": "0x30b8cf2aa67e1e13a096d8838cc942fbbd52778b",
          "topics": [
            "0x66753cd2356569ee081232e3be8909b950e0a76c1f8460c3a5e3c2be32b11bed"
          ],
          "data": "0x000000000000000000000000a3212332057c479937ea5efe4c92ece8d3a3100a0000000000000000000000000000000000000000000000000000000000000000000000000000000000000000000000000000000000000000000000000000016000000000000000000000000000000000000000000000000000000000000000000000000000000000000000000000000000000000000000000000000000000000000000000000000000000000000000000000000000000000000000000000000000000000000000000000000000000000000000000000000000000000000000000000000000000000000000000000000000000000000000000000000000000000000000000000000000000000000000000000000000000000000000000000000000000000000000000000000000000000000000000000000000000000000001c000000000000000000000000000000000000000000000000000000000000002400000000000000000000000000000000000000000000000000000000000000024781d26d100000000000000000000000000000000000000000000000000000000000000020000000000000000000000000000000000000000000000000000000000000000000000000000000000000000000000000000000000000000000000411e86c458ce6b73a7add35a6e40c13c275e4270f12c397c68ad46a9aa78ee708216795a78b4825f0a1d4ed652edcf8225a08982aeb29fd321e450b34ecbed1a101c000000000000000000000000000000000000000000000000000000000000000000000000000000000000000000000000000000000000000000000000000060000000000000000000000000000000000000000000000000000000000000000e000000000000000000000000343bd4e802bae35f89e043299b82067aab38dfd30000000000000000000000000000000000000000000000000000000000000001",
          "blockHash": "0xe26b1aeec132963330b27c7e8535db66d41cede643b0abead86e5f8a30494f15",
          "blockNumber": "0x7dc0776",
          "transactionHash": "0xeab66bb3b104cdb90cdd8946b62f3564cb5caf9b08e7072db6d18adf59704102",
          "transactionIndex": "0xc",
          "logIndex": "0x43",
          "removed": false
        },
        {
          "address": "0xa3212332057c479937ea5efe4c92ece8d3a3100a",
          "topics": [
            "0x14bcd9461bf423d53fe144e9bbbeb02de84c405ec737944cd40b83093ad373d7",
            "0x00000000000000000000000030b8cf2aa67e1e13a096d8838cc942fbbd52778b",
            "0x0000000000000000000000000000000000000000000000000000000000000001",
            "0x0000000000000000000000000000000000000000000000000000000000000002"
          ],
          "data": "0x",
          "blockHash": "0xe26b1aeec132963330b27c7e8535db66d41cede643b0abead86e5f8a30494f15",
          "blockNumber": "0x7dc0776",
          "transactionHash": "0xeab66bb3b104cdb90cdd8946b62f3564cb5caf9b08e7072db6d18adf59704102",
          "transactionIndex": "0xc",
          "logIndex": "0x44",
          "removed": false
        },
        {
          "address": "0x30b8cf2aa67e1e13a096d8838cc942fbbd52778b",
          "topics": [
            "0x442e715f626346e8c54381002da614f62bee8d27386535b2521ec8540898556e",
            "0xd75ca605a34880364a117f68eff4a14a5e15666d8ba56fe835dedc45a4058525"
          ],
          "data": "0x0000000000000000000000000000000000000000000000000000000000000000",
          "blockHash": "0xe26b1aeec132963330b27c7e8535db66d41cede643b0abead86e5f8a30494f15",
          "blockNumber": "0x7dc0776",
          "transactionHash": "0xeab66bb3b104cdb90cdd8946b62f3564cb5caf9b08e7072db6d18adf59704102",
          "transactionIndex": "0xc",
          "logIndex": "0x45",
          "removed": false
        }
      ],
      "logsBloom": "0x040000004000000000000000000000400000000000000000000000000400000000000000000000000000000000000000000000000000000000000000000c0000000000000000000000000000000000000000050000040000000000000000000000000040000000000000000000000000000004000008000008000000000000000000000000000000000000000000000000000000000000000000000000000000000000000400004000000100000004000000000000000000000000000000000000200000080000000040000000020000110000000000000000000000000040000000000000000000000000000000000000008000008000000000000000000000",
      "type": "0x2",
      "transactionHash": "0xeab66bb3b104cdb90cdd8946b62f3564cb5caf9b08e7072db6d18adf59704102",
      "transactionIndex": "0xc",
      "blockHash": "0xe26b1aeec132963330b27c7e8535db66d41cede643b0abead86e5f8a30494f15",
      "blockNumber": "0x7dc0776",
      "gasUsed": "0x18821",
      "effectiveGasPrice": "0x321",
      "from": "0x343bd4e802bae35f89e043299b82067aab38dfd3",
      "to": "0x30b8cf2aa67e1e13a096d8838cc942fbbd52778b",
      "contractAddress": null,
      "l1BaseFeeScalar": "0x146b",
      "l1BlobBaseFee": "0x2fd9dc",
      "l1BlobBaseFeeScalar": "0xf79c5",
      "l1Fee": "0x29ddb6a46",
      "l1GasPrice": "0x2d9649c6",
      "l1GasUsed": "0xa76"
    }
  ],
  "libraries": [],
  "pending": [],
  "returns": {},
  "timestamp": 1739319463,
  "chain": 10,
  "commit": "e80226a"
}